:020000040800F2
:100000000000022095300008F12C0008F32C0008B5
:10001000F52C0008F72C0008F92C0008000000005F
:10002000000000000000000000000000FB2C0008A1
:10003000FD2C000800000000FF2C0008012D000826
:10004000E5300008E5300008E5300008E53000083C
:10005000E5300008E5300008E5300008E53000082C
:10006000E5300008E5300008E5300008E53000081C
:10007000E5300008E5300008E5300008E53000080C
:10008000E5300008E5300008E5300008E5300008FC
:10009000E5300008E5300008E5300008E5300008EC
:1000A000E5300008E5300008E5300008E5300008DC
:1000B000E5300008E5300008E5300008E5300008CC
:1000C000E5300008E5300008E5300008E5300008BC
:1000D000E5300008112D0008292D0008352D0008F5
:1000E000E5300008E5300008E5300008E53000089C
:1000F000E5300008E5300008E5300008E53000088C
:10010000E5300008E5300008E5300008E53000087B
:10011000E5300008E5300008E5300008E53000086B
:10012000E5300008E5300008E5300008E53000085B
:10013000E53000080000000000000000E530000885
:10014000E5300008E5300008E5300008E53000083B
:10015000E5300008E5300008E5300008412D0008D2
:10016000E5300008E5300008E5300008E53000081B
:10017000E5300008E5300008000000000000000045
:08018000E5300008E53000083D
:1001900010B5054C237833B9044B13B10448AFF3C1
:1001A00000800123237010BDFC010020000000002E
:1001B000C05C000808B5034B1BB103490348AFF30B
:1001C000008008BD0000000000020020C05C0008A4
:1001D000034613F8012B002AFBD1181A0138704787
:1001E00001F0FF01102A2BDB10F0070F08D010F8E8
:1001F000013B013A8B422DD010F0070F42B3F6D1EC
:10020000F0B441EA012141EA014122F007047FF004
:1002100000070023F0E80256083C85EA010586EA5B
:10022000010685FA47F5A3FA87F586FA47F6A5FA97
:1002300087F68EB9EED1F0BC01F0FF0102F00702A3
:1002400032B110F8013B013A83EA010313B1F8D14E
:100250000020704701387047002D06BF354603382F
:10026000073815F0010F07D1013015F4807F02BF68
:10027000013015F4C03F0130F0BC0138704700BFB9
:1002800081F0004102E000BF83F0004330B54FEA47
:1002900041044FEA430594EA050F08BF90EA020FB4
:1002A0001FBF54EA000C55EA020C7FEA645C7FEA47
:1002B000655C00F0E2804FEA5454D4EB5555B8BF6A
:1002C0006D420CDD2C4480EA020281EA030382EADB
:1002D000000083EA010180EA020281EA0303362D6D
:1002E00088BF30BD11F0004F4FEA01314FF4801C40
:1002F0004CEA113102D0404261EB410113F0004F52
:100300004FEA03334CEA133302D0524263EB430308
:1003100094EA050F00F0A780A4F10104D5F1200EA6
:100320000DDB02FA0EFC22FA05F2801841F1000101
:1003300003FA0EF2801843FA05F359410EE0A5F1D5
:1003400020050EF1200E012A03FA0EFC28BF4CF006
:10035000020C43FA05F3C01851EBE37101F00045BC
:1003600007D54FF0000EDCF1000C7EEB00006EEBC9
:100370000101B1F5801F1BD3B1F5001F0CD3490853
:100380005FEA30004FEA3C0C04F101044FEA4452AA
:1003900012F5800F80F09A80BCF1004F08BF5FEA31
:1003A000500C50F1000041EB045141EA050130BD11
:1003B0005FEA4C0C404141EB010111F4801FA4F1B4
:1003C0000104E9D191F0000F04BF01460020B1FA09
:1003D00081F308BF2033A3F10B03B3F120020CDA41
:1003E0000C3208DD02F1140CC2F10C0201FA0CF01F
:1003F00021FA02F10CE002F11402D8BFC2F1200C84
:1004000001FA02F120FA0CFCDCBF41EA0C01904039
:10041000E41AA2BF01EB0451294330BD6FEA040482
:100420001F3C1CDA0C340EDC04F11404C4F120026D
:1004300020FA04F001FA02F340EA030021FA04F37F
:1004400045EA030130BDC4F10C04C4F1200220FAD6
:1004500002F001FA04F340EA0300294630BD21FA14
:1004600004F0294630BD94F0000F83F4801306BFDA
:1004700081F480110134013D4EE77FEA645C18BFCE
:100480007FEA655C29D094EA050F08BF90EA020F65
:1004900005D054EA000C04BF1946104630BD91EA5D
:1004A000030F1EBF0021002030BD5FEA545C05D160
:1004B0004000494128BF41F0004130BD14F580049F
:1004C0003CBF01F5801130BD01F0004545F0FE4113
:1004D00041F470014FF0000030BD7FEA645C1ABF48
:1004E000194610467FEA655C1CBF0B46024650EA7F
:1004F000013406BF52EA033591EA030F41F40021AB
:1005000030BD00BF90F0000F04BF0021704730B530
:100510004FF4806404F132044FF000054FF0000105
:1005200050E700BF90F0000F04BF0021704730B5C6
:100530004FF4806404F1320410F0004548BF40429B
:100540004FF000013EE700BF42004FEAE2014FEAF0
:1005500031014FEA02701FBF12F07F4393F07F4FCB
:1005600081F06051704792F0000F14BF93F07F4FFD
:10057000704730B54FF4607401F0004521F0004140
:1005800020E700BF50EA010208BF704730B54FF0C6
:1005900000050AE050EA010208BF704730B511F0CB
:1005A000004502D5404261EB41014FF4806404F103
:1005B00032045FEA915C3FF4DCAE4FF003025FEA85
:1005C000DC0C18BF03325FEADC0C18BF033202EB0D
:1005D000DC02C2F1200300FA03FC20FA02F001FA67
:1005E00003FE40EA0E0021FA02F11444C1E600BF06
:1005F00070B54FF0FF0C4CF4E06C1CEA11541DBFB9
:100600001CEA135594EA0C0F95EA0C0F00F0DEF883
:100610002C4481EA030621EA4C5123EA4C5350EA68
:10062000013518BF52EA033541F4801143F48013B9
:1006300038D0A0FB02CE4FF00005E1FB02E506F04A
:100640000042E0FB03E54FF00006E1FB03569CF09F
:10065000000F18BF4EF0010EA4F1FF04B6F5007FA5
:1006600064F5407404D25FEA4E0E6D4146EB060617
:1006700042EAC62141EA55514FEAC52040EA5E50A0
:100680004FEACE2EB4F1FD0C88BFBCF5E06F1ED84A
:10069000BEF1004F08BF5FEA500E50F1000041EB81
:1006A000045170BD06F0004646EA010140EA02002E
:1006B00081EA0301B4EB5C04C2BFD4EB0C0541EA50
:1006C000045170BD41F480114FF0000E013C00F365
:1006D000AB8014F1360FDEBF002001F0004170BD89
:1006E000C4F10004203C35DA0C341BDC04F11404A2
:1006F000C4F1200500FA05F320FA04F001FA05F22E
:1007000040EA020001F0004221F0004110EBD370FA
:1007100021FA04F642EB06015EEA430E08BF20EA26
:10072000D37070BDC4F10C04C4F1200500FA04F3C9
:1007300020FA05F001FA04F240EA020001F000415B
:1007400010EBD37041F100015EEA430E08BF20EACE
:10075000D37070BDC4F1200500FA05F24EEA020E16
:1007600020FA04F301FA05F243EA020321FA04F045
:1007700001F0004121FA04F220EA020000EBD370FC
:100780005EEA430E08BF20EAD37070BD94F0000FFC
:100790000FD101F00046400041EB010111F4801F30
:1007A00008BF013CF7D041EA060195F0000F18BFE1
:1007B000704703F00046520043EB030313F4801F1D
:1007C00008BF013DF7D043EA0603704794EA0C0FD7
:1007D0000CEA135518BF95EA0C0F0CD050EA4106ED
:1007E00018BF52EA4306D1D181EA030101F000416A
:1007F0004FF0000070BD50EA410606BF1046194692
:1008000052EA430619D094EA0C0F02D150EA01369D
:1008100013D195EA0C0F05D152EA03361CBF1046DE
:1008200019460AD181EA030101F0004141F0FE417D
:1008300041F470014FF0000070BD41F0FE4141F401
:10084000780170BD70B54FF0FF0C4CF4E06C1CEA01
:1008500011541DBF1CEA135594EA0C0F95EA0C0FB6
:1008600000F0A7F8A4EB050481EA030E52EA033571
:100870004FEA013100F088804FEA03334FF0805592
:1008800045EA131343EA12634FEA022245EA1115BF
:1008900045EA10654FEA00260EF000419D4208BF70
:1008A000964244F1FD0404F5407402D25B084FEA1D
:1008B0003202B61A65EB03055B084FEA32024FF4C9
:1008C00080104FF4002CB6EB020E75EB030E22BF26
:1008D000B61A754640EA0C005B084FEA3202B6EBE6
:1008E000020E75EB030E22BFB61A754640EA5C0095
:1008F0005B084FEA3202B6EB020E75EB030E22BF25
:10090000B61A754640EA9C005B084FEA3202B6EB25
:10091000020E75EB030E22BFB61A754640EADC00E4
:1009200055EA060E18D04FEA051545EA16754FEA46
:1009300006164FEAC30343EA52734FEAC2025FEA64
:100940001C1CC0D111F4801F0BD141EA00014FF0F3
:1009500000004FF0004CB6E711F4801F04BF0143C4
:100960000020B4F1FD0C88BFBCF5E06F3FF6AFAEE0
:10097000B5EB030C04BFB6EB020C5FEA500C50F170
:10098000000041EB045170BD0EF0004E4EEA1131F3
:1009900014EB5C04C2BFD4EB0C0541EA045170BDFA
:1009A00041F480114FF0000E013C90E645EA060E3E
:1009B0008DE60CEA135594EA0C0F08BF95EA0C0F6C
:1009C0003FF43BAF94EA0C0F0AD150EA01347FF4B4
:1009D00034AF95EA0C0F7FF425AF104619462CE78B
:1009E00095EA0C0F06D152EA03353FF4FDAE1046EE
:1009F000194622E750EA410618BF52EA43067FF43F
:100A0000C5AE50EA41047FF40DAF52EA43057FF4CE
:100A1000EBAE12E74FF0FF3C06E000BF4FF0010CD9
:100A200002E000BF4FF0010C4DF804CD4FEA410C3D
:100A30007FEA6C5C4FEA430C18BF7FEA6C5C1BD00A
:100A400001B050EA410C0CBF52EA430C91EA030F8B
:100A500002BF90EA020F0020704710F1000F91EAE8
:100A6000030F58BF994208BF90422CBFD8176FEAB6
:100A7000E37040F0010070474FEA410C7FEA6C5C84
:100A800002D150EA013C07D14FEA430C7FEA6C5C8B
:100A9000D6D152EA033CD3D05DF8040B704700BFB7
:100AA0008446104662468C461946634600E000BF05
:100AB00001B5FFF7B7FF002848BF10F1000F01BDD7
:100AC0004DF808EDFFF7F4FF0CBF012000205DF8A2
:100AD00008FB00BF4DF808EDFFF7EAFF34BF012027
:100AE00000205DF808FB00BF4DF808EDFFF7E0FFC0
:100AF00094BF012000205DF808FB00BF4DF808ED11
:100B0000FFF7CEFF94BF012000205DF808FB00BF77
:100B10004DF808EDFFF7C4FF34BF012000205DF859
:100B200008FB00BF4FEA410C7FEA6C5C02D150EA3F
:100B3000013C0AD14FEA430C7FEA6C5C02D152EAD5
:100B4000033C02D14FF0000070474FF001007047A6
:100B50004FEA410212F5001215D211D56FF47873E5
:100B6000B3EB625212D94FEAC12343F0004343EA88
:100B7000505311F0004F23FA02F018BF4042704763
:100B80004FF00000704750EA013005D111F00040ED
:100B900008BF6FF0004070474FF00000704700BF83
:100BA00053B94AB9002908BF00281CBF4FF0FF31D4
:100BB0004FF0FF3000F07AB9ADF1080C6DE904CECA
:100BC00000F006F8DDF804E0DDE9022304B0704728
:100BD0002DE9F0478C460D460446089E002B51D166
:100BE0008A4217466DD9B2FA82FEBEF1000F0BD0D1
:100BF000CEF1200C01FA0EF520FA0CFC02FA0EF7E9
:100C00004CEA050C00FA0EF44FEA174A250CBCFB1F
:100C1000FAF81FFA87F90AFB18CC45EA0C4508FBDD
:100C200009F3AB420AD9ED1908F1FF3280F02381B4
:100C3000AB4240F22081A8F102083D44ED1AA4B273
:100C4000B5FBFAF00AFB105544EA054400FB09F92C
:100C5000A14509D9E41900F1FF3380F00A81A145CB
:100C600040F2078102383C44A4EB090440EA084002
:100C70000021002E61D024FA0EF40023346073604A
:100C8000BDE8F0878B4207D9002E54D0002186E8BA
:100C900021000846BDE8F087B3FA83F1002940F04F
:100CA0008E80AB4202D3824200F2FA80841A65EB56
:100CB00003050120AC46002E3FD086E81010BDE8A9
:100CC000F08712B90127B7FBF2F7B7FA87FEBEF13A
:100CD000000F34D1EB1B3A0C1FFA87FC0121B3FB48
:100CE000F2F8250C02FB183345EA03450CFB08F328
:100CF000AB4207D9ED1908F1FF3002D2AB4200F246
:100D0000D1808046ED1AA3B2B5FBF2F002FB10557C
:100D100043EA05440CFB00FCA44507D9E41900F1A3
:100D2000FF3302D2A44500F2B8801846A4EB0C04AD
:100D300040EA08409DE731463046BDE8F087CEF1F5
:100D4000200405FA0EF307FA0EF720FA04F83A0C1D
:100D500025FA04F448EA0308B4FBF2F14FEA184517
:100D600002FB11441FFA87FC45EA044501FB0CF322
:100D7000AB4200FA0EF409D9ED1901F1FF3080F011
:100D80008A80AB4240F2878002393D44EB1A1FFA59
:100D900088F5B3FBF2F002FB103345EA034500FB94
:100DA0000CF3AB4207D9ED1900F1FF386FD2AB421B
:100DB0006DD902383D44EB1A40EA01418FE7C1F199
:100DC000200722FA07F88B4005FA01F448EA0303EA
:100DD00020FA07FE4FEA134CFD404EEA040EB5FB25
:100DE000FCF94FEA1E440CFB19551FFA83F844EA3C
:100DF000054509FB08F4AC4202FA01F200FA01FAD7
:100E000008D9ED1809F1FF3043D2AC4241D9A9F11C
:100E100002091D442D1B1FFA8EFEB5FBFCF00CFBD6
:100E200010554EEA054400FB08F8A04507D9E41820
:100E300000F1FF3529D2A04527D902381C4440EAE9
:100E40000940A4EB0804A0FB02894C45C6464D4668
:100E500015D312D056B1BAEB0E0364EB050404FAB5
:100E600007F7CB401F43CC40376074600021BDE8DA
:100E7000F0871846F8E69046E0E6C245EAD2B8EBBD
:100E8000020E69EB03050138E4E72846D7E7404640
:100E900091E78146BEE7014678E702383C4445E7E2
:100EA000084608E7A8F102083D442BE7704700BF59
:100EB00038B50E4A0E4B054618784FF47A73B3FBDB
:100EC000F0F31068B0FBF3F000F0AAF8044658B94C
:100ED0000F2D09D8024629464FF0FF3000F05EF88A
:100EE000044B20461D6038BD012038BD280000207D
:100EF000000000200400002008B50B4B1A6842F4E3
:100F000000721A601A6842F480621A601A6842F429
:100F100080721A60032000F02FF80020FFF7C8FF4E
:100F200001F0CAFE002008BD003C0240034A044B09
:100F300011681B780B441360704700BF70030020DA
:100F400000000020014B1868704700BF70030020AC
:100F500038B50446FFF7F6FF631C1CBF054B1B7832
:100F6000054618BFE418FFF7EDFF401B8442FAD88E
:100F700038BD00BF00000020074AD36823F4E063B7
:100F80001B041B0C43F0BF63000243F4003300F466
:100F9000E0600343D360704700ED00E0174B30B5CD
:100FA000DC68C4F30224C4F10703251D042B28BF09
:100FB0000423062D4FF0010505FA03F303F1FF3377
:100FC0008CBF033C00241940A14005FA04F4013C05
:100FD0002240002842EA01024FEA0212ADBF00F1AE
:100FE000604000F00F00064B00F56140B5BFD2B283
:100FF000D2B21A5480F8002330BD00BF00ED00E0EB
:1010000014ED00E0002808DB4209012300F01F0076
:1010100003FA00F0014B43F82200704700E100E0C2
:101020000138B0F1807F0AD2064B074A5860F021A0
:1010300082F823100020072298601A607047012070
:10104000704700BF10E000E000ED00E008B501F0DF
:10105000FDFE08BD2DE9F04F85B00B68DFF8AC81CF
:10106000684ADFF8AC91019300230124019D9C4064
:101070002540AC4240F0B0804C6824F0100C0CF1DC
:10108000FF36012E4FEA430E12D88768032606FA70
:101090000EF627EA0607CE6806FA0EF63E4386608D
:1010A0004768C4F3001627EA05079E403E434660A2
:1010B0000326C76806FA0EF6F64307EA060A8F68A3
:1010C00007FA0EF747EA0A07BCF1020FC76016D10C
:1010D0004FEAD30A00EB8A0A03F0070BDAF8207014
:1010E0004FEA8B0B4FF00F0C0CFA0BFC27EA0C0CA1
:1010F0000F6907FA0BF747EA0C07CAF82070076870
:101100003E4004F0030707FA0EFE4EEA06060660AC
:10111000E60061D54FF0000BCDF80CB0D8F8447064
:10112000394E47F48047C8F84470D8F8447007F443
:1011300080470397039F23F0030707F1804707F5D4
:101140009C3703F0030CD7F808A04FEA8C0C4FF043
:101150000F0E0EFA0CFEB0422AEA0E0E43D006F530
:101160008066B04241D006F58066B0423FD006F5B9
:101170008066B0423DD006F58066B0423BD048451F
:101180003BD006F50066B04239D006F58066B04225
:1011900014BF0826072606FA0CF646EA0E06BE60BD
:1011A0001668EF4314F4803F0CBF3E402E43166098
:1011B000566814F4003F0CBF3E402E4356609668BC
:1011C00014F4801F0CBF3E402E439660D668A402E4
:1011D00054BF3E402E43D6600133102B7FF445AF01
:1011E00005B0BDE8F08F5E46D5E70126D3E70226BD
:1011F000D1E70326CFE70426CDE70526CBE7062671
:10120000C9E700BF003C0140000002400038024036
:10121000001402400AB1816170470904FBE7000035
:101220002DE9F341044608B901203FE00368DD07DA
:1012300010D4236898075AD423681A0700F19C80B9
:1012400023685B0700F1BA80A069002840F01B8189
:1012500000202BE0A44B9A6802F00C02042A07D06D
:101260009A6802F00C02082A0AD15B68590207D575
:101270009D4B1B689A03DCD56368002BD9D1D3E75B
:101280006368994DB3F5803F13D12B6843F48033E5
:101290002B60FFF757FE944D06462B689B03C8D47E
:1012A000FFF750FE801B6428F7D9032002B0BDE889
:1012B000F081B3F5A02F04D12B6843F480232B6079
:1012C000E3E72A6822F480322A602A6822F4802226
:1012D0002A60002BDDD1FFF735FE06462B689F0301
:1012E000A7D5FFF72FFE801B6428F7D9DDE77E4BDB
:1012F0009A6812F00C0F07D09A6802F00C02082AC4
:1013000011D15B685E020ED4774B1A68950702D53F
:10131000E268012A88D11A68216922F0F80242EABB
:10132000C1021A6088E7E268704BB2B101221A600C
:10133000FFF708FE6C4D06462B68980707D52B680B
:10134000226923F0F80343EAC2032B6074E7FFF736
:10135000F9FD801B0228EFD9A7E71A60FFF7F2FD1D
:10136000614D06462B6899077FF566AFFFF7EAFDEA
:10137000801B0228F6D998E762695D4B7AB1012299
:101380001A60FFF7DFFD584D06466B6F9F073FF56C
:1013900057AFFFF7D7FD801B0228F6D985E71A6003
:1013A000FFF7D0FD504D06466B6F98077FF548AFAD
:1013B000FFF7C8FD801B0228F6D976E74A4B1A6C66
:1013C00012F0805228D101921A6C42F080521A64B5
:1013D0001B6C03F080530193019B0126454D2B6844
:1013E000D9051BD5A368404D012B27D12B6F43F0A6
:1013F00001032B67FFF7A6FD3B4D074641F28838F6
:101400002B6F9B0739D5002E3FF41EAF364A136C65
:1014100023F08053136417E70026DFE72B6843F4BB
:1014200080732B60FFF78EFD07462B68DA05D9D451
:10143000FFF788FDC01B0228F7D936E7052B04D13A
:101440002B6F43F004032B67D0E72A6F22F00102D1
:101450002A672A6F22F004022A67002BCAD1FFF7FD
:1014600071FD41F2883807462B6F9807CBD5FFF7FF
:1014700069FDC01B4045F7D917E7FFF763FDC01BA7
:101480004045BDD911E7184DAB6803F00C03082B9C
:1014900047D0194E00230228336035D1FFF752FDA3
:1014A00007462B68990129D4226AE3691343626ACB
:1014B00043EA8213E26A43EA0263A26A0A4C5208D0
:1014C000013A43EA02436B6001233360FFF73AFDC0
:1014D000054623689A013FF5BBAEFFF733FD401B7D
:1014E0000228F6D9E1E600BF00380240000047427A
:1014F000800E47420070004060004742FFF722FD27
:10150000C01B0228CDD9D0E6FFF71CFD04462B688E
:101510009B017FF59DAEFFF715FD001B0228F6D954
:10152000C3E601283FF4C2AE6868E36900F48002B4
:101530009A427FF479AE226A00F03F0393427FF42F
:1015400073AE626A47F6C073034093427FF46CAE99
:10155000A26A00F4403393427FF466AEE36A00F07F
:101560007060C01A18BF0120A0E600BF134908B57B
:101570008B6803F00C03042B03D0082B03D0104816
:1015800008BD104808BD4A684B68496813F48003D9
:1015900014BF0C480A48C1F3881118BF002302F099
:1015A0003F02A1FB0001FFF7FBFA044B5B68C3F3AA
:1015B000014301335B00B0FBF3F008BD003802408B
:1015C0000024F40000127A002DE9F0410D46044693
:1015D00010B90120BDE8F081444B1A6802F00F02F7
:1015E0008A4229D321688F072ED4C80741D43F4BA4
:1015F0001A6802F00F02954267D3226851076DD432
:10160000130707D53A4A2169936823F4604343EAF4
:10161000C1039360FFF7AAFF354B364A9B68C3F3BB
:101620000313D35CD840344B1860344B1868FFF771
:101630003FFC0020BDE8F081CAB21A701B6803F0BD
:101640000F039942C5D1CDE7294B11F0040F1EBFFE
:101650009A6842F4E0529A600E0742BF9A6842F4D8
:1016600060429A609A68A06822F0F00202439A6091
:10167000BBE762681E4B012A1DD11B6813F4003FB3
:10168000A7D01B4EB36823F003031343B360FFF7E7
:1016900059FC41F288380746B368626803F00C03CE
:1016A000B3EB820FA3D0FFF74DFCC01B4045F3D92D
:1016B0000320BDE8F081911E01291B6802D813F0B8
:1016C000007FDDE713F0020FDAE7EAB21A701B6859
:1016D00003F00F039D427FF47CAF8EE70449E0687E
:1016E0008B6823F4E05303438B6089E7003C02409E
:1016F0000038024059630008280000200400002040
:10170000044B054A9B68C3F38223D35C034A1068E9
:10171000D840704700380240696300082800002064
:10172000044B054A9B68C3F34233D35C034A1068F9
:10173000D840704700380240696300082800002044
:1017400038B50368C1681A69044622F440520A4356
:101750001A612569A268D968C0692A43656921F4BC
:1017600016412A4321F00C0102430A43DA605A6908
:10177000A16922F440720A43B0F5004F5A61254A2C
:1017800029D1934203D002F58062934220D1FFF722
:10179000C7FF6268256892184FF000034FF01901E7
:1017A0005B41A0FB0101FFF7FBF96421B0FBF1F401
:1017B00001FB1403DB003233B3FBF1F303F0070248
:1017C0005B0002EB041203F4F8731344AB6038BD02
:1017D000FFF796FFDDE7934202D00F4A934216D1FE
:1017E000FFF79EFF6368256819219A00A0FB01019D
:1017F0009B0FFFF7D5F96422B0FBF2F102FB110356
:101800001B013233B3FBF2F303EB0113DEE7FFF707
:1018100077FFE7E70010014000140140F8B50446E7
:101820000E4617461D4621680B6836EA030301D1B0
:101830000020F8BD6B1CF7D095B92368DA6822F454
:10184000D072DA605A6922F001025A61202384F8CA
:10185000393084F83A30002384F838300320F8BD5A
:10186000FFF770FBC01B8542DDD2E6E710B50446EA
:1018700040B390F8393003F0FF021BB980F83820EC
:1018800001F062FB2268242384F83930D36823F402
:101890000053D3602046FFF753FF23681A6922F4F0
:1018A00090421A615A6922F02A025A61DA6842F4B7
:1018B0000052DA6000202023E06384F8393084F895
:1018C0003A3010BD012010BD2DE9F8431F4690F8B5
:1018D0003930202B04460D46904651D100294CD07A
:1018E000002A4AD090F83830012B49D0012380F8E3
:1018F00038304FF000092123C0F83C9080F839308F
:10190000FFF720FBA4F824800646A4F8268084F87C
:101910003890E38C9BB25BB93B463246402120466F
:10192000FFF77CFFA0B9202384F83930BDE8F883A5
:10193000E38C013B9BB2E384A368B3F5805F32463E
:101940003B464FF0800120460ED1FFF767FF10B1F4
:101950000320BDE8F8832B882268C3F30803536093
:10196000236943B90235D4E7FFF758FF0028EFD1C8
:1019700023682A785A600135CBE70120BDE8F88357
:101980000220BDE8F88300000C4A137803F0F80346
:1019900043F0080303F08F036FF3C71313705378FA
:1019A00003F0FE036FF341035370054A137803F00D
:1019B000C7036FF382031370704700BF74030020E6
:1019C000C403002038B540F6B8310546052001F0C3
:1019D000FFF92C46052001F01BFA68B900F0C8FF9A
:1019E0000028F7D000F0B7FFC3B204F8013B0A2B80
:1019F000A4EB0500EED138BD4FF0FF3038BD00003C
:101A0000F0B50322A7B005460E4601467048714C5A
:101A100001F094FB78B9237840F6B83143F0010324
:101A20000620237001F0D4F9012432460021284613
:101A300001F09EFBB9E003222946674801F07EFBD6
:101A400050B923784FF4FA6143F004030720237060
:101A500001F0BEF90224E8E7032229465F4801F0BD
:101A60006DFB28B1032229465D4801F067FBF0B900
:101A7000237843F002036FF3C30343F69821082051
:101A8000237001F0A5F9574802F05AF8237843F083
:101A900060032370544B002243F2C82109201A60CE
:101AA00001F096F9514802F04BF80324BDE70322F8
:101AB00029464F4801F042FB80B9237843F2C82100
:101AC00060F3C3030820237001F082F923789A079A
:101AD00002D5444802F034F80424A6E7032229463C
:101AE000444801F02BFB28B9237843F010032370FE
:101AF00005249AE7032229463F4801F01FFBB0B9AD
:101B000023784EF6602143F040030920237001F052
:101B10005FF994F90030002B04DA43F2B06106203B
:101B200001F056F9354802F00BF806247DE7032250
:101B30002946334801F002FBB0B923784EF6602104
:101B400043F040030920237001F042F994F900307A
:101B5000002B04DA44F26821062001F039F9294803
:101B600001F0EEFF072460E703222946264801F032
:101B7000E5FA0746E0B92378324643F08003294668
:101B80006846237001F0E9FA32463946284601F0EA
:101B9000EFFA721F0DF10501284601F0DEFA43F25B
:101BA000B061062001F014F90824204627B0F0BDEA
:101BB0006378DB0707D52B783BB163786FF30003BD
:101BC00063700924F1E700242FE71C462DE700BFCE
:101BD0002D61000874030020386100083F6100088F
:101BE0004C61000859610008540300206761000837
:101BF000806100088761000893610008996100080E
:101C0000B6610008BC610008D66100080378302B7B
:101C100025D14378322B22D1037903F0DF03462B01
:101C20001BD14379302B03D0382B11D001207047C2
:101C30000C4A50F8063F1360436853608368936012
:101C400000201073084A137843F00803137070479C
:101C5000054A137843F004031370002070474FF0D7
:101C6000FF30704718020020C403002038B540F64A
:101C7000B8310546052001F0ABF82C46052001F0EF
:101C8000C7F868B900F05FFE0028F7D000F058FEF2
:101C9000C3B204F8013B0A2BA4EB0500EED138BD1A
:101CA0004FF0FF3038BD000008B50C4B1B789A0789
:101CB00005D40B4801F044FF4FF0FF3008BD1B076F
:101CC00008D4084801F03CFF6420FFF741F96FF0A9
:101CD000010008BD00F042FE002008BD7403002092
:101CE000E76100080062000870B5082204460E464D
:101CF00001460A4801F022FA50B92046FFF7D4FF06
:101D0000012532460021204601F032FA284670BDF6
:101D1000204600F023FE0025F3E700BF825D0008A7
:101D2000F1291FB503D0F22901D0F02907D10324EE
:101D30008DE81E001C230222024901F043FF00200F
:101D400004B010BD6B5D000800B58DB003230B938C
:101D50000E4B0A930E4B09930E4B08930E4B0793B1
:101D60000E4B06930E4B05930E4B04930E4B0393B1
:101D70000E4B02930E4B02228DE80A0036230D49CA
:101D800001F020FF00200DB05DF804FBFD5C0008B1
:101D90000A5D0008135D0008205D0008295D000849
:101DA000365D00083F5D00084C5D0008555D000889
:101DB000625D0008D85C000870B594B00646154610
:101DC0000C4650220021684601F0D2F933462A46DB
:101DD0000749684601F0F6FE6846FFF765FF0028F0
:101DE00004DB6A462146034801F036FE14B070BD9C
:101DF000126200082462000837B5164D2B780024C3
:101E00005B060094ADF8044017D5092001F000F8F6
:101E100098B1114B29781A6864F386110132297040
:101E200042F210718A421A6009DD2A780B481C6060
:101E300064F345122A7001F083FE03B030BD0849F7
:101E4000684601F0BFFE642205216846FFF7B4FF33
:101E5000F3E700BF7403002054030020FB5D00087B
:101E6000125E000870B5A6B0064615460C469622CE
:101E70000021684601F07CF933462A460949684644
:101E800001F0A0FE6846FFF70FFF002808DB684658
:101E9000FEF79EF96A4603462146034801F0DCFD41
:101EA00026B070BD30620008436200081FB50024F0
:101EB0000849019401A80294039401F0A7FE01A827
:101EC00000F04CFD044A5378204643F00103537060
:101ED00004B010BDCA5D00087403002000B593B0C3
:101EE000C179437802780591817904914179039110
:101EF00001790291C17801918178009107A8074981
:101F000001F060FE064A537807A843F001035370BE
:101F100000F024FD002013B05DF804FB295F0008E9
:101F2000740300201FB50E220021684601F020F93D
:101F30000749684601F06AFE684600F00FFD054A51
:101F40005378002043F00103537005B05DF804FBA3
:101F50008B5D00087403002000B591B0C17943780F
:101F60000278059181790491417903910179029177
:101F7000C17801918178009107A8074901F022FEFC
:101F8000064A537807A843F00103537000F0E6FCBB
:101F9000002011B05DF804FB855F00087403002089
:101FA0001FB50E220021684601F0E2F80749684695
:101FB00001F02CFE684600F0D1FC054A5378002061
:101FC00043F00103537005B05DF804FB995D000810
:101FD0007403002000B59FB0C17B437802780D9157
:101FE000817B0C91417B0B91017B0A91C17A099114
:101FF000817A0891417A0791017A0691C179059118
:10200000817904914179039101790291C17801911B
:10201000817800910FA8074901F0D4FD064A537852
:102020000FA843F00103537000F098FC00201FB08C
:102030005DF804FB54620008740300201FB50024FF
:102040000949029401A80194CDF80B4001F0DEFD8E
:1020500001A800F083FC054A5378204643F00103B1
:10206000537004B010BD00BFBF5D000874030020B2
:1020700001281FB5024606D90C4801F061FD4FF05A
:10208000FF3004B010BD00240949029401A8019456
:10209000CDF80B4001F096FD01A800F05FFC054A69
:1020A000537843F0010353702046EAE7CA62000800
:1020B000E0620008740300201FB50D22002168466D
:1020C00001F056F80749684601F0A0FD684600F0A7
:1020D00045FC054A5378002043F00103537005B0D6
:1020E0005DF804FBB25D00087403002002281FB5F0
:1020F00004460FD018B300F0FD03412B0BD063282A
:1021000008D061281BD00F4801F01AFD4FF0FF30B6
:1021100004B010BD43240D220021684601F028F8C8
:1021200022460949684601F04DFD684600F016FC5C
:10213000064A537843F0010353700020E8E7412436
:10214000E9E700BFCA620008BC620008740300200F
:102150001FB500240949029401A80194CDF80B4051
:1021600001F054FD01A800F0F9FB054A5378204620
:1021700043F00103537004B010BD00BFA75D000819
:102180007403002001281FB5024606D90C4801F04F
:10219000D7FC4FF0FF3004B010BD00240949029471
:1021A00001A80194CDF80B4001F00CFD01A800F04E
:1021B000D5FB054A537843F0010353702046EAE704
:1021C000CA620008B0620008740300201FB5002432
:1021D0000949029401A80194CDF80B4001F016FDC5
:1021E00001A800F0BBFB054A5378204643F00103E9
:1021F000537004B010BD00BFF05D000874030020F0
:102200001FB50F220021684600F0B2FF074968465B
:1022100001F0FCFC684600F0A1FB054A5378002061
:1022200043F00103537005B05DF804FBE15D000865
:10223000740300201FB500240949029401A80194E9
:10224000CDF80B4001F0E2FC01A800F087FB054A45
:102250005378204643F00103537004B010BD00BF13
:10226000D65D0008740300201FB5002407490294BE
:1022700001A80194CDF80B4001F0C8FC01A800F0C2
:102280006DFBFFF781FB204604B010BDDC61000848
:1022900030B5474C2378D9079DB00DD5062000F006
:1022A000B7FD48B123786FF300032370DBB29A07C0
:1022B00044BF6FF34103237023785D0705D50720E2
:1022C00000F0A6FD08B1FFF7CFFF237818070CD464
:1022D000082000F09DFD40B1237843F008039907E2
:1022E000237002D5334801F02BFC237803F013024E
:1022F000102A04BF6FF30413237094F90030002BED
:1023000054DA062000F084FD00284FD02A4C2378B0
:102310001A0733D51D22002101A800F029FF01F082
:1023200017FC054601F014FC4FF47A71642295FB0A
:10233000F2F302FB135390FBF1F202FB110001FBDD
:1023400003030A2193FBF1F201FB123202B95B4253
:102350001A4AF02101A8FFF7E3FC01A8FDF738FFB6
:102360001322014601A8FFF77DFD237813486FF380
:10237000C3030D220021237000F0FAFE23785B07CF
:1023800014D56C22002101A800F0F2FEF82101A86A
:10239000FFF7DAFC01A8FDF71BFF1C22014601A88C
:1023A000FFF760FD23786FF3820323701DB030BD0B
:1023B0007403002020610008C403002018020020DC
:1023C000F0B502228FB004460D460146974800F052
:1023D000B5FE60B9964865224121FFF7EDFC2A461B
:1023E000002120460FB0BDE8F04000F0C1BE02223F
:1023F0002146904800F0A2FE18B9652242218E487D
:10240000EBE7022221468D4800F098FE30B98C4857
:10241000FFF74AFC8B4801F093FBE0E702222146DC
:10242000894800F08BFE20B98848FFF73DFC8848BA
:10243000F1E702222146874800F080FE40B9864A33
:10244000137843F060031370844B18608448E2E70C
:1024500002222146834800F071FE30B97E4B1A7883
:1024600060F345121A708048D5E7022221467F4862
:1024700000F064FE20B90220FFF738FE7C48CAE76E
:10248000032221467B4800F059FE18B9FFF70EFDE4
:102490007948C0E703222146784800F04FFEA0B9F2
:1024A000774E3046FFF71AFDF079B37872783178BD
:1024B0000490B07903907079029030790190F078AF
:1024C0000090704801F0C8FA89E7032221466E485F
:1024D00000F034FE18B9FFF725FD6C489BE7032296
:1024E00021466B4800F02AFE90B96A4E3046FFF74D
:1024F00033FDF079B378727831780490B079039035
:102500007079029030790190F07800906248D9E7B4
:1025100003222146614800F011FE18B9FFF740FD83
:102520005F4878E7032221465E4800F007FE002856
:1025300024D15D4E3046FFF74DFDF07BB3787278C5
:1025400031780C90B07B0B90707B0A90307B0990B7
:10255000F07A0890B07A0790707A0690307A0590F9
:10256000F0790490B07903907079029030790190FD
:10257000F07800904D4801F06FFA30E703222146D1
:102580004B4800F0DBFD18B9FFF758FD494842E71A
:1025900004222146484800F0D1FD20B90120FFF770
:1025A00067FD464837E704222146454800F0C6FD4E
:1025B00018B9FFF75DFD43482DE704222146424844
:1025C00000F0BCFD20B9414801F0BAFA404822E7CA
:1025D000032221463F4800F0B1FD18B9FFF76CFD1A
:1025E0003D4818E7042221463C4800F0A7FD30B9D9
:1025F0000220FFF77BFD01307FF440AFEFE60322BE
:102600002146374800F09AFD18B9FFF7A1FD35487B
:1026100001E704222146344800F090FD002867D1EC
:102620000120FFF7AFFD3148F5E600BF175E000857
:102630001A5E00085C5E00085F5E00080B5F000821
:10264000A25E0008B45E0008C75E0008CA5E00080B
:10265000DC5E0008EF5E00087403002054030020D5
:1026600067610008F25E0008FB5D0008F55E000887
:10267000F85E00080A5F00080E5F00081F5F000890
:1026800020000020235F0008645F0008685F0008E6
:102690007B5F0008080000207F5F0008B95F00082A
:1026A000BD5F0008D05F000810000020D45F000864
:1026B000366000083A6000084A6000084F60000871
:1026C0005F6000086460000874600008CA62000867
:1026D00079600008896000088D6000089F6000082C
:1026E000A4600008A8600008B8600008BD60000889
:1026F00002222146134800F021FD18B9FFF766FDBC
:10270000114888E603222146104800F017FD18B949
:10271000FFF776FD0E487EE6032221460D4800F0C5
:102720000DFD18B9FFF786FD0B4874E6032221461C
:102730000A4800F003FD18B9FFF796FD08486AE65D
:102740000FB0F0BDCD600008D0600008E060000868
:10275000E4600008F8600008FC6000080C610008F4
:10276000106100082648274A38B5274C274B1060CF
:1027700000F58471516004F58471596000F50471AD
:10278000916004F50471996000F54671D1604FF4D1
:10279000846504F54672DA6000212A461C6000F068
:1027A000E7FC2A460021204600F0E2FC184B1B689B
:1027B0005A6942F001025A61DA6842F02002DA6096
:1027C000144B1B685A6942F001025A61DA6842F000
:1027D0002002DA60104B1B685A6942F001025A610C
:1027E000DA6842F02002DA600C4B1B685A6942F04A
:1027F00001025A61DA6842F02002DA6038BD00BF97
:10280000D8030020F807002008080020C803002093
:102810009C0C00201C0D00205C0C0020DC0C002017
:10282000D1F80031D1F804210133DBB29A421EBF46
:10283000D1F800218854C1F8003170470A4B53F891
:102840002030D3F80011D3F8042191421FBFD3F8F0
:102850000421985CD3F8042101321ABFD2B2C3F824
:1028600004214FF0FF307047F8070020002910B511
:102870001CDB0F4B53F82020D2F800310133DBB2C0
:10288000D2F804419C42FBD00138D2F80041C0B2DA
:1028900002281155C2F8003196BF064B064B53F87B
:1028A00020301A68D36843F08003D36010BD00BFA6
:1028B000C8030020EC6200089C0C0020044B53F875
:1028C0002030D3F80001D3F80431C01AC0B27047E9
:1028D000F807002003681868DA6810F0200F0AD0A3
:1028E00012F0200F07D01A685868134BC0B253F883
:1028F0002110FFF795BF00061CD512061AD50F4A06
:102900004FF4847000FB0121D1F80001D1F80421BB
:10291000904204D1DA6822F08002DA607047D1F880
:102920000421885CD1F804210132D2B2C1F804211B
:102930001A685860704700BFF80700200808002098
:102940000020FFF77BBF08B50020FFF7B7FF00307E
:1029500018BF012008BD0120FFF770BF10B5441E4D
:1029600014F8011F01B910BD0120FFF77FFFF7E741
:1029700008B50120FFF7A2FF003018BF012008BDF5
:102980002DE9F0412E482F4EDFF8DC8001F0D8F819
:102990002D4801F0D5F8FEF7F7FF2C4CFFF7D3FFD9
:1029A00068B13046FFF762F90146C8F800003046CA
:1029B000FFF706FDD8F800103046FFF795F9FFF74E
:1029C000D7FF234F50B12046FEF7FCFF431C0546BE
:1029D00038602ED021461F4801F03EF83968204665
:1029E000FFF70EF82378CBB12046FDF7F1FB231853
:1029F000014613F8013C0A2B224614BF164817481B
:102A000001F02AF82046FDF7E3FB01462046FFF7D8
:102A1000FDF83A680021204600F0AAFBFFF738FCD9
:102A20000F4B1B7803F02803282BB7D1FFF7E4F9ED
:102A3000B3E70C4801F084F82846BDE8F08100BFF8
:102A40003963000825020020F8620008BB0200205C
:102A5000280C00202A630008116300082063000886
:102A600074030020016300082C0C002030B51422F0
:102A70008BB00DEB0200002100F07AFB00241E4B0E
:102A800001941A6B1D4D42F004021A631A6B02F096
:102A900004020192019A02941A6B42F080021A63B6
:102AA0001A6B02F080020292029A03941A6B42F0AF
:102AB00001021A631A6B02F001020392039A049452
:102AC0001A6B42F002021A631B6B03F002030493B9
:102AD0002246284640F20221049BFEF79BFB40F26F
:102AE0000223059305A90123284606930794089419
:102AF000FEF7B0FA0BB030BD0038024000080240CB
:102B000010B50A231446034892B2FEF7DDFE2046B4
:102B100010BD00BF9C0C002030B595B030220021C4
:102B200008A800F025FB0021142203A800F020FBD8
:102B300000241C4B01941A6C42F080521A641B6CE6
:102B400003F080530193019B174B02941A6842F4DF
:102B500080421A601B680F9403F480430293029B27
:102B600001230B9310230C9308231093A823022511
:102B7000119308A80423139308950E951295FEF758
:102B80004FFB0F2303934FF4A053069305214FF4FB
:102B9000805303A8049505940793FEF715FD15B01F
:102BA00030BD00BF003802400070004038B5FEF76D
:102BB000A3F9FFF7B1FFFFF759FF00F055F900F057
:102BC0006FF900F089F900F0A3F9002211462520E1
:102BD000FEF7E4F92520FEF715FA0022114626201B
:102BE000FEF7DCF92620FEF70DFA00221146272019
:102BF000FEF7D4F92720FEF705FA002211464720F8
:102C0000FEF7CCF94720FEF7FDF9FFF7ABFD2348AF
:102C100000F096FF224B4FF47A721B68B3FBF2F37D
:102C2000013BB3F1807F09D21E4A53601E4BF02155
:102C300083F8231000239360072313601B4D0024A7
:102C40004FF47A700134FEF783F92146284600F0EC
:102C500003FF0A2CF4D14FF47A71012000F0B8F888
:102C6000012240F202211248FEF7D4FA2046FEF774
:102C70006FF9002240F202210D48FEF7CBFA204600
:102C8000FEF766F9012240F202210948FEF7C2FA76
:102C90002046FEF75DF9FFF773FEFEE72D6300089F
:102CA0002800002010E000E000ED00E05063000884
:102CB000000802407047000082B00C4B00210091D8
:102CC0005A6C42F480425A645A6C02F48042009278
:102CD000009A01911A6C42F080521A641B6C03F046
:102CE00080530193019B02B0704700BF003802403F
:102CF0007047FEE7FEE7FEE7FEE770477047704764
:102D000008B5FEF713F9BDE80840FEF79FB90000CB
:102D1000034A04481368002101331360FFF7DABD4A
:102D2000580300209C0C002001210148FFF7D2BD70
:102D30001C0D002002210148FFF7CCBD5C0C0020D7
:102D400003210148FFF7C6BDDC0C002070B50E461C
:102D500015460C46A31B9D4201DC284670BDAFF30F
:102D6000008004F8010BF5E708B50A4B1968024624
:102D700009B9094919601868694602448A4206D9A6
:102D800000F0B2F90C2303604FF0FF3008BD1A6069
:102D900008BD00BF5C030020600D00204FF0FF3035
:102DA00070474FF400534B6000207047012070477C
:102DB00000207047054BD3F8882042F47002C3F816
:102DC00088204FF000629A60704700BF00ED00E07D
:102DD0000A2810B5024605D90A210A4800F03CFE2F
:102DE000002010BD0130084C002344F8203004EBD3
:102DF000820250680028F3D1044B1B6819445160CB
:102E0000012010BD71630008300C00206403002015
:102E10000A2808B5024605D90A21094800F01CFE17
:102E2000002008BD074B03EB8002074B51681B686D
:102E30005B1A002B4FF00000A4BF5060012008BDBA
:102E400071630008300C002064030020044A1368FA
:102E500001331360034A136801331360704700BFE6
:102E6000600300206403002008B50B480B4B4FF4AF
:102E7000E13E80E808400C2200238360C3600361C8
:102E800042618361C361FEF7F1FC18B1BDE80840FF
:102E9000FFF710BF08BD00BF9C0C002000100140D0
:102EA00008B50B480B4B4FF4165E80E808400C2227
:102EB00000238360C360036142618361C361FEF7E5
:102EC000D5FC18B1BDE80840FFF7F4BE08BD00BF4F
:102ED0001C0D00200044004008B50B480B4B4FF47C
:102EE000E13E80E808400C2200238360C360036158
:102EF00042618361C361FEF7B9FC18B1BDE80840C7
:102F0000FFF7D8BE08BD00BF5C0C002000480040A1
:102F100008B50B480B4B4FF4165E80E808400C22B6
:102F200000238360C360036142618361C361FEF774
:102F30009DFC18B1BDE80840FFF7BCBE08BD00BF4E
:102F4000DC0C00200014014010B504468EB01422A1
:102F5000002109A800F00CF92368464A934224D1C5
:102F6000454B002101915A6C42F010025A645A6C90
:102F700002F010020192019A02911A6B42F00102D2
:102F80001A631B6B03F001030293029B4FF4C063AF
:102F9000099302230A9303230C93384807230D93C4
:102FA00009A9FEF757F80EB010BD354A934217D164
:102FB000314B002103911A6C42F400321A641A6CEE
:102FC00002F400320392039A04911A6B42F0010258
:102FD0001A631B6B03F001030493049B0C23D7E7D4
:102FE000284A934221D1244B2748002105911A6C8D
:102FF00042F480221A641A6C02F480220592059A27
:1030000006911A6B42F002021A631B6B03F0020373
:103010000693069B4FF44063099302230A9303230C
:103020000C9307230D9309A9BBE7184A9342BAD121
:10303000114B1748002107915A6C42F020025A6444
:103040005A6C02F020020792079A08911A6B42F01C
:1030500004021A631B6B03F004030893089BC0234C
:10306000099302230A9303230C9308230D9309A9C0
:1030700097E700BF00100140003802400000024006
:103080000044004000480040000402400014014099
:1030900000080240DFF834D0002103E00C4B5B58FD
:1030A000435004310B480C4B42189A42F6D30B4A5A
:1030B00002E0002342F8043B094B9A42F9D3FFF7A0
:1030C00079FE00F017F8FFF771FD7047000002204D
:1030D0005466000800000020FC010020FC010020D4
:1030E000600D0020FEE70000014B1868704700BF2C
:1030F0002C00002070B50D4E0D4CA41BA410002513
:10310000A54209D10B4E0C4C02F0DAFDA41BA41011
:103110000025A54205D170BD56F8253098470135E8
:10312000EEE756F8253098470135F2E74C6600087F
:103130004C6600084C6600085066000810B501395E
:103140000244904201D1002010BD10F8013B11F85B
:10315000014FA342F5D0181B10BD10B5431E0A4401
:10316000914200D110BD11F8014B03F8014FF7E770
:1031700002440346934200D1704703F8011BF9E76C
:103180002DE9FF4755EC104B0D9FDDF830A0002DC9
:103190000E4691461946B8BF22462B4627F0200717
:1031A000BBBF05F100431D4600232D23B8BF1446C5
:1031B000462F0B7004D0452F00D10136022100E0CC
:1031C000032103AB019302AB00933246534645EC17
:1031D000104B00F071FE472F804602D119F0010F0D
:1031E00026D0462F08EB060911D198F80030302B75
:1031F0000AD10022002320462946FDF761FC18B9B8
:10320000C6F10106CAF80060DAF8003099440022DD
:10321000002320462946FDF753FC38B93022039B92
:10322000994505D9591C03911A70F8E7CDF80C900F
:10323000039B0E9AA3EB08034046136004B0BDE85D
:10324000F087F7B503460029B8BF494203F8022BBF
:10325000B4BF2D222B220929427020DD0DF1070277
:1032600017460A2691FBF6F506FB15113031092D9C
:1032700002F8011C02F1FF34294609DC3031023A20
:1032800004F8011CBA421C4604D3201A03B0F0BD56
:103290002246E7E712F8011B03F8011BF2E7302290
:1032A0001C46114404F8022B5970EEE72DE9F04F4B
:1032B0008DB00C46DDF8588016461F46054601F0D5
:1032C00045FD036804931846FCF782FF00230A9328
:1032D000D8F800300590073323F0070303F1080204
:1032E00094F818A0D4F800B0C8F80020D3E900235F
:1032F000C4E91223D4E9128929F000430793CDF8D9
:1033000018804FF0FF32A54BDDE90601FDF70AFCFE
:10331000002840F0FB814FF0FF32A04BDDE90601B1
:10332000FDF7E2FB002840F0F18100220023404637
:103330004946FDF7CFFB10B12D2384F84330984B5D
:10334000984ABAF1470F8CBF9046984603232BF05A
:103350000402236122604FF00009009733460BAA54
:103360002146284600F0E2F9013040F093804FF00A
:10337000FF300DB0BDE8F08F61684B1C4BF48062EC
:103380003FD106236360002303930AAB029309AB8A
:10339000009349EC108B0DF123032260CDF804A0BB
:1033A00061682846FFF7ECFE0AF0DF03472B8046F2
:1033B00009D1099BD81C02DB6268934257DDAAF150
:1033C000020A5FFA8AFABAF1650F099934D801390D
:1033D000524604F150000991FFF733FF0A9A83180F
:1033E000012A8146236102DC2268D10701D501331D
:1033F00023619DF82330002BAFD02D2384F8433078
:10340000ABE7BAF1670F02D0BAF1470FBBD189B170
:10341000002303930AAB029309AB009349EC108B92
:103420002260CDF804A00DF123032846FFF7A8FE83
:103430008046BEE70123A5E7BAF1660F19D100293E
:1034400063680CDD216113B92268D20702D501330C
:103450000B442361099BA3654FF00009C9E713B929
:103460002268D00701D50233F3E70123F1E74FF0DB
:10347000670A099B0A9A934205DB22682361D107F8
:10348000E8D50133E5E7002BD4BFC3F102030123E4
:103490001344DEE723685A0507D4236942463146C0
:1034A0002846B84701302BD161E7BAF1650F40F2E9
:1034B000E28000220023D4E91201FDF701FB00287D
:1034C0003CD00123384A31462846B84701303FF402
:1034D0004EAF0A9B099A9A4202DB2368D8070FD5A0
:1034E000059B049A31462846B84701303FF43FAF68
:1034F0004FF0000804F11A090A9B013B984512DBC2
:1035000023689B0709D54FF0000804F11909E36807
:103510000B9A9B1A9845C0F2EE80E0680B9B98428C
:10352000B8BF184625E701234A4631462846B84722
:1035300001303FF41CAF08F10108DDE7099B002BC7
:1035400034DC0123184A31462846B84701303FF49D
:103550000EAF099B23B90A9B13B92368D907CFD5AE
:10356000059B049A31462846B84701303FF4FFAE28
:103570004FF0000904F11A0A099B5B42994501DBEF
:103580000A9B8BE70123524631462846B847013053
:103590003FF4EDAE09F10109EEE700BFFFFFEF7F59
:1035A0009063000894630008BA6100080A9AA36D4A
:1035B0009A42A8BF1A46002A914638DC04F11A0341
:1035C0004FF0000B29EAE9790693D4F858A0AAEB4A
:1035D00009039B4533DB0A9B099A9A423ADB23682D
:1035E000DA0737D40A9B0999A3EB0A02A3EB010976
:1035F0009145A8BF9146B9F1000F33DC4FF00008A8
:1036000029EAE97904F11A0A099A0A9B9B1AA3EBA1
:1036100009039845BFF674AF012352463146284648
:10362000B84701303FF4A3AE08F10108ECE71346B8
:10363000314642462846B8470130BFD197E60123BC
:10364000069A31462846B84701303FF490AE0BF158
:10365000010BBAE7059B049A31462846B84701306A
:10366000C0D184E64B4608EB0A0231462846B847EB
:103670000130C3D17BE60A9A012A01DCDB0737D58A
:103680000123424631462846B84701303FF46FAE29
:10369000059B049A31462846B84701303FF467AE8F
:1036A00000220023D4E91201FDF70AFA58B14FF0C5
:1036B000000804F11A0A0A9B013B98450DDB4B46B2
:1036C00004F15002EBE60A9B08F10102013B31468E
:1036D0002846B8470130F2D149E601235246314627
:1036E0002846B84701303FF442AE08F10108E2E74E
:1036F00001234246EBE701234A4631462846B847B4
:1037000001303FF434AE08F1010800E742464B4671
:1037100040464946FDF706FA00283FF42DAE014B1E
:10372000014A0EE6986300089C6300082DE9F04703
:1037300091461F468A680B69DDF820809342B8BF26
:103740001346C9F8003091F8432006460C4612B1E2
:103750000133C9F800302368990642BFD9F8003018
:103760000233C9F80030256815F0060507D104F1C9
:10377000190AE368D9F800209B1A9D4229DB94F8C6
:1037800043302268003318BF012392062ED404F17F
:10379000430239463046C047013021D02368E568EE
:1037A000D9F8002003F00603042B08BFAD1AA36864
:1037B00022690CBF25EAE57500259342C4BF9B1A18
:1037C000ED184FF000091A344D451BD10020BDE81B
:1037D000F0870123524639463046C047013003D1B5
:1037E0004FF0FF30BDE8F0870135C2E7E1185A1C01
:1037F000302081F84300224494F8451082F84310A9
:103800000233C4E70123224639463046C04701301F
:10381000E6D009F10109D7E72DE9F04317460A7E02
:1038200085B06E2A984606460C460C9B01F1430E65
:1038300000F0BC801AD8632A2ED00AD8002A00F0E3
:10384000C880582A00F08A8004F1420584F842209A
:103850002AE0642A01D0692AF6D121681A6811F099
:10386000800F23D0111D1960136827E0732A00F020
:10387000B48008D86F2A2AD0702AE5D10A6842F0AD
:1038800020020A6003E0752A21D0782ADCD1782250
:1038900084F845206E4964E01A6801F14205111D63
:1038A0001960136884F842300123A3E011F0400F3F
:1038B00002F104011960D7D0B2F90030002B03DA0D
:1038C0002D225B4284F8432062490A2217E02068D7
:1038D000196810F0800F03D0081D18600B6806E00F
:1038E00010F0400F01F104001860F7D00B8859491F
:1038F0006F2A14BF0A220822002084F8430065685A
:10390000A560002DC0F29C80206820F0040020609B
:10391000002B3FD1002D40F095807546082A0BD131
:103920002368DA0708D5236962689A42DEBF30232C
:1039300005F8013C05F1FF35AEEB05032361CDF839
:1039400000803B4603AA21463046FFF7EFFE0130D8
:1039500055D14FF0FF3005B0BDE8F08381F8452028
:103960003C492268186812F0800F00F104051D60C0
:1039700001D0036802E05506FBD50388D00744BF99
:1039800042F0200222601BB9226822F0200222604D
:103990001022B1E77546B3FBF2F002FB1033CB5CAB
:1039A00005F8013D03460028F5D1B7E708681A6815
:1039B000496910F0800F04D0101D18601368196059
:1039C00007E010F0400F02F1040018601368F6D011
:1039D0001980002323617546B1E71A68111D19602B
:1039E0001568626800212846FCF7FAFB08B1401B05
:1039F000606063682361002384F843309FE7236994
:103A00002A4639463046C0470130A2D023689B077A
:103A100007D5002504F11909E368039A9B1A9D4212
:103A200005DBE068039B9842B8BF184693E7012383
:103A30004A4639463046C04701308AD00135EBE767
:103A4000002BA7D10B7884F8423004F1420565E7DA
:103A5000B1630008A06300080FB40A4B13B51C68DB
:103A600024B1A36913B9204601F0E6F805AB049A26
:103A7000A1680193204601F0E7FE02B0BDE81040C6
:103A800004B070472C00002070B50E46054618B1F2
:103A900083690BB901F0D0F8AB69AC6813B928465B
:103AA00001F0CAF8234B9C4217D16C68A3891B070D
:103AB0001DD52369DBB1013EA36816F8011F013B48
:103AC000A360E9B9002B2EDA22460A21284600F02D
:103AD000A5F8013011D00A2070BD174B9C4201D1CE
:103AE000AC68E3E7154B9C4208BFEC68DEE7214673
:103AF000284600F0E5F80028DDD04FF0FF3070BD1B
:103B0000002B04DAA269934206DB0A2904D0236859
:103B10005A1C22601970CFE72246284600F07EF832
:103B20000130C9D1E9E723680A205A1C22601870C5
:103B300070BD00BFF063000810640008D063000887
:103B4000024B01461868FFF79FBF00BF2C00002002
:103B5000194B10B51C68A36BD3B9182001F068F994
:103B600043F20E33A06303804AF6CD33438041F223
:103B7000342383804EF26D63C3804DF6EC63038182
:103B8000052343810B23838101220023C0E9042301
:103B9000A16B0A480A694B69094C504304FB0300B6
:103BA000A2FB04230132034443F10003C1E90423CF
:103BB00023F0004010BD00BF2C0000202DF4515810
:103BC0002D7F954C0EB400B59CB04FF402711DAB27
:103BD000ADF81410029006906FF000410A4804916D
:103BE00007914FF6FF7153F8042BADF816100068DB
:103BF000019302A901F00AFD029B00221A701CB079
:103C00005DF804EB03B070472C000020034611F868
:103C1000012B03F8012B002AF9D17047F8B50E46A5
:103C20001446054618B183690BB901F005F8214B1C
:103C30009C422AD16C68A369A360A3891A072ED578
:103C4000236963B323692068C01A6369F6B2984296
:103C5000374604DB2146284600F084FF28BBA368D2
:103C6000013BA36023685A1C22601E706369013007
:103C7000984204D0A389DB0719D50A2E17D1214613
:103C8000284600F06FFF90B10FE00B4B9C4201D132
:103C9000AC68D0E7094B9C4208BFEC68CBE72146F3
:103CA000284600F00DF80028CCD04FF0FF373846FA
:103CB000F8BD00BFF063000810640008D06300087E
:103CC000324B70B51D6806460C4625B1AB6913B979
:103CD000284600F0B1FF2E4B9C420FD16C68B4F91E
:103CE0000C309AB215072CD4D00611D409223260B8
:103CF00043F04003A3814FF0FF3070BD254B9C4241
:103D000001D1AC68EBE7244B9C4208BFEC68E6E7C6
:103D1000510712D5616B41B104F14403994202D0BD
:103D2000304601F06BFB00236363A38923F0240377
:103D3000A3810023636023692360A38943F0080300
:103D4000A38123694BB9A38903F42073B3F5007FE2
:103D500003D02146304601F02BF8A28912F001036E
:103D60000CD00023A36063695B42A361236953B94C
:103D7000B4F90C3013F08000BAD170BD920758BF6F
:103D80006369A360F2E70020F7E700BF2C00002082
:103D9000F063000810640008D06300082DE9F74FB5
:103DA00003690C699C42804600F38280013C01F16A
:103DB00014074FEA840E00F1140657F8245056F801
:103DC000240006EB0E03013507EB0E090193B0FB4F
:103DD000F5F595B34FF0000A3846B446D34650F88F
:103DE000042B93B205FB03A34FEA134A9BB2ABEB40
:103DF0000303120CBCF800B005FB02A213FA8BF30C
:103E00004FEA124A1FFA82FBDCF80020CBEB124289
:103E100002EB23429BB243EA024381454FEA224B25
:103E20004CF8043BDBD256F80E3033B9019B043B0F
:103E30009E421A4630D3C8F81040404601F009FAB5
:103E4000002825DB013530464FF0000E57F8042BD3
:103E5000D0F800C093B2AEEB0303120C13FA8CF34C
:103E6000C2EB1C4202EB23429BB243EA0243B94538
:103E70004FEA224E40F8043BE8D256F8242006EBE5
:103E800084032AB9043B9E421A460BD3C8F810405B
:103E9000284603B0BDE8F08F1268043B002ACAD15F
:103EA000013CC5E71268043B002AEFD1013CEAE778
:103EB0000020EEE7000000002DE9F04F57EC106BFA
:103EC00097B0CDE90067466A079104460A920F93BE
:103ED000209D3EB9102000F0ABFF60624660866016
:103EE0000660C660636A196851B15A684A60012366
:103EF00093408B60204600F0D7FF636A00221A606F
:103F0000019B002BBFBF01232B60019B23F00043CB
:103F1000B2BF019300232B60DDF80480A84B33EA85
:103F200008031BD10F9A42F20F731360009B23B951
:103F3000C8F31300002800F07885219B53B9A14BEA
:103F400021E0A14B02930833219A1360029817B025
:103F5000BDE8F08F9B4B02930333F5E7DDE9006783
:103F60000022002330463946FCF7AAFD814660B1A5
:103F70000F9A01231360219B002B00F05385934B74
:103F8000219A1360013B0293E0E714AA15A947ECBC
:103F9000106B204601F0D5F9C8F30A558246002D72
:103FA0007ED0C7F3130343F07F51304641F44011F4
:103FB000A5F2FF35CDF848900022854BFCF764F957
:103FC00079A3D3E90023FCF713FB79A3D3E90023FA
:103FD000FCF75CF9064628460F46FCF7A3FA76A3E1
:103FE000D3E90023FCF704FB02460B463046394672
:103FF000FCF74CF906460F46FCF7AAFD0022834663
:10400000002330463946FCF765FD58B15846FCF7A9
:1040100089FA02460B4630463946FCF751FD08B98D
:104020000BF1FF3BBBF1160F59D86A4901EBCB01ED
:10403000DDE90023D1E90001FCF76AFD002850D03A
:104040000BF1FF3B00230E93149B5D1B6B1E06932D
:1040500045BFC5F101030593002300234CBF069320
:104060000593BBF1000F3EDB069BCDF82CB05B4403
:10407000069300230893079B092B00F2AF80052BC2
:10408000C4BF043B0793079BA3F10203CCBF0026E8
:104090000126032B00F2AE80DFE803F082842F7745
:1040A000159B149D1D4405F23243202B11DD009A0F
:1040B00005F21240C3F1400322FA00F008FA03F3BC
:1040C0001843FCF71FFA0123A1F1F871013D129387
:1040D00072E7C3F12000009B03FA00F0F1E701232F
:1040E000B1E70E90B0E7059BA3EB0B030593CBF173
:1040F0000003089300230B93BDE7012309930A9B58
:10410000002B7ADD04930393656A00226A60042120
:1041100001F114029A4275D96968204600F090FEB8
:10412000636A28601B680293039B0E2B00F2E580F4
:10413000002E00F0E2809DED007BBBF1000F8DEDC5
:104140000C7B74DD234A0BF00F034FEA2B1602EBB6
:10415000C303F006D3E9008959D51F4B51EC170B67
:10416000D3E90823FCF76EFBCDE9000106F00F064A
:104170000325194F002E4CD142464B46DDE9000184
:10418000FCF760FBCDE900016AE0012309930A9B7B
:104190005B4404930133012B0393B8BF0123B3E7BE
:1041A0000023ABE70023F1E761436F63A787D23FAA
:1041B000B3C8608B288AC63FFB799F501344D33F16
:1041C0000000F07FCB630008C2630008BB610008F9
:1041D0000000F83F586400083064000801260023FE
:1041E000079309964FF0FF330493039300221223A1
:1041F0000A9289E701230993F4E7012304930393C7
:104200001A46F5E76A6801326A60490080E70225CC
:10421000AFE7F10708D540464946D7E90023FCF748
:10422000E7F901358046894676100837A2E700F0A5
:104230009D80CBF100069F4B9F4F06F00F0203EBD2
:10424000C203D3E90023DDE90C01FCF7D1F9CDE984
:104250000001361100230225002E7CD1002B91D1C4
:104260000E9B002B00F08480DDE900890022934B37
:1042700040464946FCF72EFC002879D0039B002BD2
:1042800076D0049B002B34DD00228D4B40464946FE
:10429000FCF7AEF9CDE90001049E0BF1FF370135C3
:1042A0002846FCF73FF9DDE90023FCF7A1F90022DD
:1042B000844BFBF7EBFF8046A1F15079002E5AD1D9
:1042C0000022814BDDE90001FBF7DEFF42464B4651
:1042D000CDE90001FCF71CFC002840F09B8242461F
:1042E00009F10043DDE90001FCF7F4FB002840F090
:1042F0008F82DDE90C23CDE90023159B002BC0F252
:104300005081BBF10E0F00F34C816A4B03EBCB03E2
:10431000D3E900890A9B002B80F2DA80039B002BF3
:1043200000F3D68040F073820022674B4046494636
:10433000FCF75EF9DDE90023FCF7E0FB039E37465E
:10434000002840F04A82029B029A5D1C31231370C0
:104350000BF1010B45E2F20705D5D7E90023FCF785
:1043600047F9013501237610083775E7022577E70D
:104370005F46039E94E7029A4E4B32441392099A89
:10438000711E002A48D003EBC103D3E900230020AB
:104390004E49FCF757FA42464B46FBF775FF029D24
:1043A00080468946DDE90001FCF7D2FB0646FCF7B2
:1043B000B9F802460B46DDE90001FBF765FF303630
:1043C00005F8016B42464B46CDE90001FCF782FB44
:1043D000002865D1DDE9002300203849FBF754FFB0
:1043E00042464B46FCF776FB002840F0BA80139B10
:1043F0009D423FF47EAF0022314B40464946FCF7D8
:10440000F7F80022804689462D4BDDE90001FCF7D4
:10441000EFF8CDE90001C5E703EBC10142464B4689
:10442000D1E90001FCF7E4F8CDE91001029DDDE9D6
:104430000001FCF78DFB0646FCF774F830360246A7
:104440000B46DDE90001FBF71FFF05F8016B139B2D
:10445000AB42804689464FF0000225D11B4BDDE977
:104460001001FBF713FF02460B4640464946FCF796
:104470004FFB002875D1DDE9102300201349FBF71D
:1044800003FF02460B4640464946FCF723FB002843
:104490003FF42FAF15F8013C302B05F1FF3201D06E
:1044A000BB464DE01546F5E7054BFCF7A1F8CDE915
:1044B0000001BCE758640008306400080000F03FC9
:1044C0000000244000001C40000014400000E03FB9
:1044D000DDE90067029D42464B4630463946FCF70F
:1044E000B1F9FCF735FB0090FCF71CF842464B464F
:1044F000FCF77EF802460B4630463946FBF7C4FE11
:10450000009E039F303605F8016B029EAE1BB7423A
:1045100002460B4638D1FBF7B9FE06460F46024667
:104520000B4640464946FCF7D5FAC8B932463B46E9
:1045300040464946FCF7C4FA10B1009BDB070FD494
:104540005146204600F0B0FC00230F9A2B700BF16F
:1045500001031360219B002B3FF4F8AC1D60F5E4D0
:104560005F4615F8012C392A05F1FF3306D1029A6E
:104570009A4207D130231370013713461A7801325B
:104580001A708DE71D46ECE70022A44BFCF730F8CB
:104590000022002306460F46FCF792FA00289AD024
:1045A000CEE7099A002A00F0CD80079A012A00F38D
:1045B000AF80129A002A00F0A78003F23343089ECE
:1045C000059D059A1A440592069A01211A4420462F
:1045D000069200F009FD0746002D0CDD069B002B1E
:1045E00009DDAB42059AA8BF2B46D21A0592069A5E
:1045F000ED1AD31A0693089BF3B1099B002B00F028
:10460000A580002E10DD39463246204600F082FD9E
:10461000524601460746204600F0EFFC51468046D0
:10462000204600F041FCC246089B9A1B04D051462C
:10463000204600F06FFD82460121204600F0D4FCA8
:104640000B9B002B064640F383801A46014620460A
:1046500000F060FD079B012B06467CDD4FF0000853
:10466000336906EB8303186900F070FCC0F1200089
:10467000069B184410F01F0000F09680C0F1200344
:10468000042B40F38780059BC0F11C000344059375
:10469000069B054403440693059B002B05DD51460C
:1046A0001A46204600F084FD8246069B002B05DD5D
:1046B00031461A46204600F07BFD06460E9B002B35
:1046C00074D03146504600F0C4FD00286EDA002355
:1046D00051460A22204600F0FEFB099B0BF1FF3BEE
:1046E0008246002B00F0A881002339460A2220468A
:1046F00000F0F1FB049B002B074600F3C880079BEA
:10470000022B40F3C48059E0149BC3F1360356E7F3
:10471000039B5E1E089BB342BFBF089B0896F21A1C
:104720000B9BB6BF9B189E1B0B93039BB8BF002629
:10473000002BB9BF059B039A059D039BBCBF9D1A27
:1047400000233EE7089E059D099F45E7089A6EE70E
:10475000079B012B19DC009BBBB9019BC3F313031F
:104760009BB9019B23F000431B0D1B0583B1059BE7
:1047700001330593069B013306934FF001080B9B11
:10478000002B7FF46DAF012072E74FF00008F6E7D1
:104790009846F4E780D0059A1C331A440592069A8D
:1047A0001A441D44134676E70346F4E7039B002BA7
:1047B00036DC079B022B33DD039B0493049B63B918
:1047C00031460522204600F086FB0146064650464B
:1047D00000F03FFD00283FF7B6AD0A9B029D6FEA4F
:1047E000030B002303933146204600F05DFB002FAE
:1047F0003FF4A6AE039B2BB1BB4203D01946204623
:1048000000F052FB3946204600F04EFB98E60026A9
:104810003746E2E7BB46374695E500BF0000244037
:10482000099B93BB039B0493029D31465046FFF7BF
:10483000B5FA00F1300905F8019B029B049AEB1AC6
:104840009A4200F3DC80029B012AACBF9B18013323
:1048500098460023039351460122204600F0A8FC0D
:104860003146824600F0F5FC002800F38D8003D12C
:1048700019F0010F40F08880454615F8013C302BB7
:1048800005F1FF32AFD11546F7E7039B0493002DE6
:1048900005DD39462A46204600F08AFC0746B8F175
:1048A000000F4CD07968204600F0CAFA3A6902320B
:1048B0000546920007F10C010C30FEF74EFC012278
:1048C0002946204600F074FC009BDDF80880039721
:1048D00003F001030746059331465046FFF75EFAA1
:1048E0000399054600F13009504600F0B2FC3A4603
:1048F00000903146204600F0C6FCC368024603BB68
:1049000001460690504600F0A4FC069A0346114664
:104910002046069300F0C8FA069BA3B9079A92B9FD
:10492000059A82B9B9F1390F29D0009B002B01DD1E
:1049300005F1310908F1010588F8009053E7384680
:10494000C2E70123E3E7009A002A04DB25D1079A96
:104950001ABB059A0ABB002BECDD5146012220460A
:1049600000F026FC3146824600F073FC002803DC90
:10497000E0D119F0010FDDD0B9F1390FD8D13923C9
:1049800088F8003008F10108454615F8013C392B3C
:1049900005F1FF323BD0013340E0002B08F1010567
:1049A00005DDB9F1390FEAD009F10109C4E7029B2D
:1049B000049A05F8019CEB1A9342A8463FF44BAFCA
:1049C000514600230A22204600F085FA039B0399F2
:1049D000BB4282464FF000034FF00A02204604D14A
:1049E00000F079FA0390074676E700F074FA0023A6
:1049F00003900A223946204600F06DFAF3E751464B
:104A000000230A22204600F066FA82460DE7029B48
:104A1000934205D1029A0BF1010B31231370E2E6A8
:104A20001546B2E7094BFFF7AEBA219B002B7FF486
:104A300088AA074BFFF7A7BA049B002B3FF7F4AEF9
:104A4000079B022B7FF7F0AEB8E600BFBA61000803
:104A5000C26300088A892DE9F041054610070C461B
:104A60005AD44B68002B05DC0B6C002B02DC0020B9
:104A7000BDE8F081E66A002EF9D0002312F48052DE
:104A80002F682B6033D0606DA3895A0705D5636802
:104A9000C01A636B0BB1236CC01A00230246E66A8E
:104AA000216A2846B047431CA38906D129681D29DD
:104AB0004BD82B4ACA40D60747D500226260D9049A
:104AC0002269226004D5421C01D12B6803B96065BC
:104AD000616B2F600029CAD004F14403994202D0CF
:104AE000284600F08BFC00206063BDE8F081216A5D
:104AF00001232846B047411CC6D12B68002BC3D0E8
:104B00001D2B01D0162B01D12F60B0E7A38943F0F4
:104B10004003A381BDE8F0810F69002FA7D0930760
:104B20000E6808BF4B690F6018BF0023A6EB07088B
:104B30008B60B8F1000F9ADD43463A46216AA66AB7
:104B40002846B047002807DCA38943F04003A3812F
:104B50004FF0FF30BDE8F0810744A8EB0008E8E71C
:104B60000100402038B50B6905460C46DBB118B191
:104B700083690BB900F060F80C4B9C4209D16C685A
:104B8000B4F90C307BB121462846BDE83840FFF728
:104B900061BF074B9C4201D1AC68F1E7054B9C42D9
:104BA00008BFEC68ECE7002038BD00BFF0630008E8
:104BB00010640008D0630008014900F0A9B800BFE4
:104BC000654B0008002310B5044603604360836012
:104BD00081814366C2810361436183611946082272
:104BE0005C30FEF7C5FA054B6362054BA362054BCB
:104BF000E362054B2462236310BD00BF955A000891
:104C0000B75A0008EF5A0008135B000870B54A1E37
:104C1000682555430E4605F1740100F03DFC04463D
:104C200040B1002180E842000C30A06005F168022C
:104C3000FEF79EFA204670BD836910B5044633BB6B
:104C40008364C3640365124B124A1B6882629842F4
:104C500004BF0123836100F01FF86060204600F06C
:104C60001BF8A060204600F017F80022E060042145
:104C70006068FFF7A7FF01220921A068FFF7A2FFE4
:104C800002221221E068FFF79DFF0123A36110BDFE
:104C90008C630008B94B0008F8B51C4B1E68B3695B
:104CA000074613B93046FFF7C7FF4836B468736844
:104CB000013B03D5336833B13668F7E7B4F90C50DC
:104CC0006DB16834F4E704213846FFF79FFF306088
:104CD0000028F1D10C233B6004462046F8BD4FF676
:104CE000FF73E3810123A38165662560A56065608C
:104CF00025616561A5610822294604F15C00FEF783
:104D000037FA6563A563A564E564E6E78C6300088C
:104D10002DE9F8438046894600F14804002614B97D
:104D20003046BDE8F883A5686768013F01D524686F
:104D3000F5E7AB89012B07D9B5F90E30013303D064
:104D400029464046C84706436835EEE7044B1B68D2
:104D5000186A044B002808BF1846F030704700BF9F
:104D60002C0000209000002070B50E46B1F90E1006
:104D7000002990B014461D4607DA00232B60B38942
:104D80001A0610D44FF480630EE001AA00F0E8FE8A
:104D90000028F2DB029A02F47042A2F500535A4254
:104DA0005A412A60EEE740230020236010B070BD16
:104DB0008B8973B59D0706460C4607D504F147035A
:104DC000236023610123636102B070BD01AB6A46B9
:104DD000FFF7CAFF00990546304600F05DFB48B971
:104DE000B4F90C309A05EFD423F0030343F0020327
:104DF000A381E3E70D4BB362A389206043F08003F6
:104E0000A381009B6361019B20615BB1B4F90E102B
:104E1000304600F0B7FE28B1A38923F0030343F026
:104E20000103A381A3891D43A581CDE7B94B0008E8
:104E3000024B0146186800F02FBB00BF2C00002079
:104E400070B5456A04460E463DB91020FFF7F0FFE5
:104E50006062456085600560C560656AEB6883B126
:104E6000636ADB6853F82600B8B9012101FA06F538
:104E70006A1D9200204600F0B3FA60B1466085607A
:104E80000EE021220421204600F0AAFA636AE860BD
:104E9000DB68002BE4D1002070BD026843F82620B7
:104EA00000230361C36070BD70B5446A06460D46B9
:104EB0003CB91020FFF7BCFF70624460846004605E
:104EC000C4603DB1736A6A68DB6853F822102960D8
:104ED00043F8225070BD2DE9F0410D691F4606468A
:104EE0000C4601F1140E0023DEF8000081B202FB33
:104EF00001710F0C000C02FB007089B2013301EB51
:104F000000419D424FEA10474EF8041BECDCD7B13C
:104F1000A3689D4212DB616830460131FFF790FFC4
:104F20002269023204F10C01804692000C30FEF737
:104F300014F921463046FFF7B7FF444604EB8503DA
:104F400001355F6125612046BDE8F081020C120445
:104F50000346B2B90304102013F07F4F04BF1B02B5
:104F6000083013F0704F04BF1B01043013F0404FA2
:104F700004BF9B000230002B06DB5B0003D5013031
:104F800070470020E8E720207047036813F007020D
:104F900001460BD0DA0723D4980749BF5B089B086A
:104FA00001200B605CBF0B600220704798B2A8B96B
:104FB0001B0C102013F0FF0F04BF1B0A08301A0748
:104FC00004BF1B0904309A0704BF9B080230DA07AC
:104FD00002D45B0806D001300B6070471046E9E749
:104FE000002070472020704710B50C460121FFF7C4
:104FF00027FF01224461026110BD2DE9F74F1446DD
:105000000A6923699A42B8BF0B468946BCBFA146CC
:105010001C46D9F81070D4F810A0D9F80830D9F887
:10502000041007EB0A069E42C8BF0131FFF708FFD4
:1050300000F1140505EB86082B460022434516D3E4
:1050400004F1140209F1140102EB8A0301EB870752
:105050000193019C944213460CD8002E03DD58F8AE
:10506000043D002B54D0066103B0BDE8F08F43F837
:10507000042BE3E7B3F800A00432BAF1000F20D00C
:10508000AE4689464FF0000C59F8044BBEF800B00C
:10509000A3B20AFB03B34FEA144BDEF800406344AB
:1050A0004FEA144C0AFB0BC404EB13449BB243EAD3
:1050B00004434F454FEA144C4EF8043BE4D8CEF875
:1050C00000C032F8029CB9F1000F1FD02B68AE4629
:1050D0008C464FF0000ABCF80040BEF802B009FB55
:1050E00004B4A2449BB243EA0A434EF8043B5CF882
:1050F000043BBEF800401B0C09FB034303EB1A43BF
:1051000067454FEA134AE6D8CEF800300435A0E7E9
:10511000013EA2E72DE9F843154612F003020646C8
:105120000F4607D0013A214C002354F82220FFF704
:10513000D2FE0746AD1035D0746A3CB91020FFF797
:1051400077FE7062446084600460C460D6F8248096
:10515000D8F808404CB940F271213046FFF744FFBF
:105160000023C8F80800044603604FF00008EB076E
:105170000AD5394622463046FFF73FFF3946814679
:105180003046FFF791FE4F466D100BD0206838B9BE
:10519000224621463046FFF730FF2060C0F80080ED
:1051A0000446E4E73846BDE8F88300BF2065000800
:1051B0002DE9F0470C464FEA621A236949680AEB69
:1051C0000309A3680746164609F10105AB4231DB26
:1051D0003846FFF735FE0022804600F114031146E1
:1051E00052452ADB20692AEAEA7A04F1140116F012
:1051F0001F0203EB8A0301EB800E22D0C2F1200CC8
:1052000000200E689640304343F8040B51F8040B1D
:105210008E4520FA0CF0F4D8186008B109F10205A7
:10522000013D3846C8F810502146FFF73DFE404684
:10523000BDE8F08701315B00C8E743F82210013276
:10524000CEE7043B51F8042B43F8042F8E45F9D8E0
:10525000E6E703690A699B1A30B50CD19200143055
:1052600014318418114454F8045D51F8042D95420A
:1052700003D005D30123184630BDA042F3D3FAE78B
:105280004FF0FF33F7E72DE9F0470D46074611468B
:1052900028461446FFF7DDFF061E08D13146384682
:1052A000FFF7CEFD012303614661BDE8F087A4BF8F
:1052B00023462C4638466168A6BF1D4600260126B7
:1052C000FFF7BEFD2B69C660266905F1140904F1DC
:1052D000140202EB860709EB830800F114054FF076
:1052E000000C52F804AB59F8044B1CFA8AF1A3B233
:1052F000C91A230CC3EB1A4303EB214389B24FEACB
:10530000234CC84541EA0343964645F8043BE8D898
:10531000BE4505D355F8043D8BB10661BDE8F08765
:105320005EF8041B1CFA81F31A1402EB11429BB2C3
:1053300043EA02434FEA224C45F8043BE8E7013ECA
:10534000E8E72DE9F7430E46012159EC108B15468D
:10535000FFF776FDC9F30A540746C9F3130334BBBC
:105360000193B8F1000F27D002A840F8088DFFF78D
:105370000CFE0099F0B1019AC0F1200302FA03F388
:105380000B43C2407B610192019BBB61002B14BFA8
:10539000022101213961C4B1A4F2334404443460D0
:1053A000C0F135002860384603B0BDE8F08343F40F
:1053B0008013D5E77961E7E701A8FFF7E6FD019BD8
:1053C0007B61012139612030E5E707EB8103A0F221
:1053D000324030601869FFF7B9FDC0EB4110E1E7DA
:1053E00038B502FB01F4214600F056F8054618B125
:1053F00022460021FDF7BCFE284638BD38B50546DB
:10540000002945D051F8043C0C1F002BB8BFE4180C
:1054100000F006FC1F4A1368104633B9636014603D
:105420002846BDE8384000F0FCBBA3420CD92168F7
:105430006218934204BF1A685B68636004BF521825
:1054400022600460ECE713465A680AB1A242FAD916
:1054500019685818A0420BD120680144581882429C
:105460001960DDD1106852685A6001441960D7E7AD
:1054700002D90C232B60D3E7206821188A4204BF8D
:1054800011685268626004BF091821605C60C7E758
:1054900038BD00BF6803002070B5CD1C25F00305A2
:1054A00008350C2D38BF0C25002D064601DBA9421E
:1054B00003D90C233360002070BD00F0B1FB234AF8
:1054C0001468214691B9224C23681BB9304600F07C
:1054D000D1FA20602946304600F0CCFA431C26D190
:1054E0000C233360304600F09CFBE4E70B685B1B49
:1054F0001AD40B2B0FD90B60CD50CC18304600F0CE
:1055000090FB04F10B00231D20F00700C31A1BD0F1
:105510005A42E25070BD8C420DBF63684B686360B5
:10552000136018BF0C46E9E70C464968CAE7C41C7B
:1055300024F00304A04205D0211A304600F09AFA64
:105540000130CDD02560D9E770BD00BF68030020D1
:105550006C0300202DE9F0478E689E4282460C467F
:105560009146984635D88A8912F4906F31D02568D3
:1055700009696F1A6569022305EB450595FBF3F58B
:1055800008F101033B449D4238BF1D46530531D508
:105590002946FFF781FF064650B90C23CAF80030B0
:1055A000A38943F04003A3814FF0FF30BDE8F087AB
:1055B0003A462169FDF7D1FDA38923F4906343F0B6
:1055C0008003A381266165613E44ED1B2660A560D2
:1055D0004646464528BF464632464946206800F0C2
:1055E00005FBA3689B1BA36023681E442660002064
:1055F000BDE8F0872A4600F015FB06460028E1D1F9
:1056000021695046FFF7FAFEC7E700002DE9F04F89
:105610009DB0804603938B891C060D4616460FD518
:105620000B696BB94021FFF737FF2860286128B963
:105630000C23C8F800304FF0FF30C5E040236B6109
:105640000023099320238DF8293030238DF82A3048
:105650004FF0010B37463C4614F8013B002B3CD180
:10566000B7EB060A0BD05346324629464046FFF7B1
:1056700071FF013000F0A380099B534409933B78EC
:10568000002B00F09C8000234FF0FF32049307931F
:10569000059206938DF853301A93052221785048CD
:1056A000FAF79EFD671C049BD8B9D90644BF202297
:1056B0008DF853201A0744BF2B228DF853202278EF
:1056C0002A2A16D0079A00210A20274601343B785F
:1056D000303B092B51D9C9B111E0252BC0D0274649
:1056E000B9E73F4A801A0BFA00F0184304903C4691
:1056F000D3E7039A111D12680391002A01DB079278
:1057000004E0524243F00203079204933B782E2BAD
:105710000ED17B782A2B07F1010132D1039B1A1D90
:105720001B680392002BB8BF4FF0FF33023705937D
:105730002C4C397803222046FAF752FD38B1402329
:10574000001B03FA00F0049B0343049301373978EC
:1057500025488DF8281006227E1CFAF741FD002806
:1057600035D0224BFBB9039B073323F007030833E3
:105770000393099B4B4409936CE700FB0232012120
:10578000A3E70023059318460A240F4601313A780F
:10579000303A092A03D9002BCAD00590C8E704FB88
:1057A00000200123F1E703AB00932A46104B04A924
:1057B0004046FDF77BFDB0F1FF3F8146D9D1AB8973
:1057C0005B063FF538AF09981DB0BDE8F08F03AB1D
:1057D00000932A46064B04A94046FEF71DF8EAE767
:1057E0002C6500083265000836650008AD320008F7
:1057F000555500089368013B002B10B4936009DAFB
:105800009469A34202DBCBB20A2B03D15DF8044BAF
:10581000FEF704BA1368581C10601970C8B25DF81E
:10582000044B7047F8B506460F461446D518AC42EF
:1058300001D1002007E03A4614F8011B3046FFF77B
:10584000D9FF431CF3D1F8BD2DE9F04F9DB00C46B4
:1058500017460393064618B183690BB9FFF7ECF9B5
:105860007C4B9C4257D17468A38918075DD5236986
:10587000002B5AD00023099320238DF829303023A0
:105880008DF82A304FF0010BB846454615F8013B1C
:10589000002B55D1B8EB070A0BD053463A462146A8
:1058A0003046FFF7BFFF013000F0C480099B53442E
:1058B000099398F80030002B00F0BC8000234FF0D3
:1058C000FF3204930793059206938DF853301A9391
:1058D000052229786048FAF783FC05F10108049B4A
:1058E000002831D1D90644BF20228DF853201A0751
:1058F00044BF2B228DF853202A782A2A2CD0079ACD
:1059000000210A20A846013598F80030303B092BC9
:105910006DD971B326E0514B9C4201D1B468A3E725
:105920004F4B9C4208BFF4689EE721463046FEF785
:10593000C7F900289ED04FF0FF301DB0BDE8F08FB2
:10594000252BA7D0A846A0E7434A801A0BFA00F0FF
:10595000184304904546BBE7039A111D1268039152
:10596000002A01DB079204E0524243F0020307924F
:10597000049398F800302E2B10D198F801302A2B80
:1059800008F1010137D1039B1A1D1B680392002BFC
:10599000B8BF4FF0FF3308F102080593314D98F876
:1059A000001003222846FAF71BFC40B14023401B9D
:1059B00003FA00F0049B0343049308F1010898F8EC
:1059C000001029488DF82810062208F10107FAF77F
:1059D00007FC002834D0254B03BB039B073323F07F
:1059E000070308330393099B4B4409934CE700FBDF
:1059F0000232012186E70023059318460A258846CE
:105A0000013198F80020303A092A03D9002BC5D07B
:105A10000590C3E705FB00200123F0E703AB0093EB
:105A20002246134B04A93046FDF740FCB0F1FF3F7E
:105A30008146D8D1A3895B063FF57DAF09987CE705
:105A400003AB009322460A4B04A93046FDF7E4FE5F
:105A5000ECE700BFF06300082C6500081064000844
:105A6000D06300083265000836650008AD320008D2
:105A70002558000838B5064C002305460846236023
:105A8000FDF772F9431C02D1236803B12B6038BDC6
:105A90005C0D002010B50C46B1F90E1000F0E8F8CE
:105AA0000028ABBF636DA3891B1823F48053ACBFE0
:105AB0006365A38110BD2DE9F0411F468B89DB058D
:105AC00005460C46164605D502230022B1F90E10F4
:105AD00000F068F8A389B4F90E1023F48053A38171
