:020000040800F2
:1000000000000220A51E0008011B0008031B0008B9
:10001000051B0008071B0008091B00080000000062
:100020000000000000000000000000000B1B0008A2
:100030000D1B0008000000000F1B0008111B00082A
:10004000F51E0008F51E0008F51E0008F51E000844
:10005000F51E0008F51E0008F51E0008F51E000834
:10006000F51E0008F51E0008F51E0008F51E000824
:10007000F51E0008F51E0008F51E0008F51E000814
:10008000F51E0008F51E0008F51E0008F51E000804
:10009000F51E0008F51E0008F51E0008F51E0008F4
:1000A000F51E0008F51E0008F51E0008F51E0008E4
:1000B000F51E0008F51E0008F51E0008F51E0008D4
:1000C000F51E0008F51E0008F51E0008F51E0008C4
:1000D000F51E0008211B0008391B0008451B0008FD
:1000E000F51E0008F51E0008F51E0008F51E0008A4
:1000F000F51E0008F51E0008F51E0008F51E000894
:10010000F51E0008F51E0008F51E0008F51E000883
:10011000F51E0008F51E0008F51E0008F51E000873
:10012000F51E0008F51E0008F51E0008F51E000863
:10013000F51E00080000000000000000F51E000889
:10014000F51E0008F51E0008F51E0008F51E000843
:10015000F51E0008F51E0008F51E0008511B0008DA
:10016000F51E0008F51E0008F51E0008F51E000823
:10017000F51E0008F51E0008000000000000000049
:08018000F51E0008F51E000841
:1001900010B5054C237833B9044B13B10448AFF3C1
:1001A00000800123237010BD7000002000000000BB
:1001B000C431000808B5034B1BB103490348AFF332
:1001C000008008BD0000000074000020C431000859
:1001D00001F0FF01102A2BDB10F0070F08D010F8F8
:1001E000013B013A8B422DD010F0070F42B3F6D1FC
:1001F000F0B441EA012141EA014122F007047FF015
:1002000000070023F0E80256083C85EA010586EA6B
:10021000010685FA47F5A3FA87F586FA47F6A5FAA7
:1002200087F68EB9EED1F0BC01F0FF0102F00702B3
:1002300032B110F8013B013A83EA010313B1F8D15E
:100240000020704701387047002D06BF354603383F
:10025000073815F0010F07D1013015F4807F02BF78
:10026000013015F4C03F0130F0BC0138704700BFC9
:1002700053B94AB9002908BF00281CBF4FF0FF310D
:100280004FF0FF3000F07AB9ADF1080C6DE904CE03
:1002900000F006F8DDF804E0DDE9022304B0704761
:1002A0002DE9F0478C460D460446089E002B51D19F
:1002B0008A4217466DD9B2FA82FEBEF1000F0BD00A
:1002C000CEF1200C01FA0EF520FA0CFC02FA0EF722
:1002D0004CEA050C00FA0EF44FEA174A250CBCFB59
:1002E000FAF81FFA87F90AFB18CC45EA0C4508FB17
:1002F00009F3AB420AD9ED1908F1FF3280F02381EE
:10030000AB4240F22081A8F102083D44ED1AA4B2AC
:10031000B5FBFAF00AFB105544EA054400FB09F965
:10032000A14509D9E41900F1FF3380F00A81A14504
:1003300040F2078102383C44A4EB090440EA08403B
:100340000021002E61D024FA0EF400233460736083
:10035000BDE8F0878B4207D9002E54D0002186E8F3
:1003600021000846BDE8F087B3FA83F1002940F088
:100370008E80AB4202D3824200F2FA80841A65EB8F
:1003800003050120AC46002E3FD086E81010BDE8E2
:10039000F08712B90127B7FBF2F7B7FA87FEBEF173
:1003A000000F34D1EB1B3A0C1FFA87FC0121B3FB81
:1003B000F2F8250C02FB183345EA03450CFB08F361
:1003C000AB4207D9ED1908F1FF3002D2AB4200F27F
:1003D000D1808046ED1AA3B2B5FBF2F002FB1055B6
:1003E00043EA05440CFB00FCA44507D9E41900F1DD
:1003F000FF3302D2A44500F2B8801846A4EB0C04E7
:1004000040EA08409DE731463046BDE8F087CEF12E
:10041000200405FA0EF307FA0EF720FA04F83A0C56
:1004200025FA04F448EA0308B4FBF2F14FEA184550
:1004300002FB11441FFA87FC45EA044501FB0CF35B
:10044000AB4200FA0EF409D9ED1901F1FF3080F04A
:100450008A80AB4240F2878002393D44EB1A1FFA92
:1004600088F5B3FBF2F002FB103345EA034500FBCD
:100470000CF3AB4207D9ED1900F1FF386FD2AB4254
:100480006DD902383D44EB1A40EA01418FE7C1F1D2
:10049000200722FA07F88B4005FA01F448EA030323
:1004A00020FA07FE4FEA134CFD404EEA040EB5FB5E
:1004B000FCF94FEA1E440CFB19551FFA83F844EA75
:1004C000054509FB08F4AC4202FA01F200FA01FA10
:1004D00008D9ED1809F1FF3043D2AC4241D9A9F156
:1004E00002091D442D1B1FFA8EFEB5FBFCF00CFB10
:1004F00010554EEA054400FB08F8A04507D9E4185A
:1005000000F1FF3529D2A04527D902381C4440EA22
:100510000940A4EB0804A0FB02894C45C6464D46A1
:1005200015D312D056B1BAEB0E0364EB050404FAEE
:1005300007F7CB401F43CC40376074600021BDE813
:10054000F0871846F8E69046E0E6C245EAD2B8EBF6
:10055000020E69EB03050138E4E72846D7E7404679
:1005600091E78146BEE7014678E702383C4445E71B
:10057000084608E7A8F102083D442BE7704700BF92
:1005800038B50E4A0E4B054618784FF47A73B3FB14
:10059000F0F31068B0FBF3F000F0AAF8044658B985
:1005A0000F2D09D8024629464FF0FF3000F05EF8C3
:1005B000044B20461D6038BD012038BD08000020D6
:1005C000000000200400002008B50B4B1A6842F41C
:1005D00000721A601A6842F480621A601A6842F463
:1005E00080721A60032000F02FF80020FFF7C8FF88
:1005F00001F06AFA002008BD003C0240034A044BA7
:1006000011681B780B441360704700BFD4010020B1
:1006100000000020014B1868704700BFD401002083
:1006200038B50446FFF7F6FF631C1CBF054B1B786B
:10063000054618BFE418FFF7EDFF401B8442FAD8C7
:1006400038BD00BF00000020074AD36823F4E063F0
:100650001B041B0C43F0BF63000243F4003300F49F
:10066000E0600343D360704700ED00E0174B30B506
:10067000DC68C4F30224C4F10703251D042B28BF42
:100680000423062D4FF0010505FA03F303F1FF33B0
:100690008CBF033C00241940A14005FA04F4013C3E
:1006A0002240002842EA01024FEA0212ADBF00F1E7
:1006B000604000F00F00064B00F56140B5BFD2B2BC
:1006C000D2B21A5480F8002330BD00BF00ED00E024
:1006D00014ED00E0002808DB4209012300F01F00B0
:1006E00003FA00F0014B43F82200704700E100E0FC
:1006F0000138B0F1807F0AD2064B074A5860F021DA
:1007000082F823100020072298601A6070470120A9
:10071000704700BF10E000E000ED00E008B501F018
:100720009DFA08BD2DE9F04F85B00B68DFF8AC816C
:10073000684ADFF8AC91019300230124019D9C409D
:100740002540AC4240F0B0804C6824F0100C0CF115
:10075000FF36012E4FEA430E12D88768032606FAA9
:100760000EF627EA0607CE6806FA0EF63E438660C6
:100770004768C4F3001627EA05079E403E434660DB
:100780000326C76806FA0EF6F64307EA060A8F68DC
:1007900007FA0EF747EA0A07BCF1020FC76016D145
:1007A0004FEAD30A00EB8A0A03F0070BDAF820704D
:1007B0004FEA8B0B4FF00F0C0CFA0BFC27EA0C0CDA
:1007C0000F6907FA0BF747EA0C07CAF820700768A9
:1007D0003E4004F0030707FA0EFE4EEA06060660E6
:1007E000E60061D54FF0000BCDF80CB0D8F844709E
:1007F000394E47F48047C8F84470D8F8447007F47D
:1008000080470397039F23F0030707F1804707F50D
:100810009C3703F0030CD7F808A04FEA8C0C4FF07C
:100820000F0E0EFA0CFEB0422AEA0E0E43D006F569
:100830008066B04241D006F58066B0423FD006F5F2
:100840008066B0423DD006F58066B0423BD0484558
:100850003BD006F50066B04239D006F58066B0425E
:1008600014BF0826072606FA0CF646EA0E06BE60F6
:100870001668EF4314F4803F0CBF3E402E431660D1
:10088000566814F4003F0CBF3E402E4356609668F5
:1008900014F4801F0CBF3E402E439660D668A4021D
:1008A00054BF3E402E43D6600133102B7FF445AF3A
:1008B00005B0BDE8F08F5E46D5E70126D3E70226F6
:1008C000D1E70326CFE70426CDE70526CBE70626AA
:1008D000C9E700BF003C0140000002400038024070
:1008E000001402400AB1816170470904FBE700006F
:1008F0002DE9F341044608B901203FE00368DD0714
:1009000010D4236898075AD423681A0700F19C80F2
:1009100023685B0700F1BA80A069002840F01B81C2
:1009200000202BE0A44B9A6802F00C02042A07D0A6
:100930009A6802F00C02082A0AD15B68590207D5AE
:100940009D4B1B689A03DCD56368002BD9D1D3E794
:100950006368994DB3F5803F13D12B6843F480331E
:100960002B60FFF757FE944D06462B689B03C8D4B7
:10097000FFF750FE801B6428F7D9032002B0BDE8C2
:10098000F081B3F5A02F04D12B6843F480232B60B2
:10099000E3E72A6822F480322A602A6822F480225F
:1009A0002A60002BDDD1FFF735FE06462B689F033A
:1009B000A7D5FFF72FFE801B6428F7D9DDE77E4B14
:1009C0009A6812F00C0F07D09A6802F00C02082AFD
:1009D00011D15B685E020ED4774B1A68950702D579
:1009E000E268012A88D11A68216922F0F80242EAF5
:1009F000C1021A6088E7E268704BB2B101221A6046
:100A0000FFF708FE6C4D06462B68980707D52B6844
:100A1000226923F0F80343EAC2032B6074E7FFF76F
:100A2000F9FD801B0228EFD9A7E71A60FFF7F2FD56
:100A3000614D06462B6899077FF566AFFFF7EAFD23
:100A4000801B0228F6D998E762695D4B7AB10122D2
:100A50001A60FFF7DFFD584D06466B6F9F073FF5A5
:100A600057AFFFF7D7FD801B0228F6D985E71A603C
:100A7000FFF7D0FD504D06466B6F98077FF548AFE6
:100A8000FFF7C8FD801B0228F6D976E74A4B1A6C9F
:100A900012F0805228D101921A6C42F080521A64EE
:100AA0001B6C03F080530193019B0126454D2B687D
:100AB000D9051BD5A368404D012B27D12B6F43F0DF
:100AC00001032B67FFF7A6FD3B4D074641F288382F
:100AD0002B6F9B0739D5002E3FF41EAF364A136C9F
:100AE00023F08053136417E70026DFE72B6843F4F5
:100AF00080732B60FFF78EFD07462B68DA05D9D48B
:100B0000FFF788FDC01B0228F7D936E7052B04D173
:100B10002B6F43F004032B67D0E72A6F22F001020A
:100B20002A672A6F22F004022A67002BCAD1FFF736
:100B300071FD41F2883807462B6F9807CBD5FFF738
:100B400069FDC01B4045F7D917E7FFF763FDC01BE0
:100B50004045BDD911E7184DAB6803F00C03082BD5
:100B600047D0194E00230228336035D1FFF752FDDC
:100B700007462B68990129D4226AE3691343626A04
:100B800043EA8213E26A43EA0263A26A0A4C520809
:100B9000013A43EA02436B6001233360FFF73AFDF9
:100BA000054623689A013FF5BBAEFFF733FD401BB6
:100BB0000228F6D9E1E600BF0038024000004742B3
:100BC000800E47420070004060004742FFF722FD60
:100BD000C01B0228CDD9D0E6FFF71CFD04462B68C8
:100BE0009B017FF59DAEFFF715FD001B0228F6D98E
:100BF000C3E601283FF4C2AE6868E36900F48002EE
:100C00009A427FF479AE226A00F03F0393427FF468
:100C100073AE626A47F6C073034093427FF46CAED2
:100C2000A26A00F4403393427FF466AEE36A00F0B8
:100C30007060C01A18BF0120A0E600BF134908B5B4
:100C40008B6803F00C03042B03D0082B03D010484F
:100C500008BD104808BD4A684B68496813F4800312
:100C600014BF0C480A48C1F3881118BF002302F0D2
:100C70003F02A1FB0001FFF7FBFA044B5B68C3F3E3
:100C8000014301335B00B0FBF3F008BD00380240C4
:100C90000024F40000127A002DE9F0410D460446CC
:100CA00010B90120BDE8F081444B1A6802F00F0230
:100CB0008A4229D321688F072ED4C80741D43F4BDD
:100CC0001A6802F00F02954267D3226851076DD46B
:100CD000130707D53A4A2169936823F4604343EA2E
:100CE000C1039360FFF7AAFF354B364A9B68C3F3F5
:100CF0000313D35CD840344B1860344B1868FFF7AB
:100D00003FFC0020BDE8F081CAB21A701B6803F0F6
:100D10000F039942C5D1CDE7294B11F0040F1EBF37
:100D20009A6842F4E0529A600E0742BF9A6842F411
:100D300060429A609A68A06822F0F00202439A60CA
:100D4000BBE762681E4B012A1DD11B6813F4003FEC
:100D5000A7D01B4EB36823F003031343B360FFF720
:100D600059FC41F288380746B368626803F00C0307
:100D7000B3EB820FA3D0FFF74DFCC01B4045F3D966
:100D80000320BDE8F081911E01291B6802D813F0F1
:100D9000007FDDE713F0020FDAE7EAB21A701B6892
:100DA00003F00F039D427FF47CAF8EE70449E068B7
:100DB0008B6823F4E05303438B6089E7003C0240D7
:100DC00000380240613400080800002004000020C0
:100DD000044B054A9B68C3F38223D35C034A106823
:100DE000D8407047003802407134000808000020E5
:100DF000044B054A9B68C3F34233D35C034A106833
:100E0000D8407047003802407134000808000020C4
:100E100038B50368C1681A69044622F440520A438F
:100E20001A612569A268D968C0692A43656921F4F5
:100E300016412A4321F00C0102430A43DA605A6941
:100E4000A16922F440720A43B0F5004F5A61254A65
:100E500029D1934203D002F58062934220D1FFF75B
:100E6000C7FF6268256892184FF000034FF0190120
:100E70005B41A0FB0101FFF7FBF96421B0FBF1F43A
:100E800001FB1403DB003233B3FBF1F303F0070281
:100E90005B0002EB041203F4F8731344AB6038BD3B
:100EA000FFF796FFDDE7934202D00F4A934216D137
:100EB000FFF79EFF6368256819219A00A0FB0101D6
:100EC0009B0FFFF7D5F96422B0FBF2F102FB11038F
:100ED0001B013233B3FBF2F303EB0113DEE7FFF741
:100EE00077FFE7E70010014000140140F8B5044621
:100EF0000E4617461D4621680B6836EA030301D1EA
:100F00000020F8BD6B1CF7D095B92368DA6822F48D
:100F1000D072DA605A6922F001025A61202384F803
:100F2000393084F83A30002384F838300320F8BD93
:100F3000FFF770FBC01B8542DDD2E6E710B5044623
:100F400040B390F8393003F0FF021BB980F8382025
:100F500000F002FF2268242384F83930D36823F498
:100F60000053D3602046FFF753FF23681A6922F429
:100F700090421A615A6922F02A025A61DA6842F4F0
:100F80000052DA6000202023E06384F8393084F8CE
:100F90003A3010BD012010BD2DE9F8431F4690F8EE
:100FA0003930202B04460D46904651D100294CD0B3
:100FB000002A4AD090F83830012B49D0012380F81C
:100FC00038304FF000092123C0F83C9080F83930C8
:100FD000FFF720FBA4F824800646A4F8268084F8B6
:100FE0003890E38C9BB25BB93B46324640212046A9
:100FF000FFF77CFFA0B9202384F83930BDE8F883DF
:10100000E38C013B9BB2E384A368B3F5805F324677
:101010003B464FF0800120460ED1FFF767FF10B12D
:101020000320BDE8F8832B882268C3F308035360CC
:10103000236943B90235D4E7FFF758FF0028EFD101
:1010400023682A785A600135CBE70120BDE8F88390
:101050000220BDE8F8830000054A137803F0F80386
:1010600043F0080303F08F036FF3C7131370704747
:10107000D801002038B540F6B8310546052000F00B
:10108000AFFD2C46052000F0CBFD68B900F08CFBCD
:101090000028F7D000F07BFBC3B204F8013B0A2B19
:1010A000A4EB0500EED138BD4FF0FF3038BD000095
:1010B00070B50322A6B004460E460146624800F011
:1010C00045FF80B9614A137840F6B83143F0010317
:1010D0000620137000F084FD0125324600212046D1
:1010E00000F04EFFABE003222146594800F02EFFEE
:1010F00058B9564A13784FF4FA6143F004030720B5
:101100001370022500F06CFDE7E7032221465148E9
:1011100000F01CFF28B1032221464F4800F016FFC3
:10112000F8B94A4D2B7843F002036FF3C30342F240
:10113000107108202B7000F053FD484800F09CFF10
:101140002B7843F060032B70454B002242F2107164
:1011500009201A6000F044FD424800F08DFF03258D
:10116000BBE703222146404800F0F0FE70B9374B40
:101170001A7842F2107160F3C30208201A7000F06E
:101180002FFD364800F078FF0425A6E7032221460C
:10119000364800F0DBFE30B92C4A137843F01003D8
:1011A0001370052599E703222146314800F0CEFE51
:1011B00070B9264A13784EF6602143F040030920A7
:1011C000137000F00DFD2B4800F056FF062584E754
:1011D00003222146284800F0B9FE70B91B4A137853
:1011E0004EF6602143F040030920137000F0F8FC34
:1011F000224800F041FF07256FE7032221462048DF
:1012000000F0A4FE0546E8B9104A137843F08003C5
:10121000137021463246684600F0A7FE2946324642
:10122000204600F0ADFE721F0DF10501204600F0D2
:101230009CFE44F25061062000F0D2FC08252846AE
:1012400026B070BD002548E72A330008D8010020E9
:10125000353300083C330008493300085633000892
:10126000B8010020643300087D330008843300088F
:101270009033000896330008B3330008B9330008F0
:10128000D333000838B540F6B8310546052000F0E4
:10129000A7FC2C46052000F0C3FC68B900F06FFAEB
:1012A0000028F7D000F068FAC3B204F8013B0A2B1B
:1012B000A4EB0500EED138BD4FF0FF3038BD000083
:1012C00008B5074B1B789B0705D4064800F0D4FEF1
:1012D0004FF0FF3008BD00F05DFA002008BD00BFF0
:1012E000D8010020D933000870B594B006461546E1
:1012F0000C4650220021684600F042FE33462A4642
:101300000749684600F0C0FE6846FFF7D9FF00288D
:1013100004DB6A462146034800F03AFE14B070BD73
:10132000F23300080434000810B5274C2378D8079E
:101330000DD5062000F074FC48B123786FF300034C
:101340002370DBB2990744BF6FF341032370237806
:101350005A070CD5072000F063FC40B11B4800F091
:1013600019FA237803F0F90343F008032370237874
:101370001B070AD4082000F053FC30B1237814482E
:1013800043F00803237000F077FE237803F0130383
:10139000102B06D10F4800F0FDF923786FF30413EA
:1013A000237094F90030002B0CDA062000F038FC92
:1013B00040B10A220D210848FFF796FF23786FF30A
:1013C000C713237010BD00BFD8010020F7320008FA
:1013D000023300080F3300081C33000870B50822E0
:1013E00004460E4601460B4800F0B0FD60B90B22E2
:1013F00031462046FFF778FF01253246002120467E
:1014000000F0BEFD284670BD204600F0C3F900255F
:10141000F3E700BFDC31000870B5022204460D4638
:101420000146304800F092FD064658B92E48652224
:101430004121FFF759FF2A4631462046BDE870405A
:1014400000F09EBD02222146284800F07FFD06469E
:1014500018B9652242212648EBE702222146254899
:1014600000F074FD064630B92348FFF729FF2348F2
:1014700000F002FEDFE702222146214800F066FD6F
:10148000064620B91F48FFF71BFF1F48F0E702225E
:1014900021461E4800F05AFD064640B91C4A137802
:1014A00043F0600313701B4B18601B48E0E70222F7
:1014B00021461A4800F04AFD064630B9144B1A7806
:1014C00060F345121A701648D2E7022221461548E9
:1014D00000F03CFD064620B9134800F05BF91348C4
:1014E000C6E770BDEA310008ED3100082F32000870
:1014F0003232000875320008783200088A3200085B
:101500009D320008A0320008B2320008C53200083F
:10151000D8010020B801002064330008C832000858
:10152000CB320008E23200080F330008E532000831
:1015300037B5164D2B7800245B060094ADF80440B7
:1015400017D5092000F06CFB98B1114B29781A6867
:1015500064F386110132297042F210718A421A60D6
:1015600009DD2A780B481C6064F345122A7000F0EC
:1015700083FD03B030BD0849684600F085FD642254
:1015800005216846FFF7B0FEF3E700BFD801002051
:10159000B8010020CB320008E53100082648274A70
:1015A00038B5274C274B106000F58471516004F565
:1015B0008471596000F50471916004F504719960BB
:1015C00000F54671D1604FF4846504F54672DA6027
:1015D00000212A461C6000F0D3FC2A460021204648
:1015E00000F0CEFC184B1B685A6942F001025A61A8
:1015F000DA6842F02002DA60144B1B685A6942F044
:1016000001025A61DA6842F02002DA60104B1B686E
:101610005A6942F001025A61DA6842F02002DA6047
:101620000C4B1B685A6942F001025A61DA6842F0B9
:101630002002DA6038BD00BFEC0100200C0600205B
:101640001C060020DC010020B00A0020300B002026
:10165000700A0020F00A0020D1F80031D1F80421EE
:101660000133DBB29A421EBFD1F800218854C1F881
:10167000003170470A4B53F82030D3F80011D3F8EB
:10168000042191421FBFD3F80421985CD3F80421B0
:1016900001321ABFD2B2C3F804214FF0FF307047B5
:1016A0000C060020002910B51CDB0F4B53F820203E
:1016B000D2F800310133DBB2D2F804419C42FBD0B6
:1016C0000138D2F80041C0B202281155C2F80031E9
:1016D00096BF064B064B53F820301A68D36843F088
:1016E0008003D36010BD00BFDC010020103400086F
:1016F000B00A0020044B53F82030D3F80001D3F88F
:101700000431C01AC0B270470C0600200368186884
:10171000DA6810F0200F0AD012F0200F07D01A68F4
:101720005868134BC0B253F82110FFF795BF00065D
:101730001CD512061AD50F4A4FF4847000FB012104
:10174000D1F80001D1F80421904204D1DA6822F0E6
:101750008002DA607047D1F80421885CD1F8042156
:101760000132D2B2C1F804211A685860704700BF34
:101770000C0600201C0600200020FFF77BBF08B5E8
:101780000020FFF7B7FF003018BF012008BD01207F
:10179000FFF770BF10B5441E14F8011F01B910BD4A
:1017A0000120FFF77FFFF7E708B50120FFF7A2FF51
:1017B000003018BF012008BD2DE9F0412548264E14
:1017C000DFF8B48000F058FC244800F055FCFFF727
:1017D00043FC234CFFF7D3FF68B13046FFF752FDBF
:1017E0000146C8F800003046FFF716FED8F8001092
:1017F0003046FFF7F3FDFFF7D7FF1A4F50B12046F1
:10180000FFF738FC431C054638601DD021461648BA
:1018100000F0BEFB39682046FFF74AFC237843B14D
:101820002146124800F0B4FB3A680021204600F03F
:10183000A7FBFFF779FD0E4B1B7803F02803282B3D
:10184000C8D1FFF775FEC4E70A4800F015FC28462A
:10185000BDE8F081413400088C0000201C340008F1
:10186000220100203C0A00200D340008FF3300084C
:10187000D801002025340008400A002030B5142289
:101880008BB00DEB0200002100F07AFB00241E4B10
:1018900001941A6B1D4D42F004021A631A6B02F098
:1018A00004020192019A02941A6B42F080021A63B8
:1018B0001A6B02F080020292029A03941A6B42F0B1
:1018C00001021A631A6B02F001020392039A049454
:1018D0001A6B42F002021A631B6B03F002030493BB
:1018E0002246284640F20221049BFEF7FBFF40F20D
:1018F0000223059305A9012328460693079408941B
:10190000FEF710FF0BB030BD003802400008024067
:1019100010B50A231446034892B2FFF73DFB204658
:1019200010BD00BFB00A002030B595B030220021B4
:1019300008A800F025FB0021142203A800F020FBDA
:1019400000241C4B01941A6C42F080521A641B6CE8
:1019500003F080530193019B174B02941A6842F4E1
:1019600080421A601B680F9403F480430293029B29
:1019700001230B9310230C9308231093A823022513
:10198000119308A80423139308950E951295FEF75A
:10199000AFFF0F2303934FF4A053069305214FF499
:1019A000805303A8049505940793FFF775F915B0C4
:1019B00030BD00BF003802400070004038B5FEF76F
:1019C00003FEFFF7B1FFFFF759FF00F055F900F0F4
:1019D0006FF900F089F900F0A3F9002211462520E3
:1019E000FEF744FE2520FEF775FE00221146262054
:1019F000FEF73CFE2620FEF76DFE00221146272052
:101A0000FEF734FE2720FEF765FE00221146472030
:101A1000FEF72CFE4720FEF75DFEFFF7BFFD2348D3
:101A200000F02AFB224B4FF47A721B68B3FBF2F3EF
:101A3000013BB3F1807F09D21E4A53601E4BF02157
:101A400083F8231000239360072313601B4D0024A9
:101A50004FF47A700134FEF7E3FD2146284600F08A
:101A600097FA0A2CF4D14FF47A71012000F0B8F8FB
:101A7000012240F202211248FEF734FF2046FEF711
:101A8000CFFD002240F202210D48FEF72BFF204639
:101A9000FEF7C6FD012240F202210948FEF722FFAF
:101AA0002046FEF7BDFDFFF787FEFEE73534000850
:101AB0000800002010E000E000ED00E058340008CD
:101AC000000802407047000082B00C4B00210091DA
:101AD0005A6C42F480425A645A6C02F4804200927A
:101AE000009A01911A6C42F080521A641B6C03F048
:101AF00080530193019B02B0704700BF0038024041
:101B00007047FEE7FEE7FEE7FEE770477047704765
:101B100008B5FEF773FDBDE80840FEF7FFBD000005
:101B2000034A04481368002101331360FFF7EEBD38
:101B3000BC010020B00A002001210148FFF7E6BDEA
:101B4000300B002002210148FFF7E0BD700A0020A1
:101B500003210148FFF7DABDF00A002070B50E46F8
:101B600015460C46A31B9D4201DC284670BDAFF311
:101B7000008004F8010BF5E708B50A4B1968024626
:101B800009B9094919601868694602448A4206D9A8
:101B900000F0B2F90C2303604FF0FF3008BD1A606B
:101BA00008BD00BFC0010020740B00204FF0FF30C3
:101BB00070474FF400534B6000207047012070477E
:101BC00000207047054BD3F8882042F47002C3F818
:101BD00088204FF000629A60704700BF00ED00E07F
:101BE0000A2810B5024605D90A210A4800F0D0F9A2
:101BF000002010BD0130084C002344F8203004EBD5
:101C0000820250680028F3D1044B1B6819445160CC
:101C1000012010BD79340008440A0020C8010020CA
:101C20000A2808B5024605D90A21094800F0B0F98A
:101C3000002008BD074B03EB8002074B51681B686F
:101C40005B1A002B4FF00000A4BF5060012008BDBC
:101C500079340008440A0020C8010020044A1368AF
:101C600001331360034A136801331360704700BFE8
:101C7000C4010020C801002008B50B480B4B4FF4ED
:101C8000E13E80E808400C2200238360C3600361CA
:101C900042618361C361FFF751F918B1BDE80840A3
:101CA000FFF710BF08BD00BFB00A002000100140C0
:101CB00008B50B480B4B4FF4165E80E808400C2229
:101CC00000238360C360036142618361C361FFF7E6
:101CD00035F918B1BDE80840FFF7F4BE08BD00BFF4
:101CE000300B00200044004008B50B480B4B4FF46C
:101CF000E13E80E808400C2200238360C36003615A
:101D000042618361C361FFF719F918B1BDE808406A
:101D1000FFF7D8BE08BD00BF700A00200048004091
:101D200008B50B480B4B4FF4165E80E808400C22B8
:101D300000238360C360036142618361C361FFF775
:101D4000FDF818B1BDE80840FFF7BCBE08BD00BFF4
:101D5000F00A00200014014010B504468EB0142291
:101D6000002109A800F00CF92368464A934224D1C7
:101D7000454B002101915A6C42F010025A645A6C92
:101D800002F010020192019A02911A6B42F00102D4
:101D90001A631B6B03F001030293029B4FF4C063B1
:101DA000099302230A9303230C93384807230D93C6
:101DB00009A9FEF7B7FC0EB010BD354A934217D102
:101DC000314B002103911A6C42F400321A641A6CF0
:101DD00002F400320392039A04911A6B42F001025A
:101DE0001A631B6B03F001030493049B0C23D7E7D6
:101DF000284A934221D1244B2748002105911A6C8F
:101E000042F480221A641A6C02F480220592059A28
:101E100006911A6B42F002021A631B6B03F0020375
:101E20000693069B4FF44063099302230A9303230E
:101E30000C9307230D9309A9BBE7184A9342BAD123
:101E4000114B1748002107915A6C42F020025A6446
:101E50005A6C02F020020792079A08911A6B42F01E
:101E600004021A631B6B03F004030893089BC0234E
:101E7000099302230A9303230C9308230D9309A9C2
:101E800097E700BF00100140003802400000024008
:101E9000004400400048004000040240001401409B
:101EA00000080240DFF834D0002103E00C4B5B58FF
:101EB000435004310B480C4B42189A42F6D30B4A5C
:101EC00002E0002342F8043B094B9A42F9D3FFF7A2
:101ED00079FE00F017F8FFF771FD7047000002204F
:101EE0003C35000800000020700000207000002039
:101EF000740B0020FEE70000014B1868704700BF1C
:101F00000C00002070B50D4E0D4CA41BA410002534
:101F1000A54209D10B4E0C4C01F054F9A41BA4109E
:101F20000025A54205D170BD56F8253098470135EA
:101F3000EEE756F8253098470135F2E734350008CA
:101F400034350008343500083835000810B501393B
:101F50000244904201D1002010BD10F8013B11F85D
:101F6000014FA342F5D0181B10BD10B5431E0A4403
:101F7000914200D110BD11F8014B03F8014FF7E772
:101F800002440346934200D1704703F8011BF9E76E
:101F90000FB40A4B13B51C6824B1A36913B92046CA
:101FA00000F048FA05AB049AA1680193204600F0BE
:101FB00055FD02B0BDE8104004B070470C00002091
:101FC00070B50E46054618B183690BB900F032FAB8
:101FD000AB69AC6813B9284600F02CFA234B9C423D
:101FE00017D16C68A3891B071DD52369DBB1013E9E
:101FF000A36816F8011F013BA360E9B9002B2EDA94
:1020000022460A21284600F063F8013011D00A2048
:1020100070BD174B9C4201D1AC68E3E7154B9C4265
:1020200008BFEC68DEE72146284600F0A3F8002848
:10203000DDD04FF0FF3070BD002B04DAA26993426F
:1020400006DB0A2904D023685A1C22601970CFE7E6
:102050002246284600F03CF80130C9D1E9E7236860
:102060000A205A1C2260187070BD00BFB8340008E6
:10207000D834000898340008024B01461868FFF76E
:102080009FBF00BF0C0000200EB400B59CB04FF401
:1020900002711DABADF81410029006906FF0004174
:1020A0000A48049107914FF6FF7153F8042BADF8DD
:1020B00016100068019302A900F0B2FB029B0022F7
:1020C0001A701CB05DF804EB03B070470C000020E0
:1020D000F8B50E461446054618B183690BB900F0F1
:1020E000A9F9214B9C422AD16C68A369A360A389FA
:1020F0001A072ED5236963B323692068C01A636960
:10210000F6B29842374604DB2146284600F028F90B
:1021100028BBA368013BA36023685A1C22601E7081
:1021200063690130984204D0A389DB0719D50A2ED0
:1021300017D12146284600F013F990B10FE00B4B60
:102140009C4201D1AC68D0E7094B9C4208BFEC68C7
:10215000CBE72146284600F00DF80028CCD04FF000
:10216000FF373846F8BD00BFB8340008D83400083F
:1021700098340008324B70B51D6806460C4625B1F0
:10218000AB6913B9284600F055F92E4B9C420FD18C
:102190006C68B4F90C309AB215072CD4D00611D45F
:1021A0000922326043F04003A3814FF0FF3070BD3D
:1021B000254B9C4201D1AC68EBE7244B9C4208BF05
:1021C000EC68E6E7510712D5616B41B104F14403B5
:1021D000994202D0304600F01BFA00236363A389C2
:1021E00023F02403A3810023636023692360A38970
:1021F00043F00803A38123694BB9A38903F4207337
:10220000B3F5007F03D02146304600F0C1F9A28922
:1022100012F001030CD00023A36063695B42A36149
:10222000236953B9B4F90C3013F08000BAD170BDF2
:10223000920758BF6369A360F2E70020F7E700BF89
:102240000C000020B8340008D83400089834000886
:102250008A892DE9F041054610070C465AD44B688F
:10226000002B05DC0B6C002B02DC0020BDE8F081AC
:10227000E66A002EF9D0002312F480522F682B60FA
:1022800033D0606DA3895A0705D56368C01A636BA4
:102290000BB1236CC01A00230246E66A216A284665
:1022A000B047431CA38906D129681D294BD82B4A66
:1022B000CA40D60747D500226260D904226922604D
:1022C00004D5421C01D12B6803B96065616B2F6096
:1022D0000029CAD004F14403994202D0284600F0F4
:1022E00097F900206063BDE8F081216A0123284648
:1022F000B047411CC6D12B68002BC3D01D2B01D089
:10230000162B01D12F60B0E7A38943F04003A381CE
:10231000BDE8F0810F69002FA7D093070E6808BFB2
:102320004B690F6018BF0023A6EB07088B60B8F15C
:10233000000F9ADD43463A46216AA66A2846B0470E
:10234000002807DCA38943F04003A3814FF0FF304E
:10235000BDE8F0810744A8EB0008E8E70100402051
:1023600038B50B6905460C46DBB118B183690BB96A
:1023700000F060F80C4B9C4209D16C68B4F90C3049
:102380007BB121462846BDE83840FFF761BF074BC7
:102390009C4201D1AC68F1E7054B9C4208BFEC6858
:1023A000ECE7002038BD00BFB8340008D83400087E
:1023B00098340008014900F0A9B800BF6123000863
:1023C000002310B504460360436083608181436647
:1023D000C281036143618361194608225C30FFF7C3
:1023E000CFFD054B6362054BA362054BE362054BD2
:1023F0002462236310BD00BFD52F0008F72F00080B
:102400002F3000085330000870B54A1E6825554328
:102410000E4605F1740100F049F9044640B100216F
:1024200080E842000C30A06005F16802FFF7A8FDCB
:10243000204670BD836910B5044633BB8364C36412
:102440000365124B124A1B688262984204BF012343
:10245000836100F01FF86060204600F01BF8A06068
:10246000204600F017F80022E06004216068FFF7C2
:10247000A7FF01220921A068FFF7A2FF0222122173
:10248000E068FFF79DFF0123A36110BD94340008AD
:10249000B5230008F8B51C4B1E68B369074613B98D
:1024A0003046FFF7C7FF4836B4687368013B03D571
:1024B000336833B13668F7E7B4F90C506DB168345E
:1024C000F4E704213846FFF79FFF30600028F1D180
:1024D0000C233B6004462046F8BD4FF6FF73E381B2
:1024E0000123A38165662560A5606560256165613E
:1024F000A5610822294604F15C00FFF741FD6563F0
:10250000A563A564E564E6E7943400082DE9F84383
:102510008046894600F14804002614B93046BDE8DB
:10252000F883A5686768013F01D52468F5E7AB89A2
:10253000012B07D9B5F90E30013303D029464046A7
:10254000C84706436835EEE770B50E46B1F90E1080
:10255000002990B014461D4607DA00232B60B3898A
:102560001A0610D44FF480630EE001AA00F098FD23
:102570000028F2DB029A02F47042A2F500535A429C
:102580005A412A60EEE740230020236010B070BD5E
:102590008B8973B59D0706460C4607D504F14703A2
:1025A000236023610123636102B070BD01AB6A4601
:1025B000FFF7CAFF00990546304600F077F848B9A2
:1025C000B4F90C309A05EFD423F0030343F002036F
:1025D000A381E3E70D4BB362A389206043F080033E
:1025E000A381009B6361019B20615BB1B4F90E1074
:1025F000304600F067FD28B1A38923F0030343F0C0
:102600000103A381A3891D43A581CDE7B52300085C
:1026100038B50546002945D051F8043C0C1F002B65
:10262000B8BFE41800F08AFD1F4A1368104633B99A
:10263000636014602846BDE8384000F080BDA342C6
:102640000CD921686218934204BF1A685B68636002
:1026500004BF521822600460ECE713465A680AB1BE
:10266000A242FAD919685818A0420BD12068014437
:10267000581882421960DDD1106852685A600144CE
:102680001960D7E702D90C232B60D3E72068211803
:102690008A4204BF11685268626004BF0918216051
:1026A0005C60C7E738BD00BFCC01002070B5CD1C11
:1026B00025F0030508350C2D38BF0C25002D0646E6
:1026C00001DBA94203D90C233360002070BD00F068
:1026D00035FD234A1468214691B9224C23681BB961
:1026E000304600F067FC20602946304600F062FC6E
:1026F000431C26D10C233360304600F020FDE4E774
:102700000B685B1B1AD40B2B0FD90B60CD50CC1868
:10271000304600F014FD04F10B00231D20F00700EB
:10272000C31A1BD05A42E25070BD8C420DBF636881
:102730004B686360136018BF0C46E9E70C464968B4
:10274000CAE7C41C24F00304A04205D0211A304675
:1027500000F030FC0130CDD02560D9E770BD00BF5E
:10276000CC010020D00100202DE9F0478E689E4268
:1027700082460C469146984635D88A8912F4906F65
:1027800031D0256809696F1A6569022305EB450593
:1027900095FBF3F508F101033B449D4238BF1D460C
:1027A000530531D52946FFF781FF064650B90C2362
:1027B000CAF80030A38943F04003A3814FF0FF30F3
:1027C000BDE8F0873A462169FFF7CFFBA38923F4E0
:1027D000906343F08003A381266165613E44ED1B55
:1027E0002660A5604646464528BF464632464946CD
:1027F000206800F089FCA3689B1BA36023681E442B
:1028000026600020BDE8F0872A4600F099FC0646C5
:102810000028E1D121695046FFF7FAFEC7E7000022
:102820002DE9F04F9DB0804603938B891C060D4621
:1028300016460FD50B696BB94021FFF737FF2860AB
:10284000286128B90C23C8F800304FF0FF30C5E0EC
:1028500040236B610023099320238DF82930302316
:102860008DF82A304FF0010B37463C4614F8013BF7
:10287000002B3CD1B7EB060A0BD053463246294613
:102880004046FFF771FF013000F0A380099B5344DD
:1028900009933B78002B00F09C8000234FF0FF321F
:1028A00004930793059206938DF853301A930522EB
:1028B00021785048FDF78CFC671C049BD8B9D906D9
:1028C00044BF20228DF853201A0744BF2B228DF8D5
:1028D000532022782A2A16D0079A00210A20274658
:1028E00001343B78303B092B51D9C9B111E0252B7C
:1028F000C0D02746B9E73F4A801A0BFA00F01843C8
:1029000004903C46D3E7039A111D12680391002AF4
:1029100001DB079204E0524243F002030792049362
:102920003B782E2B0ED17B782A2B07F1010132D177
:10293000039B1A1D1B680392002BB8BF4FF0FF3397
:10294000023705932C4C397803222046FDF740FCD2
:1029500038B14023001B03FA00F0049B03430493A7
:102960000137397825488DF8281006227E1CFDF79E
:102970002FFC002835D0224BFBB9039B073323F0F3
:10298000070308330393099B4B4409936CE700FB4F
:1029900002320121A3E70023059318460A240F46BB
:1029A00001313A78303A092A03D9002BCAD0059070
:1029B000C8E704FB00200123F1E703AB00932A469C
:1029C000104B04A94046AFF30080B0F1FF3F8146B1
:1029D000D9D1AB895B063FF538AF09981DB0BDE88A
:1029E000F08F03AB00932A46064B04A9404600F043
:1029F000C1F9EAE7F8340008FE340008023500089F
:102A000000000000692700089368013B002B10B408
:102A1000936009DA9469A34202DBCBB20A2B03D19B
:102A20005DF8044BFFF754BB1368581C1060197015
:102A3000C8B25DF8044B7047F8B506460F46144619
:102A4000D518AC4201D1002007E03A4614F8011B2A
:102A50003046FFF7D9FF431CF3D1F8BD2DE9F04F05
:102A60009DB00C4617460393064618B183690BB90F
:102A7000FFF7E0FC7C4B9C4257D17468A389180790
:102A80005DD52369002B5AD00023099320238DF8AC
:102A9000293030238DF82A304FF0010BB8464546D7
:102AA00015F8013B002B55D1B8EB070A0BD0534664
:102AB0003A4621463046FFF7BFFF013000F0C480A0
:102AC000099B5344099398F80030002B00F0BC8018
:102AD00000234FF0FF3204930793059206938DF87D
:102AE00053301A93052229786048FDF771FB05F1F0
:102AF0000108049B002831D1D90644BF20228DF85B
:102B000053201A0744BF2B228DF853202A782A2AF3
:102B10002CD0079A00210A20A846013598F80030E9
:102B2000303B092B6DD971B326E0514B9C4201D14A
:102B3000B468A3E74F4B9C4208BFF4689EE7214668
:102B40003046FFF717FB00289ED04FF0FF301DB036
:102B5000BDE8F08F252BA7D0A846A0E7434A801AEE
:102B60000BFA00F0184304904546BBE7039A111D89
:102B700012680391002A01DB079204E0524243F0FD
:102B800002030792049398F800302E2B10D198F886
:102B900001302A2B08F1010137D1039B1A1D1B6854
:102BA0000392002BB8BF4FF0FF3308F102080593E2
:102BB000314D98F8001003222846FDF709FB40B17B
:102BC0004023401B03FA00F0049B0343049308F1E5
:102BD000010898F8001029488DF82810062208F1FD
:102BE0000107FDF7F5FA002834D0254B03BB039B02
:102BF000073323F0070308330393099B4B440993DE
:102C00004CE700FB0232012186E7002305931846BA
:102C10000A258846013198F80020303A092A03D95C
:102C2000002BC5D00590C3E705FB00200123F0E78A
:102C300003AB00932246134B04A93046AFF3008048
:102C4000B0F1FF3F8146D8D1A3895B063FF57DAF48
:102C500009987CE703AB009322460A4B04A930464F
:102C600000F088F8ECE700BFB8340008F83400083A
:102C7000D834000898340008FE34000802350008F3
:102C800000000000392A00082DE9F04791461F4650
:102C90008A680B69DDF820809342B8BF1346C9F8F3
:102CA000003091F8432006460C4612B10133C9F8B2
:102CB00000302368990642BFD9F800300233C9F8C2
:102CC0000030256815F0060507D104F1190AE368FC
:102CD000D9F800209B1A9D4229DB94F843302268E2
:102CE000003318BF012392062ED404F14302394663
:102CF0003046C047013021D02368E568D9F800206C
:102D000003F00603042B08BFAD1AA36822690CBFA9
:102D100025EAE57500259342C4BF9B1AED184FF0D4
:102D200000091A344D451BD10020BDE8F08701236E
:102D3000524639463046C047013003D14FF0FF308C
:102D4000BDE8F0870135C2E7E1185A1C302081F850
:102D50004300224494F8451082F843100233C4E73C
:102D60000123224639463046C0470130E6D009F1FA
:102D70000109D7E72DE9F04317460A7E85B06E2A90
:102D8000984606460C460C9B01F1430E00F0BC80B1
:102D90001AD8632A2ED00AD8002A00F0C880582AF0
:102DA00000F08A8004F1420584F842202AE0642A77
:102DB00001D0692AF6D121681A6811F0800F23D05A
:102DC000111D1960136827E0732A00F0B48008D839
:102DD0006F2A2AD0702AE5D10A6842F020020A60E0
:102DE00003E0752A21D0782ADCD1782284F84520A6
:102DF0006E4964E01A6801F14205111D19601368FB
:102E000084F842300123A3E011F0400F02F10401E5
:102E10001960D7D0B2F90030002B03DA2D225B42C3
:102E200084F8432062490A2217E02068196810F0EC
:102E3000800F03D0081D18600B6806E010F0400FEB
:102E400001F104001860F7D00B8859496F2A14BFAC
:102E50000A220822002084F843006568A560002D3E
:102E6000C0F29C80206820F004002060002B3FD13D
:102E7000002D40F095807546082A0BD12368DA07AB
:102E800008D5236962689A42DEBF302305F8013C09
:102E900005F1FF35AEEB05032361CDF800803B461D
:102EA00003AA21463046FFF7EFFE013055D14FF01F
:102EB000FF3005B0BDE8F08381F845203C49226829
:102EC000186812F0800F00F104051D6001D003683E
:102ED00002E05506FBD50388D00744BF42F020022C
:102EE00022601BB9226822F0200222601022B1E782
:102EF0007546B3FBF2F002FB1033CB5C05F8013DE5
:102F000003460028F5D1B7E708681A68496910F048
:102F1000800F04D0101D18601368196007E010F0CE
:102F2000400F02F1040018601368F6D019800023E6
:102F300023617546B1E71A68111D1960156862684A
:102F400000212846FDF744F908B1401B6060636822
:102F50002361002384F843309FE723692A463946DA
:102F60003046C0470130A2D023689B0707D5002513
:102F700004F11909E368039A9B1A9D4205DBE06896
:102F8000039B9842B8BF184693E701234A46394647
:102F90003046C04701308AD00135EBE7002BA7D17E
:102FA0000B7884F8423004F1420565E71A350008D1
:102FB0000935000838B5064C00230546084623604D
:102FC000FEF7DAFD431C02D1236803B12B6038BD44
:102FD000700B002010B50C46B1F90E1000F0D6F8B9
:102FE0000028ABBF636DA3891B1823F48053ACBFCB
:102FF0006365A38110BD2DE9F0411F468B89DB0578
:1030000005460C46164605D502230022B1F90E10DE
:1030100000F068F8A389B4F90E1023F48053A3815B
:1030200032463B462846BDE8F04100F017B810B5DF
:103030000C46B1F90E1000F055F8431CA38915BFDA
:10304000606523F4805343F48053A38118BFA381A8
:1030500010BDB1F90E1000F013B8000038B5074CE0
:10306000054608461146002222601A46FEF750FC2B
:10307000431C02D1236803B12B6038BD700B0020C4
:1030800038B5064C0023054608462360FEF78EFD42
:10309000431C02D1236803B12B6038BD700B0020A4
:1030A00038B5074C00230546084611462360FEF755
:1030B00080FD431C02D1236803B12B6038BD00BFE3
:1030C000700B002038B5064C0023054608462360E7
:1030D000FEF774FD431C02D1236803B12B6038BD99
:1030E000700B002038B5074C0546084611460022F3
:1030F00022601A46FEF764FD431C02D1236803B127
:103100002B6038BD700B0020884210B501EB020324
:1031100003D8421E99420CD110BD9842F9D28118B1
:10312000D21AD34200D110BD13F8014D01F8014D60
:10313000F7E711F8014B02F8014FEBE770477047D2
:10314000F8B5074614460E4621B91146BDE8F840C9
:10315000FFF7ACBA22B9FFF75BFA25462846F8BD5F
:1031600000F026F884420FD921463846FFF79EFA30
:1031700005460028F2D031462246FEF7F6FE3146DB
:103180003846FFF745FAE9E73546E7E738B5074C33
:10319000054608461146002222601A46FEF7DEFC6C
:1031A000431C02D1236803B12B6038BD700B002093
:1031B00051F8040C0028A0F10400BCBF0B58C01843
:1031C00070470000F8B500BFF8BC08BC9E467047C9
:0C31D000F8B500BFF8BC08BC9E46704774
:1031DC0041542B53454E443D00253035640053314A
:1031EC0000313233343536373839303132333435C7
:1031FC003637383930313233343536373839303177
:10320C00323334353637383930313233343536376A
:10321C00383930313233343536373839303132335E
:10322C003435005332003132333435363738393097
:10323C003132333435363738393031323334353640
:10324C00373839303132333435363738393031322A
:10325C003334353637383930313233343536373814
:10326C0039303132333435360044450041542B4427
:10327C0045565F54494D455F5245510D0A005B4719
:10328C0057445D4445565F54494D455F5245510D79
:10329C00004C430041542B4C494E4B5F43484B5F11
:1032AC005245510D0A005B4757445D4C494E4B5FEC
:1032BC0043484B5F5245510D004342004345004388
:1032CC0079636C652055706C696E6B2054657374F2
:1032DC0020456E640D004943005B4757445D204117
:1032EC00542B434C4153533D430D0041542B5245F9
:1032FC005345540D0A005B4757445D205478204FCA
:10330C004E0D0041542B434C4153533D430D0A0089
:10331C004D474D5420526573706F6E736500537436
:10332C00617274204C6F72610052455345542E00EB
:10333C004F6E4A6F696E6564202D2032004F6E4AC5
:10334C006F696E6564202D2033005B4757445D2008
:10335C005478204F46460D004379636C65205570B8
:10336C006C696E6B205465737420426567696E0DD1
:10337C00005478446F6E6500496E70757420436C10
:10338C00617373005478523A31005B4757445D20A7
:10339C00526563656976652041636B202D207375DA
:1033AC0063636573730D005478523A30005B475772
:1033BC00445D20526563656976652041636B202D01
:1033CC00206661696C0D004D474D543D0041545FC2
:1033DC004E4F5F4E4554574F524B5F4A4F494E45E7
:1033EC00445F47570D0041542B53454E443D253007
:1033FC0033643A25730D0A005B4757445D202564FE
:10340C0020257300300B0020700A0020F00A0020E9
:10341C0072657365742E2E0D0041545F52585F45D2
:10342C0052524F525F47570D00736D6172746F7536
:10343C00746C6574206D61696E2070726F67726157
:10344C006D2073746172742E2E2E0D002564207302
:10345C0065630D0A0000000000000000000102037B
:10346C00040607080900000000010203044D41583E
:10347C0054494D4552203D2025642C206964203D43
:10348C002025640D0A000000100000200000000040
:10349C000000000000000000000000000000000020
:1034AC000000000000000000000000000000000010
:1034BC000000000000000000000000000000000000
:1034CC0000000000000000000000000000000000F0
:1034DC0000000000000000000000000000000000E0
:1034EC00000000000000000000000000232D302B25
:1034FC002000686C4C0065666745464700303132E9
:10350C00333435363738394142434445460030313F
:10351C00323334353637383961626364656600009E
:08352C0074CDFF7F01000000D7
:04353400B5010008D5
:0435380091010008F5
:10353C0001000000100000000024F4001000002026
:10354C0000000000B8340008D83400089834000893
:10355C00000000000000000000000000000000005F
:10356C00000000000000000000000000000000004F
:10357C00000000000000000000000000000000003F
:10358C00000000000000000000000000000000002F
:10359C00000000000000000000000000000000001F
:0400000508001EA52C
:00000001FF
