:020000040800F2
:1000000000000220E91900089D1600089F1600084C
:10001000A1160008A3160008A5160008000000009D
:10002000000000000000000000000000A71600080B
:10003000A916000800000000AB160008AD16000865
:10004000391A0008391A0008391A0008391A000844
:10005000391A0008391A0008391A0008391A000834
:10006000391A0008391A0008391A0008391A000824
:10007000391A0008391A0008391A0008391A000814
:10008000391A0008391A0008391A0008391A000804
:10009000391A0008391A0008391A0008391A0008F4
:1000A000391A0008391A0008391A0008391A0008E4
:1000B000391A0008391A0008391A0008391A0008D4
:1000C000391A0008391A0008391A0008391A0008C4
:1000D000391A0008BD160008D5160008E1160008F8
:1000E000391A0008391A0008391A0008391A0008A4
:1000F000391A0008391A0008391A0008391A000894
:10010000391A0008391A0008391A0008391A000883
:10011000391A0008391A0008391A0008391A000873
:10012000391A0008391A0008391A0008391A000863
:10013000391A00080000000000000000391A000809
:10014000391A0008391A0008391A0008391A000843
:10015000391A0008391A0008391A0008ED16000883
:10016000391A0008391A0008391A0008391A000823
:10017000391A0008391A00080000000000000000C9
:08018000391A0008391A0008C1
:1001900010B5054C237833B9044B13B10448AFF3C1
:1001A00000800123237010BD7000002000000000BB
:1001B0005829000808B5034B1BB103490348AFF3A6
:1001C000008008BD000000007400002058290008CD
:1001D00001F0FF01102A2BDB10F0070F08D010F8F8
:1001E000013B013A8B422DD010F0070F42B3F6D1FC
:1001F000F0B441EA012141EA014122F007047FF015
:1002000000070023F0E80256083C85EA010586EA6B
:10021000010685FA47F5A3FA87F586FA47F6A5FAA7
:1002200087F68EB9EED1F0BC01F0FF0102F00702B3
:1002300032B110F8013B013A83EA010313B1F8D15E
:100240000020704701387047002D06BF354603383F
:10025000073815F0010F07D1013015F4807F02BF78
:10026000013015F4C03F0130F0BC0138704700BFC9
:1002700053B94AB9002908BF00281CBF4FF0FF310D
:100280004FF0FF3000F07AB9ADF1080C6DE904CE03
:1002900000F006F8DDF804E0DDE9022304B0704761
:1002A0002DE9F0478C460D460446089E002B51D19F
:1002B0008A4217466DD9B2FA82FEBEF1000F0BD00A
:1002C000CEF1200C01FA0EF520FA0CFC02FA0EF722
:1002D0004CEA050C00FA0EF44FEA174A250CBCFB59
:1002E000FAF81FFA87F90AFB18CC45EA0C4508FB17
:1002F00009F3AB420AD9ED1908F1FF3280F02381EE
:10030000AB4240F22081A8F102083D44ED1AA4B2AC
:10031000B5FBFAF00AFB105544EA054400FB09F965
:10032000A14509D9E41900F1FF3380F00A81A14504
:1003300040F2078102383C44A4EB090440EA08403B
:100340000021002E61D024FA0EF400233460736083
:10035000BDE8F0878B4207D9002E54D0002186E8F3
:1003600021000846BDE8F087B3FA83F1002940F088
:100370008E80AB4202D3824200F2FA80841A65EB8F
:1003800003050120AC46002E3FD086E81010BDE8E2
:10039000F08712B90127B7FBF2F7B7FA87FEBEF173
:1003A000000F34D1EB1B3A0C1FFA87FC0121B3FB81
:1003B000F2F8250C02FB183345EA03450CFB08F361
:1003C000AB4207D9ED1908F1FF3002D2AB4200F27F
:1003D000D1808046ED1AA3B2B5FBF2F002FB1055B6
:1003E00043EA05440CFB00FCA44507D9E41900F1DD
:1003F000FF3302D2A44500F2B8801846A4EB0C04E7
:1004000040EA08409DE731463046BDE8F087CEF12E
:10041000200405FA0EF307FA0EF720FA04F83A0C56
:1004200025FA04F448EA0308B4FBF2F14FEA184550
:1004300002FB11441FFA87FC45EA044501FB0CF35B
:10044000AB4200FA0EF409D9ED1901F1FF3080F04A
:100450008A80AB4240F2878002393D44EB1A1FFA92
:1004600088F5B3FBF2F002FB103345EA034500FBCD
:100470000CF3AB4207D9ED1900F1FF386FD2AB4254
:100480006DD902383D44EB1A40EA01418FE7C1F1D2
:10049000200722FA07F88B4005FA01F448EA030323
:1004A00020FA07FE4FEA134CFD404EEA040EB5FB5E
:1004B000FCF94FEA1E440CFB19551FFA83F844EA75
:1004C000054509FB08F4AC4202FA01F200FA01FA10
:1004D00008D9ED1809F1FF3043D2AC4241D9A9F156
:1004E00002091D442D1B1FFA8EFEB5FBFCF00CFB10
:1004F00010554EEA054400FB08F8A04507D9E4185A
:1005000000F1FF3529D2A04527D902381C4440EA22
:100510000940A4EB0804A0FB02894C45C6464D46A1
:1005200015D312D056B1BAEB0E0364EB050404FAEE
:1005300007F7CB401F43CC40376074600021BDE813
:10054000F0871846F8E69046E0E6C245EAD2B8EBF6
:10055000020E69EB03050138E4E72846D7E7404679
:1005600091E78146BEE7014678E702383C4445E71B
:10057000084608E7A8F102083D442BE7704700BF92
:1005800038B50E4A0E4B054618784FF47A73B3FB14
:10059000F0F31068B0FBF3F000F0AAF8044658B985
:1005A0000F2D09D8024629464FF0FF3000F05EF8C3
:1005B000044B20461D6038BD012038BD08000020D6
:1005C000000000200400002008B50B4B1A6842F41C
:1005D00000721A601A6842F480621A601A6842F463
:1005E00080721A60032000F02FF80020FFF7C8FF88
:1005F00001F038F8002008BD003C0240034A044BDB
:1006000011681B780B441360704700BFB8020020CC
:1006100000000020014B1868704700BFB80200209E
:1006200038B50446FFF7F6FF631C1CBF054B1B786B
:10063000054618BFE418FFF7EDFF401B8442FAD8C7
:1006400038BD00BF00000020074AD36823F4E063F0
:100650001B041B0C43F0BF63000243F4003300F49F
:10066000E0600343D360704700ED00E0174B30B506
:10067000DC68C4F30224C4F10703251D042B28BF42
:100680000423062D4FF0010505FA03F303F1FF33B0
:100690008CBF033C00241940A14005FA04F4013C3E
:1006A0002240002842EA01024FEA0212ADBF00F1E7
:1006B000604000F00F00064B00F56140B5BFD2B2BC
:1006C000D2B21A5480F8002330BD00BF00ED00E024
:1006D00014ED00E0002808DB4209012300F01F00B0
:1006E00003FA00F0014B43F82200704700E100E0FC
:1006F0000138B0F1807F0AD2064B074A5860F021DA
:1007000082F823100020072298601A6070470120A9
:10071000704700BF10E000E000ED00E008B501F018
:100720002DF808BD90F83530022B03D080234365A7
:10073000012070470268052380F83530136823F0E4
:1007400001031360002070472DE9F04F85B00B685E
:10075000DFF8AC81684ADFF8AC91019300230124F3
:10076000019D9C402540AC4240F0B0804C6824F094
:10077000100C0CF1FF36012E4FEA430E12D8876899
:10078000032606FA0EF627EA0607CE6806FA0EF6E4
:100790003E4386604768C4F3001627EA05079E407B
:1007A0003E4346600326C76806FA0EF6F64307EA9C
:1007B000060A8F6807FA0EF747EA0A07BCF1020F2C
:1007C000C76016D14FEAD30A00EB8A0A03F0070B81
:1007D000DAF820704FEA8B0B4FF00F0C0CFA0BFC81
:1007E00027EA0C0C0F6907FA0BF747EA0C07CAF85F
:1007F000207007683E4004F0030707FA0EFE4EEA39
:1008000006060660E60061D54FF0000BCDF80CB08F
:10081000D8F84470394E47F48047C8F84470D8F887
:10082000447007F480470397039F23F0030707F101
:10083000804707F59C3703F0030CD7F808A04FEA70
:100840008C0C4FF00F0E0EFA0CFEB0422AEA0E0E80
:1008500043D006F58066B04241D006F58066B042CE
:100860003FD006F58066B0423DD006F58066B042C6
:100870003BD048453BD006F50066B04239D006F57E
:100880008066B04214BF0826072606FA0CF646EA30
:100890000E06BE601668EF4314F4803F0CBF3E4066
:1008A0002E431660566814F4003F0CBF3E402E43A2
:1008B0005660966814F4801F0CBF3E402E4396602D
:1008C000D668A40254BF3E402E43D6600133102B9D
:1008D0007FF445AF05B0BDE8F08F5E46D5E7012651
:1008E000D3E70226D1E70326CFE70426CDE7052686
:1008F000CBE70626C9E700BF003C014000000240EC
:1009000000380240001402400AB1816170470904B6
:10091000FBE700002DE9F341044608B901203FE060
:100920000368DD0710D4236898075AD423681A0790
:1009300000F19C8023685B0700F1BA80A069002861
:1009400040F01B8100202BE0A44B9A6802F00C02BF
:10095000042A07D09A6802F00C02082A0AD15B68C0
:10096000590207D59D4B1B689A03DCD56368002BA1
:10097000D9D1D3E76368994DB3F5803F13D12B6884
:1009800043F480332B60FFF745FE944D06462B68F9
:100990009B03C8D4FFF73EFE801B6428F7D90320D1
:1009A00002B0BDE8F081B3F5A02F04D12B6843F469
:1009B00080232B60E3E72A6822F480322A602A68C9
:1009C00022F480222A60002BDDD1FFF723FE0646A9
:1009D0002B689F03A7D5FFF71DFE801B6428F7D95E
:1009E000DDE77E4B9A6812F00C0F07D09A6802F090
:1009F0000C02082A11D15B685E020ED4774B1A688C
:100A0000950702D5E268012A88D11A68216922F087
:100A1000F80242EAC1021A6088E7E268704BB2B19C
:100A200001221A60FFF7F6FD6C4D06462B68980709
:100A300007D52B68226923F0F80343EAC2032B6031
:100A400074E7FFF7E7FD801B0228EFD9A7E71A60DC
:100A5000FFF7E0FD614D06462B6899077FF566AF0D
:100A6000FFF7D8FD801B0228F6D998E762695D4B35
:100A70007AB101221A60FFF7CDFD584D06466B6F23
:100A80009F073FF557AFFFF7C5FD801B0228F6D93A
:100A900085E71A60FFF7BEFD504D06466B6F98075D
:100AA0007FF548AFFFF7B6FD801B0228F6D976E741
:100AB0004A4B1A6C12F0805228D101921A6C42F003
:100AC00080521A641B6C03F080530193019B012632
:100AD000454D2B68D9051BD5A368404D012B27D167
:100AE0002B6F43F001032B67FFF794FD3B4D074647
:100AF00041F288382B6F9B0739D5002E3FF41EAF8B
:100B0000364A136C23F08053136417E70026DFE79F
:100B10002B6843F480732B60FFF77CFD07462B683E
:100B2000DA05D9D4FFF776FDC01B0228F7D936E7DE
:100B3000052B04D12B6F43F004032B67D0E72A6FFA
:100B400022F001022A672A6F22F004022A67002B92
:100B5000CAD1FFF75FFD41F2883807462B6F98072F
:100B6000CBD5FFF757FDC01B4045F7D917E7FFF777
:100B700051FDC01B4045BDD911E7184DAB6803F0CE
:100B80000C03082B47D0194E00230228336035D1BF
:100B9000FFF740FD07462B68990129D4226AE369D3
:100BA0001343626A43EA8213E26A43EA0263A26A77
:100BB0000A4C5208013A43EA02436B600123336056
:100BC000FFF728FD054623689A013FF5BBAEFFF706
:100BD00021FD401B0228F6D9E1E600BF00380240A3
:100BE00000004742800E47420070004060004742CC
:100BF000FFF710FDC01B0228CDD9D0E6FFF70AFD94
:100C000004462B689B017FF59DAEFFF703FD001B9B
:100C10000228F6D9C3E601283FF4C2AE6868E3694A
:100C200000F480029A427FF479AE226A00F03F031A
:100C300093427FF473AE626A47F6C07303409342F7
:100C40007FF46CAEA26A00F4403393427FF466AE48
:100C5000E36A00F07060C01A18BF0120A0E600BF70
:100C6000134908B58B6803F00C03042B03D0082B41
:100C700003D0104808BD104808BD4A684B68496851
:100C800013F4800314BF0C480A48C1F3881118BF3D
:100C9000002302F03F02A1FB0001FFF7E9FA044B39
:100CA0005B68C3F3014301335B00B0FBF3F008BDA5
:100CB000003802400024F40000127A002DE9F041CF
:100CC0000D46044610B90120BDE8F081444B1A6876
:100CD00002F00F028A4229D321688F072ED4C80759
:100CE00041D43F4B1A6802F00F02954267D3226845
:100CF00051076DD4130707D53A4A2169936823F445
:100D0000604343EAC1039360FFF7AAFF354B364ABD
:100D10009B68C3F30313D35CD840344B1860344B47
:100D20001868FFF72DFC0020BDE8F081CAB21A70E8
:100D30001B6803F00F039942C5D1CDE7294B11F091
:100D4000040F1EBF9A6842F4E0529A600E0742BF39
:100D50009A6842F460429A609A68A06822F0F002B1
:100D600002439A60BBE762681E4B012A1DD11B68D3
:100D700013F4003FA7D01B4EB36823F003031343C3
:100D8000B360FFF747FC41F288380746B3686268F2
:100D900003F00C03B3EB820FA3D0FFF73BFCC01BA7
:100DA0004045F3D90320BDE8F081911E01291B685D
:100DB00002D813F0007FDDE713F0020FDAE7EAB2A2
:100DC0001A701B6803F00F039D427FF47CAF8EE71F
:100DD0000449E0688B6823F4E05303438B6089E7A0
:100DE000003C024000380240A7290008080000200B
:100DF00004000020044B054A9B68C3F38223D35CA4
:100E0000034A1068D840704700380240B7290008EC
:100E100008000020044B054A9B68C3F34233D35CAF
:100E2000034A1068D840704700380240B7290008CC
:100E3000080000200368DA6822F49072DA605A69C8
:100E400022F001025A61202380F83A3070470000F6
:100E500038B50368C1681A69044622F440520A434F
:100E60001A612569A268D968C0692A43656921F4B5
:100E700016412A4321F00C0102430A43DA605A6901
:100E8000A16922F440720A43B0F5004F5A61254A25
:100E900029D1934203D002F58062934220D1FFF71B
:100EA000B9FF6268256892184FF000034FF01901EE
:100EB0005B41A0FB0101FFF7DBF96421B0FBF1F41A
:100EC00001FB1403DB003233B3FBF1F303F0070241
:100ED0005B0002EB041203F4F8731344AB6038BDFB
:100EE000FFF788FFDDE7934202D00F4A934216D105
:100EF000FFF790FF6368256819219A00A0FB0101A4
:100F00009B0FFFF7B5F96422B0FBF2F102FB11036E
:100F10001B013233B3FBF2F303EB0113DEE7FFF700
:100F200069FFE7E70010014000140140F8B50446EE
:100F30000E4617461D4621680B6836EA030301D1A9
:100F40000020F8BD6B1CF7D095B92368DA6822F44D
:100F5000D072DA605A6922F001025A61202384F8C3
:100F6000393084F83A30002384F838300320F8BD53
:100F7000FFF750FBC01B8542DDD2E6E710B5044603
:100F800040B390F8393003F0FF021BB980F83820E5
:100F900000F084FC2268242384F83930D36823F4D9
:100FA0000053D3602046FFF753FF23681A6922F4E9
:100FB00090421A615A6922F02A025A61DA6842F4B0
:100FC0000052DA6000202023E06384F8393084F88E
:100FD0003A3010BD012010BD2DE9F8431F4690F8AE
:100FE0003930202B04460D46904651D100294CD073
:100FF000002A4AD090F83830012B49D0012380F8DC
:1010000038304FF000092123C0F83C9080F8393087
:10101000FFF700FBA4F824800646A4F8268084F895
:101020003890E38C9BB25BB93B4632464021204668
:10103000FFF77CFFA0B9202384F83930BDE8F8839E
:10104000E38C013B9BB2E384A368B3F5805F324637
:101050003B464FF0800120460ED1FFF767FF10B1ED
:101060000320BDE8F8832B882268C3F3080353608C
:10107000236943B90235D4E7FFF758FF0028EFD1C1
:1010800023682A785A600135CBE70120BDE8F88350
:101090000220BDE8F88390F83A30202B20D1E9B146
:1010A000E2B190F83830012B1AD0C2858285002336
:1010B0002222C36380F83A2002688162D16880F8F6
:1010C000383041F48071D160516941F001015161C2
:1010D000D16841F02001D160184670470120704767
:1010E00002207047704790F83A30222B10B536D165
:1010F000836801690268B3F5805F836A23D152680F
:10110000E9B9C2F3080223F8022B8362C48D013CC3
:10111000A4B2C4858CB90368DA6822F02002DA60D0
:10112000DA6822F48072DA605A6922F001025A61A8
:10113000202380F83A3000F05DF9002010BDD2B2D3
:1011400023F8012BE1E721B9591C526881621A701A
:10115000DCE75268591C816202F07F02F7E7022047
:1011600010BD704703681A68D96870B51607044641
:101170005D6907D196065CD58D065AD5BDE87040ED
:10118000FFF7B1BF15F0010502D111F4907F50D0E7
:10119000D00705D5CB0542BFE36B43F00103E36302
:1011A000560704D51DB1E36B43F00203E3639007D8
:1011B00004D51DB1E36B43F00403E363130706D5C5
:1011C0008E0600D41DB1E36B43F00803E363E36BC9
:1011D000002B66D0950604D5880602D52046FFF779
:1011E00082FF23685D69E26B1107204602D415F087
:1011F00040051AD0FFF71EFE23685A69520610D523
:101200005A69606B22F040025A6150B1254B036568
:10121000FFF788FA002844D0606BBDE87040036D8A
:1012200018472046FFF79DFF70BDFFF79AFFE56363
:1012300070BD160627D50D0625D594F83920212A2C
:101240002FD1A268B2F5805F226A17D11188C1F34D
:1012500008015960216979B902322262E28C013AAF
:1012600092B2E284EAB9DA6822F08002DA60DA68DF
:1012700042F04002DA6070BD0132EEE7511C21629B
:1012800012785A60EAE750060BD54A0609D5DA68A3
:1012900022F04002DA60202384F839302046FFF73C
:1012A00021FF70BDA912000808B5806B0023C3851B
:1012B000C384FFF756FF08BD08B50B4B0B481860F9
:1012C0000B4B0C4A1A6000214FF4847200F0E0FBD3
:1012D000094B1B685A6942F001025A61DA6842F010
:1012E0002002DA6008BD00BFC0020020900000208C
:1012F000BC020020980100203C030020D1F80031FE
:10130000D1F804210133DBB29A421EBFD1F800218B
:101310008854C1F8003170470A4B1B68D3F800119C
:10132000D3F8042191421FBFD3F80421985CD3F86D
:10133000042101321ABFD2B2C3F804214FF0FF30AA
:10134000704700BFC0020020002814DB0A4B1A6857
:10135000D2F800310133DBB2D2F804119942FBD04C
:10136000D2F800115054C2F80031044B1A68D36807
:1013700043F08003D3607047BC0200203C03002090
:10138000044B1B68D3F80001D3F80431C01AC0B273
:10139000704700BFC002002003681968DA68880639
:1013A00008D5900606D51A685868104BC0B219685F
:1013B000FFF7A4BF090618D5120616D50C4AD2F8B5
:1013C0000001D2F80411884204D1DA6822F08002C8
:1013D000DA607047D2F80411505CD2F80411013180
:1013E000C9B2C2F804111A6858607047C0020020E0
:1013F000980100200268094B9A4210B50CD1084CA4
:10140000084821460122FFF746FE074B207819685D
:10141000BDE81040FFF772BF10BD00BF00140140CF
:101420008C0000207C030020C002002030B5142274
:101430008BB00DEB0200002100F02AFB00241E4BB4
:1014400001941A6B1D4D42F004021A631A6B02F0EC
:1014500004020192019A02941A6B42F080021A630C
:101460001A6B02F080020292029A03941A6B42F005
:1014700001021A631A6B02F001020392039A0494A8
:101480001A6B42F002021A631B6B03F0020304930F
:10149000224628464FF40071049BFFF735FA4FF4BB
:1014A0000073059305A90123284606930794089421
:1014B000FFF74AF90BB030BD003802400008024087
:1014C00010B50A231446034892B2FFF785FD204663
:1014D00010BD00BF3C030020036802485968C9B230
:1014E00000F0DEBA9A29000830B595B0302200210C
:1014F00008A800F0CDFA0021142203A800F0C8FAD1
:1015000000241C4B01941A6C42F080521A641B6C2C
:1015100003F080530193019B174B02941A6842F425
:1015200080421A601B680F9403F480430293029B6D
:1015300001230B9310230C9308231093A823022557
:10154000119308A80423139308950E951295FFF79D
:10155000E1F90F2303934FF4A053069305214FF4B1
:10156000805303A8049505940793FFF7A7FB15B0D4
:1015700030BD00BF003802400070004038B5FFF7B2
:1015800023F8FFF7B1FFFFF751FF00F06BF900F010
:1015900015F900F02FF900F049F900221146252035
:1015A000FFF764F82520FFF795F800221146262062
:1015B000FFF75CF82620FFF78DF800221146272060
:1015C000FFF754F82720FFF785F80022114647203F
:1015D000FFF74CF84720FFF77DF8FFF76DFE1A483C
:1015E00000F0D2FA194B4FF47A721B68B3FBF2F396
:1015F000013BB3F1807F09D2154A5360154BF021AE
:1016000083F823100023936007231360124D0024F6
:101610004FF47A700134FFF703F82146284600F0B2
:101620003FFA0A2CF4D10D4CFFF7AAFE18B1FFF7D0
:1016300073FEFFF789FE41F28830FEF7F1FF204686
:10164000FFF74AFFF0E700BF7029000808000020FC
:1016500010E000E000ED00E0922900083C030020CB
:101660007047000082B00C4B002100915A6C42F48C
:1016700080425A645A6C02F480420092009A0191AE
:101680001A6C42F080521A641B6C03F08053019371
:10169000019B02B0704700BF003802407047FEE770
:1016A000FEE7FEE7FEE770477047704708B5FEF7B4
:1016B000A5FFBDE80840FFF731B80000034A044821
:1016C000136801331360FFF767BE00BFA00200205C
:1016D0003C0300200148FFF745BD00BFBC030020CC
:1016E0000148FFF73FBD00BFFC0200200148FFF7A3
:1016F00053BE00BF7C03002070B50E4615460C4655
:10170000A31B9D4201DC284670BDAFF3008004F8A6
:10171000010BF5E708B50A4B1968024609B90949F2
:1017200019601868694602448A4206D900F086F9B1
:101730000C2303604FF0FF3008BD1A6008BD00BFE6
:10174000A4020020000400204FF0FF3070474FF447
:1017500000534B6000207047012070470020704705
:10176000054BD3F8882042F47002C3F888204FF06C
:1017700000629A60704700BF00ED00E00A4A1368FB
:1017800001331360094A136801331360084A116872
:10179000012907D107480068834201BF064B196041
:1017A00000231360704700BFA8020020AC02002095
:1017B000CC020020C8020020C402002008B50B485B
:1017C0000B4B4FF4E13E80E808400C22002383607D
:1017D000C360036142618361C361FFF7CFFB18B14E
:1017E000BDE80840FFF73CBF08BD00BF3C03002038
:1017F0000010014008B50B480B4B4FF4E13E80E868
:1018000008400C2200238360C3600361426183614E
:10181000C361FFF7B3FB18B1BDE80840FFF720BF75
:1018200008BD00BFBC0300200044004008B50B48C1
:101830000B4B4FF4E13E80E808400C22002383600C
:10184000C360036142618361C361FFF797FB18B115
:10185000BDE80840FFF704BF08BD00BFFC02002040
:101860000048004008B50B480B4B4FF4E13E80E8C0
:1018700008400C2200238360C360036142618361DE
:10188000C361FFF77BFB18B1BDE80840FFF7E8BE76
:1018900008BD00BF7C0300200014014010B50446C1
:1018A0008EB01422002109A800F0F2F82368464AFD
:1018B000934224D1454B002101915A6C42F0100211
:1018C0005A645A6C02F010020192019A02911A6B4A
:1018D00042F001021A631B6B03F001030293029BA7
:1018E0004FF4C063099302230A9303230C933848EF
:1018F00007230D9309A9FEF727FF0EB010BD354A47
:10190000934217D1314B002103911A6C42F40032FB
:101910001A641A6C02F400320392039A04911A6B4F
:1019200042F001021A631B6B03F001030493049B52
:101930000C23D7E7284A934221D1244B2748002182
:1019400005911A6C42F480221A641A6C02F4802207
:101950000592059A06911A6B42F002021A631B6BFC
:1019600003F002030693069B4FF44063099302239E
:101970000A9303230C9307230D9309A9BBE7184A85
:101980009342BAD1114B1748002107915A6C42F08B
:1019900020025A645A6C02F020020792079A0891BA
:1019A0001A6B42F004021A631B6B03F004030893E2
:1019B000089BC023099302230A9303230C93082353
:1019C0000D9309A997E700BF0010014000380240BD
:1019D0000000024000440040004800400004024073
:1019E0000014014000080240DFF834D0002103E079
:1019F0000C4B5B58435004310B480C4B42189A4235
:101A0000F6D30B4A02E0002342F8043B094B9A420A
:101A1000F9D3FFF7A5FE00F017F8FFF7AFFD704709
:101A200000000220682A000800000020700000204A
:101A30007000002000040020FEE70000014B186841
:101A4000704700BF0C00002070B50D4E0D4CA41B5C
:101A5000A4100025A54209D10B4E0C4C00F07CFFD0
:101A6000A41BA4100025A54205D170BD56F8253051
:101A700098470135EEE756F8253098470135F2E7EB
:101A8000602A0008602A0008602A0008642A00080A
:101A900002440346934200D1704703F8011BF9E763
:101AA0000FB40A4B13B51C6824B1A36913B92046BF
:101AB00000F024FA05AB049AA1680193204600F0D7
:101AC000E1FB02B0BDE8104004B070470C000020FC
:101AD00070B50E46054618B183690BB900F00EFAD1
:101AE000AB69AC6813B9284600F008FA234B9C4256
:101AF00017D16C68A3891B071DD52369DBB1013E93
:101B0000A36816F8011F013BA360E9B9002B2EDA88
:101B100022460A21284600F03FF8013011D00A2061
:101B200070BD174B9C4201D1AC68E3E7154B9C425A
:101B300008BFEC68DEE72146284600F07FF8002861
:101B4000DDD04FF0FF3070BD002B04DAA269934264
:101B500006DB0A2904D023685A1C22601970CFE7DB
:101B60002246284600F018F80130C9D1E9E7236879
:101B70000A205A1C2260187070BD00BFE4290008BA
:101B8000042A0008C4290008024B01461868FFF720
:101B90009FBF00BF0C000020F8B50E461446054656
:101BA00018B183690BB900F0A9F9214B9C422AD1E5
:101BB0006C68A369A360A3891A072ED5236963B350
:101BC00023692068C01A6369F6B29842374604DB7D
:101BD0002146284600F028F928BBA368013BA360F2
:101BE00023685A1C22601E7063690130984204D039
:101BF000A389DB0719D50A2E17D12146284600F004
:101C000013F990B10FE00B4B9C4201D1AC68D0E7C7
:101C1000094B9C4208BFEC68CBE72146284600F000
:101C20000DF80028CCD04FF0FF373846F8BD00BF84
:101C3000E4290008042A0008C4290008324B70B5C2
:101C40001D6806460C4625B1AB6913B9284600F05D
:101C500055F92E4B9C420FD16C68B4F90C309AB2F6
:101C600015072CD4D00611D40922326043F040036A
:101C7000A3814FF0FF3070BD254B9C4201D1AC6871
:101C8000EBE7244B9C4208BFEC68E6E7510712D50E
:101C9000616B41B104F14403994202D0304600F037
:101CA0001BFA00236363A38923F02403A381002389
:101CB000636023692360A38943F00803A381236938
:101CC0004BB9A38903F42073B3F5007F03D02146F9
:101CD000304600F0C1F9A28912F001030CD00023B4
:101CE000A36063695B42A361236953B9B4F90C3003
:101CF00013F08000BAD170BD920758BF6369A3602A
:101D0000F2E70020F7E700BF0C000020E4290008FC
:101D1000042A0008C42900088A892DE9F0410546F3
:101D200010070C465AD44B68002B05DC0B6C002BBB
:101D300002DC0020BDE8F081E66A002EF9D0002325
:101D400012F480522F682B6033D0606DA3895A073C
:101D500005D56368C01A636B0BB1236CC01A0023EE
:101D60000246E66A216A2846B047431CA38906D189
:101D700029681D294BD82B4ACA40D60747D50022CF
:101D80006260D9042269226004D5421C01D12B680B
:101D900003B96065616B2F600029CAD004F1440368
:101DA000994202D0284600F097F900206063BDE810
:101DB000F081216A01232846B047411CC6D12B6817
:101DC000002BC3D01D2B01D0162B01D12F60B0E703
:101DD000A38943F04003A381BDE8F0810F69002F80
:101DE000A7D093070E6808BF4B690F6018BF002388
:101DF000A6EB07088B60B8F1000F9ADD43463A4620
:101E0000216AA66A2846B047002807DCA38943F068
:101E10004003A3814FF0FF30BDE8F0810744A8EBF9
:101E20000008E8E70100402038B50B6905460C467C
:101E3000DBB118B183690BB900F060F80C4B9C4220
:101E400009D16C68B4F90C307BB121462846BDE855
:101E50003840FFF761BF074B9C4201D1AC68F1E706
:101E6000054B9C4208BFEC68ECE7002038BD00BF82
:101E7000E4290008042A0008C4290008014900F0E8
:101E8000A9B800BF291E0008002310B5044603604E
:101E90004360836081814366C281036143618361E2
:101EA000194608225C30FFF7F3FD054B6362054BD2
:101EB000A362054BE362054B2462236310BD00BFA0
:101EC000FD2700081F280008572800087B28000865
:101ED00070B54A1E682555430E4605F1740100F0A1
:101EE00049F9044640B1002180E842000C30A0606E
:101EF00005F16802FFF7CCFD204670BD836910B57F
:101F0000044633BB8364C3640365124B124A1B68E7
:101F10008262984204BF0123836100F01FF8606071
:101F2000204600F01BF8A060204600F017F80022C1
:101F3000E06004216068FFF7A7FF01220921A06883
:101F4000FFF7A2FF02221221E068FFF79DFF0123A5
:101F5000A36110BDC02900087D1E0008F8B51C4B08
:101F60001E68B369074613B93046FFF7C7FF483606
:101F7000B4687368013B03D5336833B13668F7E75B
:101F8000B4F90C506DB16834F4E704213846FFF71A
:101F90009FFF30600028F1D10C233B6004462046AF
:101FA000F8BD4FF6FF73E3810123A38165662560C9
:101FB000A560656025616561A5610822294604F177
:101FC0005C00FFF765FD6563A563A564E564E6E76E
:101FD000C02900082DE9F8438046894600F14804ED
:101FE000002614B93046BDE8F883A5686768013F4C
:101FF00001D52468F5E7AB89012B07D9B5F90E3077
:10200000013303D029464046C84706436835EEE70A
:1020100070B50E46B1F90E10002990B014461D4659
:1020200007DA00232B60B3891A0610D44FF48063BB
:102030000EE001AA00F048FC0028F2DB029A02F44C
:102040007042A2F500535A425A412A60EEE74023FB
:102050000020236010B070BD8B8973B59D070646C4
:102060000C4607D504F14703236023610123636114
:1020700002B070BD01AB6A46FFF7CAFF0099054682
:10208000304600F077F848B9B4F90C309A05EFD42F
:1020900023F0030343F00203A381E3E70D4BB36294
:1020A000A389206043F08003A381009B6361019BAF
:1020B00020615BB1B4F90E10304600F017FC28B176
:1020C000A38923F0030343F00103A381A3891D43E4
:1020D000A581CDE77D1E000838B50546002945D00D
:1020E00051F8043C0C1F002BB8BFE41800F020FC92
:1020F0001F4A1368104633B9636014602846BDE870
:10210000384000F016BCA3420CD9216862189342F3
:1021100004BF1A685B68636004BF521822600460E1
:10212000ECE713465A680AB1A242FAD9196858185E
:10213000A0420BD120680144581882421960DDD1B9
:10214000106852685A6001441960D7E702D90C231D
:102150002B60D3E7206821188A4204BF11685268B7
:10216000626004BF091821605C60C7E738BD00BF2A
:10217000B002002070B5CD1C25F0030508350C2DEC
:1021800038BF0C25002D064601DBA94203D90C23DC
:102190003360002070BD00F0CBFB234A1468214659
:1021A00091B9224C23681BB9304600F017FB206020
:1021B0002946304600F012FB431C26D10C23336025
:1021C000304600F0B6FBE4E70B685B1B1AD40B2B20
:1021D0000FD90B60CD50CC18304600F0AAFB04F1AB
:1021E0000B00231D20F00700C31A1BD05A42E250F7
:1021F00070BD8C420DBF63684B686360136018BF8D
:102200000C46E9E70C464968CAE7C41C24F00304FD
:10221000A04205D0211A304600F0E0FA0130CDD0BE
:102220002560D9E770BD00BFB0020020B4020020D5
:102230009368013B002B10B4936009DA9469A342C0
:1022400002DBCBB20A2B03D15DF8044BFFF7A4BC31
:102250001368581C10601970C8B25DF8044B7047C1
:10226000F8B506460F461446D518AC4201D10020F9
:1022700007E03A4614F8011B3046FFF7D9FF431C2C
:10228000F3D1F8BD2DE9F04F9DB00C4617460393EE
:10229000064618B183690BB9FFF730FE7C4B9C42B0
:1022A00057D17468A38918075DD52369002B5AD0CC
:1022B0000023099320238DF8293030238DF82A300C
:1022C0004FF0010BB846454615F8013B002B55D1A0
:1022D000B8EB070A0BD053463A4621463046FFF783
:1022E000BFFF013000F0C480099B5344099398F864
:1022F0000030002B00F0BC8000234FF0FF3204932D
:102300000793059206938DF853301A930522297886
:102310006048FDF75DFF05F10108049B002831D1FD
:10232000D90644BF20228DF853201A0744BF2B2220
:102330008DF853202A782A2A2CD0079A00210A20C7
:10234000A846013598F80030303B092B6DD971B3A0
:1023500026E0514B9C4201D1B468A3E74F4B9C420D
:1023600008BFF4689EE721463046FFF767FC002867
:102370009ED04FF0FF301DB0BDE8F08F252BA7D0C9
:10238000A846A0E7434A801A0BFA00F018430490CD
:102390004546BBE7039A111D12680391002A01DB31
:1023A000079204E0524243F002030792049398F824
:1023B00000302E2B10D198F801302A2B08F10101A2
:1023C00037D1039B1A1D1B680392002BB8BF4FF037
:1023D000FF3308F102080593314D98F800100322ED
:1023E0002846FDF7F5FE40B14023401B03FA00F0FC
:1023F000049B0343049308F1010898F8001029484E
:102400008DF82810062208F10107FDF7E1FE0028EB
:1024100034D0254B03BB039B073323F0070308335A
:102420000393099B4B4409934CE700FB02320121C3
:1024300086E70023059318460A258846013198F857
:102440000020303A092A03D9002BC5D00590C3E7F4
:1024500005FB00200123F0E703AB00932246134B5A
:1024600004A93046AFF30080B0F1FF3F8146D8D1D8
:10247000A3895B063FF57DAF09987CE703AB00932A
:1024800022460A4B04A9304600F088F8ECE700BF6A
:10249000E4290008242A0008042A0008C4290008A6
:1024A0002A2A00082E2A00080000000061220008E5
:1024B0002DE9F04791461F468A680B69DDF82080B8
:1024C0009342B8BF1346C9F8003091F8432006463E
:1024D0000C4612B10133C9F800302368990642BF97
:1024E000D9F800300233C9F80030256815F0060528
:1024F00007D104F1190AE368D9F800209B1A9D421C
:1025000029DB94F843302268003318BF0123920678
:102510002ED404F1430239463046C047013021D061
:102520002368E568D9F8002003F00603042B08BFF0
:10253000AD1AA36822690CBF25EAE5750025934210
:10254000C4BF9B1AED184FF000091A344D451BD13A
:102550000020BDE8F0870123524639463046C04787
:10256000013003D14FF0FF30BDE8F0870135C2E7FD
:10257000E1185A1C302081F84300224494F8451099
:1025800082F843100233C4E701232246394630461D
:10259000C0470130E6D009F10109D7E72DE9F04342
:1025A00017460A7E85B06E2A984606460C460C9B56
:1025B00001F1430E00F0BC801AD8632A2ED00AD84D
:1025C000002A00F0C880582A00F08A8004F14205F1
:1025D00084F842202AE0642A01D0692AF6D12168D1
:1025E0001A6811F0800F23D0111D1960136827E0BD
:1025F000732A00F0B48008D86F2A2AD0702AE5D157
:102600000A6842F020020A6003E0752A21D0782A85
:10261000DCD1782284F845206E4964E01A6801F123
:102620004205111D1960136884F842300123A3E0AC
:1026300011F0400F02F104011960D7D0B2F9003057
:10264000002B03DA2D225B4284F8432062490A22E0
:1026500017E02068196810F0800F03D0081D18607B
:102660000B6806E010F0400F01F104001860F7D08D
:102670000B8859496F2A14BF0A220822002084F8C7
:1026800043006568A560002DC0F29C80206820F0A2
:1026900004002060002B3FD1002D40F0958075464E
:1026A000082A0BD12368DA0708D5236962689A42A1
:1026B000DEBF302305F8013C05F1FF35AEEB050325
:1026C0002361CDF800803B4603AA21463046FFF740
:1026D000EFFE013055D14FF0FF3005B0BDE8F0837B
:1026E00081F845203C492268186812F0800F00F1FB
:1026F00004051D6001D0036802E05506FBD5038880
:10270000D00744BF42F0200222601BB9226822F0A9
:10271000200222601022B1E77546B3FBF2F002FB03
:102720001033CB5C05F8013D03460028F5D1B7E72F
:1027300008681A68496910F0800F04D0101D1860ED
:102740001368196007E010F0400F02F104001860F0
:102750001368F6D01980002323617546B1E71A6823
:10276000111D19601568626800212846FDF730FDCB
:1027700008B1401B606063682361002384F8433024
:102780009FE723692A4639463046C0470130A2D028
:1027900023689B0707D5002504F11909E368039A0C
:1027A0009B1A9D4205DBE068039B9842B8BF184620
:1027B00093E701234A4639463046C04701308AD064
:1027C0000135EBE7002BA7D10B7884F8423004F1F8
:1027D000420565E7462A0008352A000838B5064C48
:1027E0000023054608462360FEF794FF431C02D1F0
:1027F000236803B12B6038BDFC03002010B50C46E4
:10280000B1F90E1000F096F80028ABBF636DA389F4
:102810001B1823F48053ACBF6365A38110BD2DE961
:10282000F0411F468B89DB0505460C46164605D54B
:1028300002230022B1F90E1000F068F8A389B4F960
:102840000E1023F48053A38132463B462846BDE850
:10285000F04100F017B810B50C46B1F90E1000F0B9
:1028600055F8431CA38915BF606523F4805343F4D6
:102870008053A38118BFA38110BDB1F90E1000F0E1
:1028800013B8000038B5074C05460846114600222B
:1028900022601A46FEF714FE431C02D1236803B1DE
:1028A0002B6038BDFC03002038B5064C00230546DC
:1028B00008462360FEF748FF431C02D1236803B19A
:1028C0002B6038BDFC03002038B5074C00230546BB
:1028D000084611462360FEF73AFF431C02D12368E5
:1028E00003B12B6038BD00BFFC03002038B5064C97
:1028F0000023054608462360FEF72EFF431C02D145
:10290000236803B12B6038BDFC03002038B5074CA9
:10291000054608461146002222601A46FEF71EFFB1
:10292000431C02D1236803B12B6038BDFC03002097
:102930007047704738B5074C0546084611460022D7
:1029400022601A46FEF7D8FE431C02D1236803B169
:102950002B6038BDFC030020F8B500BFF8BC08BCF4
:102960009E467047F8B500BFF8BC08BC9E4670474D
:10297000736D6172746F75746C6574206D61696ECE
:102980002070726F6772616D2073746172742E2E85
:102990002E002564207365630A0025632072656339
:1029A00065697665640A000000000000000000010F
:1029B00002030406070809000000000102030400E6
:1029C00010000020000000000000000000000000D7
:1029D00000000000000000000000000000000000F7
:1029E00000000000000000000000000000000000E7
:1029F00000000000000000000000000000000000D7
:102A000000000000000000000000000000000000C6
:102A100000000000000000000000000000000000B6
:102A200000000000232D302B2000686C4C006566F0
:102A3000674546470030313233343536373839410F
:102A40004243444546003031323334353637383925
:082A5000616263646566000029
:082A580048D8FF7F01000000D7
:042A6000B5010008B4
:042A640091010008D4
:102A680001000000100000000024F4001000002005
:102A780000000000E4290008042A0008C42900080E
:102A8800000000000000000000000000000000003E
:102A9800000000000000000000000000000000002E
:102AA800000000000000000000000000000000001E
:102AB800000000000000000000000000000000000E
:102AC80000000000000000000000000000000000FE
:04000005080019E9ED
:00000001FF
