:020000040800F2
:10000000000002200D1600082D1400082F1400080F
:1000100031140008331400083514000800000000F3
:10002000000000000000000000000000371400087D
:1000300039140008000000003B1400083D140008BB
:100040005D1600085D1600085D1600085D160008C4
:100050005D1600085D1600085D1600085D160008B4
:100060005D1600085D1600085D1600085D160008A4
:100070005D1600085D1600085D1600085D16000894
:100080005D1600085D1600085D1600085D16000884
:100090005D1600085D1600085D1600085D16000874
:1000A0005D1600085D1600085D1600085D16000864
:1000B0005D1600085D1600085D1600085D16000854
:1000C0005D1600085D1600085D1600085D16000844
:1000D0005D1600084D1400085D1600085D16000846
:1000E0005D1600085D1600085D1600085D16000824
:1000F0005D1600085D1600085D1600085D16000814
:100100005D1600085D1600085D1600085D16000803
:100110005D1600085D1600085D1600085D160008F3
:100120005D1600085D1600085D1600085D160008E3
:100130005D16000800000000000000005D160008C9
:100140005D1600085D1600085D1600085D160008C3
:100150005D1600085D1600085D1600085D160008B3
:100160005D1600085D1600085D1600085D160008A3
:100170005D1600085D160008000000000000000089
:080180005D1600085D16000881
:1001900010B5054C237833B9044B13B10448AFF3C1
:1001A00000800123237010BD7000002000000000BB
:1001B0007C25000808B5034B1BB103490348AFF386
:1001C000008008BD00000000740000207C250008AD
:1001D00001F0FF01102A2BDB10F0070F08D010F8F8
:1001E000013B013A8B422DD010F0070F42B3F6D1FC
:1001F000F0B441EA012141EA014122F007047FF015
:1002000000070023F0E80256083C85EA010586EA6B
:10021000010685FA47F5A3FA87F586FA47F6A5FAA7
:1002200087F68EB9EED1F0BC01F0FF0102F00702B3
:1002300032B110F8013B013A83EA010313B1F8D15E
:100240000020704701387047002D06BF354603383F
:10025000073815F0010F07D1013015F4807F02BF78
:10026000013015F4C03F0130F0BC0138704700BFC9
:1002700053B94AB9002908BF00281CBF4FF0FF310D
:100280004FF0FF3000F07AB9ADF1080C6DE904CE03
:1002900000F006F8DDF804E0DDE9022304B0704761
:1002A0002DE9F0478C460D460446089E002B51D19F
:1002B0008A4217466DD9B2FA82FEBEF1000F0BD00A
:1002C000CEF1200C01FA0EF520FA0CFC02FA0EF722
:1002D0004CEA050C00FA0EF44FEA174A250CBCFB59
:1002E000FAF81FFA87F90AFB18CC45EA0C4508FB17
:1002F00009F3AB420AD9ED1908F1FF3280F02381EE
:10030000AB4240F22081A8F102083D44ED1AA4B2AC
:10031000B5FBFAF00AFB105544EA054400FB09F965
:10032000A14509D9E41900F1FF3380F00A81A14504
:1003300040F2078102383C44A4EB090440EA08403B
:100340000021002E61D024FA0EF400233460736083
:10035000BDE8F0878B4207D9002E54D0002186E8F3
:1003600021000846BDE8F087B3FA83F1002940F088
:100370008E80AB4202D3824200F2FA80841A65EB8F
:1003800003050120AC46002E3FD086E81010BDE8E2
:10039000F08712B90127B7FBF2F7B7FA87FEBEF173
:1003A000000F34D1EB1B3A0C1FFA87FC0121B3FB81
:1003B000F2F8250C02FB183345EA03450CFB08F361
:1003C000AB4207D9ED1908F1FF3002D2AB4200F27F
:1003D000D1808046ED1AA3B2B5FBF2F002FB1055B6
:1003E00043EA05440CFB00FCA44507D9E41900F1DD
:1003F000FF3302D2A44500F2B8801846A4EB0C04E7
:1004000040EA08409DE731463046BDE8F087CEF12E
:10041000200405FA0EF307FA0EF720FA04F83A0C56
:1004200025FA04F448EA0308B4FBF2F14FEA184550
:1004300002FB11441FFA87FC45EA044501FB0CF35B
:10044000AB4200FA0EF409D9ED1901F1FF3080F04A
:100450008A80AB4240F2878002393D44EB1A1FFA92
:1004600088F5B3FBF2F002FB103345EA034500FBCD
:100470000CF3AB4207D9ED1900F1FF386FD2AB4254
:100480006DD902383D44EB1A40EA01418FE7C1F1D2
:10049000200722FA07F88B4005FA01F448EA030323
:1004A00020FA07FE4FEA134CFD404EEA040EB5FB5E
:1004B000FCF94FEA1E440CFB19551FFA83F844EA75
:1004C000054509FB08F4AC4202FA01F200FA01FA10
:1004D00008D9ED1809F1FF3043D2AC4241D9A9F156
:1004E00002091D442D1B1FFA8EFEB5FBFCF00CFB10
:1004F00010554EEA054400FB08F8A04507D9E4185A
:1005000000F1FF3529D2A04527D902381C4440EA22
:100510000940A4EB0804A0FB02894C45C6464D46A1
:1005200015D312D056B1BAEB0E0364EB050404FAEE
:1005300007F7CB401F43CC40376074600021BDE813
:10054000F0871846F8E69046E0E6C245EAD2B8EBF6
:10055000020E69EB03050138E4E72846D7E7404679
:1005600091E78146BEE7014678E702383C4445E71B
:10057000084608E7A8F102083D442BE7704700BF92
:1005800038B50E4A0E4B054618784FF47A73B3FB14
:10059000F0F31068B0FBF3F000F0AAF8044658B985
:1005A0000F2D09D8024629464FF0FF3000F05EF8C3
:1005B000044B20461D6038BD012038BD08000020D6
:1005C000000000200400002008B50B4B1A6842F41C
:1005D00000721A601A6842F480621A601A6842F463
:1005E00080721A60032000F02FF80020FFF7C8FF88
:1005F00000F000FF002008BD003C0240034A044B0D
:1006000011681B780B441360704700BFA4000020E2
:1006100000000020014B1868704700BFA4000020B4
:1006200038B50446FFF7F6FF631C1CBF054B1B786B
:10063000054618BFE418FFF7EDFF401B8442FAD8C7
:1006400038BD00BF00000020074AD36823F4E063F0
:100650001B041B0C43F0BF63000243F4003300F49F
:10066000E0600343D360704700ED00E0174B30B506
:10067000DC68C4F30224C4F10703251D042B28BF42
:100680000423062D4FF0010505FA03F303F1FF33B0
:100690008CBF033C00241940A14005FA04F4013C3E
:1006A0002240002842EA01024FEA0212ADBF00F1E7
:1006B000604000F00F00064B00F56140B5BFD2B2BC
:1006C000D2B21A5480F8002330BD00BF00ED00E024
:1006D00014ED00E0002808DB4209012300F01F00B0
:1006E00003FA00F0014B43F82200704700E100E0FC
:1006F0000138B0F1807F0AD2064B074A5860F021DA
:1007000082F823100020072298601A6070470120A9
:10071000704700BF10E000E000ED00E008B500F019
:1007200003FF08BD2DE9F04F85B00B68DFF8AC8101
:10073000684ADFF8AC91019300230124019D9C409D
:100740002540AC4240F0B0804C6824F0100C0CF115
:10075000FF36012E4FEA430E12D88768032606FAA9
:100760000EF627EA0607CE6806FA0EF63E438660C6
:100770004768C4F3001627EA05079E403E434660DB
:100780000326C76806FA0EF6F64307EA060A8F68DC
:1007900007FA0EF747EA0A07BCF1020FC76016D145
:1007A0004FEAD30A00EB8A0A03F0070BDAF820704D
:1007B0004FEA8B0B4FF00F0C0CFA0BFC27EA0C0CDA
:1007C0000F6907FA0BF747EA0C07CAF820700768A9
:1007D0003E4004F0030707FA0EFE4EEA06060660E6
:1007E000E60061D54FF0000BCDF80CB0D8F844709E
:1007F000394E47F48047C8F84470D8F8447007F47D
:1008000080470397039F23F0030707F1804707F50D
:100810009C3703F0030CD7F808A04FEA8C0C4FF07C
:100820000F0E0EFA0CFEB0422AEA0E0E43D006F569
:100830008066B04241D006F58066B0423FD006F5F2
:100840008066B0423DD006F58066B0423BD0484558
:100850003BD006F50066B04239D006F58066B0425E
:1008600014BF0826072606FA0CF646EA0E06BE60F6
:100870001668EF4314F4803F0CBF3E402E431660D1
:10088000566814F4003F0CBF3E402E4356609668F5
:1008900014F4801F0CBF3E402E439660D668A4021D
:1008A00054BF3E402E43D6600133102B7FF445AF3A
:1008B00005B0BDE8F08F5E46D5E70126D3E70226F6
:1008C000D1E70326CFE70426CDE70526CBE70626AA
:1008D000C9E700BF003C0140000002400038024070
:1008E000001402400AB1816170470904FBE700006F
:1008F0002DE9F341044608B901203FE00368DD0714
:1009000010D4236898075AD423681A0700F19C80F2
:1009100023685B0700F1BA80A069002840F01B81C2
:1009200000202BE0A44B9A6802F00C02042A07D0A6
:100930009A6802F00C02082A0AD15B68590207D5AE
:100940009D4B1B689A03DCD56368002BD9D1D3E794
:100950006368994DB3F5803F13D12B6843F480331E
:100960002B60FFF757FE944D06462B689B03C8D4B7
:10097000FFF750FE801B6428F7D9032002B0BDE8C2
:10098000F081B3F5A02F04D12B6843F480232B60B2
:10099000E3E72A6822F480322A602A6822F480225F
:1009A0002A60002BDDD1FFF735FE06462B689F033A
:1009B000A7D5FFF72FFE801B6428F7D9DDE77E4B14
:1009C0009A6812F00C0F07D09A6802F00C02082AFD
:1009D00011D15B685E020ED4774B1A68950702D579
:1009E000E268012A88D11A68216922F0F80242EAF5
:1009F000C1021A6088E7E268704BB2B101221A6046
:100A0000FFF708FE6C4D06462B68980707D52B6844
:100A1000226923F0F80343EAC2032B6074E7FFF76F
:100A2000F9FD801B0228EFD9A7E71A60FFF7F2FD56
:100A3000614D06462B6899077FF566AFFFF7EAFD23
:100A4000801B0228F6D998E762695D4B7AB10122D2
:100A50001A60FFF7DFFD584D06466B6F9F073FF5A5
:100A600057AFFFF7D7FD801B0228F6D985E71A603C
:100A7000FFF7D0FD504D06466B6F98077FF548AFE6
:100A8000FFF7C8FD801B0228F6D976E74A4B1A6C9F
:100A900012F0805228D101921A6C42F080521A64EE
:100AA0001B6C03F080530193019B0126454D2B687D
:100AB000D9051BD5A368404D012B27D12B6F43F0DF
:100AC00001032B67FFF7A6FD3B4D074641F288382F
:100AD0002B6F9B0739D5002E3FF41EAF364A136C9F
:100AE00023F08053136417E70026DFE72B6843F4F5
:100AF00080732B60FFF78EFD07462B68DA05D9D48B
:100B0000FFF788FDC01B0228F7D936E7052B04D173
:100B10002B6F43F004032B67D0E72A6F22F001020A
:100B20002A672A6F22F004022A67002BCAD1FFF736
:100B300071FD41F2883807462B6F9807CBD5FFF738
:100B400069FDC01B4045F7D917E7FFF763FDC01BE0
:100B50004045BDD911E7184DAB6803F00C03082BD5
:100B600047D0194E00230228336035D1FFF752FDDC
:100B700007462B68990129D4226AE3691343626A04
:100B800043EA8213E26A43EA0263A26A0A4C520809
:100B9000013A43EA02436B6001233360FFF73AFDF9
:100BA000054623689A013FF5BBAEFFF733FD401BB6
:100BB0000228F6D9E1E600BF0038024000004742B3
:100BC000800E47420070004060004742FFF722FD60
:100BD000C01B0228CDD9D0E6FFF71CFD04462B68C8
:100BE0009B017FF59DAEFFF715FD001B0228F6D98E
:100BF000C3E601283FF4C2AE6868E36900F48002EE
:100C00009A427FF479AE226A00F03F0393427FF468
:100C100073AE626A47F6C073034093427FF46CAED2
:100C2000A26A00F4403393427FF466AEE36A00F0B8
:100C30007060C01A18BF0120A0E600BF134908B5B4
:100C40008B6803F00C03042B03D0082B03D010484F
:100C500008BD104808BD4A684B68496813F4800312
:100C600014BF0C480A48C1F3881118BF002302F0D2
:100C70003F02A1FB0001FFF7FBFA044B5B68C3F3E3
:100C8000014301335B00B0FBF3F008BD00380240C4
:100C90000024F40000127A002DE9F0410D460446CC
:100CA00010B90120BDE8F081444B1A6802F00F0230
:100CB0008A4229D321688F072ED4C80741D43F4BDD
:100CC0001A6802F00F02954267D3226851076DD46B
:100CD000130707D53A4A2169936823F4604343EA2E
:100CE000C1039360FFF7AAFF354B364A9B68C3F3F5
:100CF0000313D35CD840344B1860344B1868FFF7AB
:100D00003FFC0020BDE8F081CAB21A701B6803F0F6
:100D10000F039942C5D1CDE7294B11F0040F1EBF37
:100D20009A6842F4E0529A600E0742BF9A6842F411
:100D300060429A609A68A06822F0F00202439A60CA
:100D4000BBE762681E4B012A1DD11B6813F4003FEC
:100D5000A7D01B4EB36823F003031343B360FFF720
:100D600059FC41F288380746B368626803F00C0307
:100D7000B3EB820FA3D0FFF74DFCC01B4045F3D966
:100D80000320BDE8F081911E01291B6802D813F0F1
:100D9000007FDDE713F0020FDAE7EAB21A701B6892
:100DA00003F00F039D427FF47CAF8EE70449E068B7
:100DB0008B6823F4E05303438B6089E7003C0240D7
:100DC00000380240D325000808000020040000205D
:100DD000044B054A9B68C3F38223D35C034A106823
:100DE000D840704700380240E32500080800002082
:100DF000044B054A9B68C3F34233D35C034A106833
:100E0000D840704700380240E32500080800002061
:100E100038B50368C1681A69044622F440520A438F
:100E20001A612569A268D968C0692A43656921F4F5
:100E300016412A4321F00C0102430A43DA605A6941
:100E4000A16922F440720A43B0F5004F5A61254A65
:100E500029D1934203D002F58062934220D1FFF75B
:100E6000C7FF6268256892184FF000034FF0190120
:100E70005B41A0FB0101FFF7FBF96421B0FBF1F43A
:100E800001FB1403DB003233B3FBF1F303F0070281
:100E90005B0002EB041203F4F8731344AB6038BD3B
:100EA000FFF796FFDDE7934202D00F4A934216D137
:100EB000FFF79EFF6368256819219A00A0FB0101D6
:100EC0009B0FFFF7D5F96422B0FBF2F102FB11038F
:100ED0001B013233B3FBF2F303EB0113DEE7FFF741
:100EE00077FFE7E70010014000140140F8B5044621
:100EF0000E4617461D4621680B6836EA030301D1EA
:100F00000020F8BD6B1CF7D095B92368DA6822F48D
:100F1000D072DA605A6922F001025A61202384F803
:100F2000393084F83A30002384F838300320F8BD93
:100F3000FFF770FBC01B8542DDD2E6E710B5044623
:100F400040B390F8393003F0FF021BB980F8382025
:100F500000F026FB2268242384F83930D36823F478
:100F60000053D3602046FFF753FF23681A6922F429
:100F700090421A615A6922F02A025A61DA6842F4F0
:100F80000052DA6000202023E06384F8393084F8CE
:100F90003A3010BD012010BD2DE9F8431F4690F8EE
:100FA0003930202B04460D46904651D100294CD0B3
:100FB000002A4AD090F83830012B49D0012380F81C
:100FC00038304FF000092123C0F83C9080F83930C8
:100FD000FFF720FBA4F824800646A4F8268084F8B6
:100FE0003890E38C9BB25BB93B46324640212046A9
:100FF000FFF77CFFA0B9202384F83930BDE8F883DF
:10100000E38C013B9BB2E384A368B3F5805F324677
:101010003B464FF0800120460ED1FFF767FF10B12D
:101020000320BDE8F8832B882268C3F308035360CC
:10103000236943B90235D4E7FFF758FF0028EFD101
:1010400023682A785A600135CBE70120BDE8F88390
:101050000220BDE8F88300001748184A38B5184C3C
:10106000184B106000F58471516004F5847159606B
:1010700000F50471916004F50471996000F5467102
:10108000D1604FF4846504F54672DA6000212A4687
:101090001C6000F00FFB2A460021204600F00AFBEE
:1010A000094B1B685A6942F001025A61DA6842F042
:1010B0002002DA6038BD00BFB8000020D80400204C
:1010C000E8040020A800002040090020D1F80031E9
:1010D000D1F804210133DBB29A421EBFD1F80021BE
:1010E0008854C1F8003170470A4B53F82030D3F8C8
:1010F0000011D3F8042191421FBFD3F80421985C5A
:10110000D3F8042101321ABFD2B2C3F804214FF040
:10111000FF307047D8040020002915DB0B4B53F833
:101120002020D2F800310133DBB2D2F8040198421A
:10113000FBD0D2F800011154C2F80031044B1A68F8
:10114000D36843F08003D360704700BFA80000203D
:1011500040090020044B53F82030D3F80001D3F8A5
:101160000431C01AC0B27047D80400200368186860
:10117000DA6810F0200F0AD012F0200F07D01A689A
:101180005868134BC0B253F82110FFF79FBF0006F9
:101190001CD512061AD50F4A4FF4847000FB0121AA
:1011A000D1F80001D1F80421904204D1DA6822F08C
:1011B0008002DA607047D1F80421885CD1F80421FC
:1011C0000132D2B2C1F804211A685860704700BFDA
:1011D000D8040020E80400200020FFF785BF014666
:1011E0000020FFF799BF08B50020FFF7B3FF0030DC
:1011F00018BF012008BD000008B5064800F0D6FA67
:10120000FFF7F1FF0028FBD0FFF7E6FFFFF7E7FF4E
:10121000F6E700BF9425000830B589B014220021FC
:1012200003A800F047FA0024194B00941A6B194DDB
:1012300042F004021A631A6B02F004020092009A50
:1012400001941A6B42F080021A631A6B02F080025A
:101250000192019A02941A6B42F001021A631B6B0D
:1012600003F001030293224628464FF40071029BCB
:10127000FFF738FB4FF40073039303A901232846BB
:10128000049305940694FFF74DFA09B030BD00BFF2
:10129000003802400008024010B50A2314460348F3
:1012A00092B2FFF779FE204610BD00BF4009002032
:1012B00030B595B03022002108A800F0FBF90021DC
:1012C000142203A800F0F6F900241C4B01941A6CB8
:1012D00042F080521A641B6C03F080530193019B0F
:1012E000174B02941A6842F480421A601B680F94EC
:1012F00003F480430293029B01230B9310230C936E
:1013000008231093A8230225119308A804231393FC
:1013100008950E951295FFF7EBFA0F2303934FF400
:10132000A053069305214FF4805303A80495059418
:101330000793FFF7B1FC15B030BD00BF0038024085
:101340000070004038B5FFF73FF9FFF7B1FFFFF736
:1013500063FF00F009F9002211462520FFF786F906
:101360002520FFF7B7F9FFF777FE1C4800F01EFABB
:101370001B4B4FF47A721B68B3FBF2F3013BB3F1E2
:10138000807F09D2174A5360174BF02183F823104E
:101390000023936007231360144D00244FF47A70E8
:1013A0000134FFF73DF92146284600F08BF90A2C5D
:1013B000F4D14FF47A71012000F096F8FFF71CFF8A
:1013C0000020FFF7C7FE0028FAD00020FFF78CFEB0
:1013D00001460020FFF7A0FEF2E700BFA9250008A4
:1013E0000800002010E000E000ED00E0CB25000840
:1013F0007047000082B00C4B002100915A6C42F4FF
:1014000080425A645A6C02F480420092009A019120
:101410001A6C42F080521A641B6C03F080530193E3
:10142000019B02B0704700BF003802407047FEE7E2
:10143000FEE7FEE7FEE770477047704708B5FFF725
:10144000DDF8BDE80840FFF769B90000034A044829
:101450001368002101331360FFF788BE8C00002061
:101460004009002070B50E4615460C46A31B9D4250
:1014700001DC284670BDAFF3008004F8010BF5E7EE
:1014800008B50A4B1968024609B909491960186874
:10149000694602448A4206D900F0E2F80C23036050
:1014A0004FF0FF3008BD1A6008BD00BF900000205B
:1014B000840900204FF0FF3070474FF400534B6019
:1014C000002070470120704700207047054BD3F87B
:1014D000882042F47002C3F888204FF000629A60BE
:1014E000704700BF00ED00E00A2870B505460E46C3
:1014F00006D902460A21094800F0E4F8002070BD30
:10150000074C2C220021204600F0D4F8054B196826
:1015100004EB850431446160012070BDEB250008B7
:1015200014090020980000200A4A13680133136050
:10153000094A136801331360084A1168012907D169
:1015400007480068834201BF064B196000231360FF
:10155000704700BF94000020980000201009002070
:101560000C0900200809002008B50B480B4B4FF46C
:10157000E13E80E808400C2200238360C3600361E1
:1015800042618361C361FFF7D9FC18B1BDE808402F
:10159000FFF72EBF08BD00BF40090020001001402A
:1015A00010B5044688B01422002103A800F082F888
:1015B0002268144B9A4223D103F594330021019100
:1015C0005A6C114842F010025A645A6C02F0100230
:1015D0000192019A02911A6B42F001021A631B6B8D
:1015E00003F001030293029B4FF4C06303930223B1
:1015F00004930323069303A907230793FFF792F8A5
:1016000008B010BD0010014000000240DFF834D0E7
:10161000002103E00C4B5B58435004310B480C4B4A
:1016200042189A42F6D30B4A02E0002342F8043BE8
:10163000094B9A42F9D3FFF749FF00F017F8FFF77B
:1016400081FE704700000220AC2600080000002048
:10165000700000207000002084090020FEE70000D8
:10166000014B1868704700BF0C00002070B50D4E8C
:101670000D4CA41BA4100025A54209D10B4E0C4C07
:1016800000F07CFFA41BA4100025A54205D170BD6D
:1016900056F8253098470135EEE756F8253098473B
:1016A0000135F2E7A4260008A4260008A4260008B5
:1016B000A826000802440346934200D1704703F86D
:1016C000011BF9E70FB40A4B13B51C6824B1A369D9
:1016D00013B9204600F024FA05AB049AA1680193DF
:1016E000204600F0E1FB02B0BDE8104004B07047B6
:1016F0000C00002070B50E46054618B183690BB981
:1017000000F00EFAAB69AC6813B9284600F008FA8D
:10171000234B9C4217D16C68A3891B071DD52369F5
:10172000DBB1013EA36816F8011F013BA360E9B9D4
:10173000002B2EDA22460A21284600F03FF801301D
:1017400011D00A2070BD174B9C4201D1AC68E3E771
:10175000154B9C4208BFEC68DEE72146284600F0A6
:101760007FF80028DDD04FF0FF3070BD002B04DA89
:10177000A269934206DB0A2904D023685A1C22601E
:101780001970CFE72246284600F018F80130C9D179
:10179000E9E723680A205A1C2260187070BD00BF58
:1017A000282600084826000808260008024B0146A3
:1017B0001868FFF79FBF00BF0C000020F8B50E4669
:1017C0001446054618B183690BB900F0A9F9214BFD
:1017D0009C422AD16C68A369A360A3891A072ED5FD
:1017E000236963B323692068C01A6369F6B298421B
:1017F000374604DB2146284600F028F928BBA368B9
:10180000013BA36023685A1C22601E70636901308B
:10181000984204D0A389DB0719D50A2E17D1214697
:10182000284600F013F990B10FE00B4B9C4201D118
:10183000AC68D0E7094B9C4208BFEC68CBE7214677
:10184000284600F00DF80028CCD04FF0FF3738467E
:10185000F8BD00BF28260008482600080826000812
:10186000324B70B51D6806460C4625B1AB6913B9FD
:10187000284600F055F92E4B9C420FD16C68B4F904
:101880000C309AB215072CD4D00611D4092232603C
:1018900043F04003A3814FF0FF3070BD254B9C42C5
:1018A00001D1AC68EBE7244B9C4208BFEC68E6E74B
:1018B000510712D5616B41B104F14403994202D042
:1018C000304600F01BFA00236363A38923F024034E
:1018D000A3810023636023692360A38943F0080385
:1018E000A38123694BB9A38903F42073B3F5007F67
:1018F00003D02146304600F0C1F9A28912F001035D
:101900000CD00023A36063695B42A361236953B9D0
:10191000B4F90C3013F08000BAD170BD920758BFF3
:101920006369A360F2E70020F7E700BF0C00002026
:101930002826000848260008082600088A892DE97C
:10194000F041054610070C465AD44B68002B05DCC5
:101950000B6C002B02DC0020BDE8F081E66A002E53
:10196000F9D0002312F480522F682B6033D0606DC1
:10197000A3895A0705D56368C01A636B0BB1236C42
:10198000C01A00230246E66A216A2846B047431C73
:10199000A38906D129681D294BD82B4ACA40D607EE
:1019A00047D500226260D9042269226004D5421C16
:1019B00001D12B6803B96065616B2F600029CAD023
:1019C00004F14403994202D0284600F097F9002020
:1019D0006063BDE8F081216A01232846B047411CBD
:1019E000C6D12B68002BC3D01D2B01D0162B01D1E3
:1019F0002F60B0E7A38943F04003A381BDE8F081E5
:101A00000F69002FA7D093070E6808BF4B690F60BE
:101A100018BF0023A6EB07088B60B8F1000F9ADD12
:101A200043463A46216AA66A2846B047002807DCA2
:101A3000A38943F04003A3814FF0FF30BDE8F0815C
:101A40000744A8EB0008E8E70100402038B50B691F
:101A500005460C46DBB118B183690BB900F060F89C
:101A60000C4B9C4209D16C68B4F90C307BB1214617
:101A70002846BDE83840FFF761BF074B9C4201D1C3
:101A8000AC68F1E7054B9C4208BFEC68ECE700202E
:101A900038BD00BF28260008482600080826000890
:101AA000014900F0A9B800BF4D1A0008002310B585
:101AB000044603604360836081814366C2810361A1
:101AC00043618361194608225C30FFF7F3FD054B43
:101AD0006362054BA362054BE362054B24622363FB
:101AE00010BD00BF21240008432400087B24000807
:101AF0009F24000870B54A1E682555430E4605F11F
:101B0000740100F049F9044640B1002180E8420028
:101B10000C30A06005F16802FFF7CCFD204670BDD7
:101B2000836910B5044633BB8364C3640365124BF9
:101B3000124A1B688262984204BF0123836100F04D
:101B40001FF86060204600F01BF8A060204600F0FF
:101B500017F80022E06004216068FFF7A7FF012268
:101B60000921A068FFF7A2FF02221221E068FFF717
:101B70009DFF0123A36110BD04260008A11A0008DF
:101B8000F8B51C4B1E68B369074613B93046FFF71A
:101B9000C7FF4836B4687368013B03D5336833B177
:101BA0003668F7E7B4F90C506DB16834F4E70421F6
:101BB0003846FFF79FFF30600028F1D10C233B60CF
:101BC00004462046F8BD4FF6FF73E3810123A3814D
:101BD00065662560A560656025616561A56108226F
:101BE000294604F15C00FFF765FD6563A563A56404
:101BF000E564E6E7042600082DE9F84380468946B7
:101C000000F14804002614B93046BDE8F883A56801
:101C10006768013F01D52468F5E7AB89012B07D937
:101C2000B5F90E30013303D029464046C847064374
:101C30006835EEE770B50E46B1F90E10002990B088
:101C400014461D4607DA00232B60B3891A0610D408
:101C50004FF480630EE001AA00F048FC0028F2DB9C
:101C6000029A02F47042A2F500535A425A412A6085
:101C7000EEE740230020236010B070BD8B8973B560
:101C80009D0706460C4607D504F1470323602361F0
:101C90000123636102B070BD01AB6A46FFF7CAFF62
:101CA00000990546304600F077F848B9B4F90C3091
:101CB0009A05EFD423F0030343F00203A381E3E783
:101CC0000D4BB362A389206043F08003A381009B86
:101CD0006361019B20615BB1B4F90E10304600F0E6
:101CE00017FC28B1A38923F0030343F00103A38168
:101CF000A3891D43A581CDE7A11A000838B5054683
:101D0000002945D051F8043C0C1F002BB8BFE41843
:101D100000F020FC1F4A1368104633B9636014605A
:101D20002846BDE8384000F016BCA3420CD9216813
:101D30006218934204BF1A685B68636004BF52185C
:101D400022600460ECE713465A680AB1A242FAD94D
:101D500019685818A0420BD12068014458188242D3
:101D60001960DDD1106852685A6001441960D7E7E4
:101D700002D90C232B60D3E7206821188A4204BFC4
:101D800011685268626004BF091821605C60C7E78F
:101D900038BD00BF9C00002070B5CD1C25F00305A8
:101DA00008350C2D38BF0C25002D064601DBA94255
:101DB00003D90C233360002070BD00F0CBFB234A15
:101DC0001468214691B9224C23681BB9304600F0B3
:101DD00017FB20602946304600F012FB431C26D139
:101DE0000C233360304600F0B6FBE4E70B685B1B66
:101DF0001AD40B2B0FD90B60CD50CC18304600F005
:101E0000AAFB04F10B00231D20F00700C31A1BD00E
:101E10005A42E25070BD8C420DBF63684B686360EC
:101E2000136018BF0C46E9E70C464968CAE7C41CB2
:101E300024F00304A04205D0211A304600F0E0FA55
:101E40000130CDD02560D9E770BD00BF9C000020D7
:101E5000A00000209368013B002B10B4936009DAC6
:101E60009469A34202DBCBB20A2B03D15DF8044B89
:101E7000FFF7A4BC1368581C10601970C8B25DF855
:101E8000044B7047F8B506460F461446D518AC42C9
:101E900001D1002007E03A4614F8011B3046FFF755
:101EA000D9FF431CF3D1F8BD2DE9F04F9DB00C468E
:101EB00017460393064618B183690BB9FFF730FE46
:101EC0007C4B9C4257D17468A38918075DD5236960
:101ED000002B5AD00023099320238DF8293030237A
:101EE0008DF82A304FF0010BB846454615F8013BF6
:101EF000002B55D1B8EB070A0BD053463A46214682
:101F00003046FFF7BFFF013000F0C480099B534407
:101F1000099398F80030002B00F0BC8000234FF0AC
:101F2000FF3204930793059206938DF853301A936A
:101F3000052229786048FEF74BF905F10108049B5A
:101F4000002831D1D90644BF20228DF853201A072A
:101F500044BF2B228DF853202A782A2A2CD0079AA6
:101F600000210A20A846013598F80030303B092BA3
:101F70006DD971B326E0514B9C4201D1B468A3E7FF
:101F80004F4B9C4208BFF4689EE721463046FFF75E
:101F900067FC00289ED04FF0FF301DB0BDE8F08FE9
:101FA000252BA7D0A846A0E7434A801A0BFA00F0D9
:101FB000184304904546BBE7039A111D126803912C
:101FC000002A01DB079204E0524243F00203079229
:101FD000049398F800302E2B10D198F801302A2B5A
:101FE00008F1010137D1039B1A1D1B680392002BD6
:101FF000B8BF4FF0FF3308F102080593314D98F850
:10200000001003222846FEF7E3F840B14023401BAE
:1020100003FA00F0049B0343049308F1010898F8C5
:10202000001029488DF82810062208F10107FEF754
:10203000CFF8002834D0254B03BB039B073323F094
:10204000070308330393099B4B4409934CE700FBB8
:102050000232012186E70023059318460A258846A7
:10206000013198F80020303A092A03D9002BC5D055
:102070000590C3E705FB00200123F0E703AB0093C5
:102080002246134B04A93046AFF30080B0F1FF3F66
:102090008146D8D1A3895B063FF57DAF09987CE7DF
:1020A00003AB009322460A4B04A9304600F088F89F
:1020B000ECE700BF2826000868260008482600082C
:1020C000082600086E26000872260008000000009E
:1020D000851E00082DE9F04791461F468A680B6966
:1020E000DDF820809342B8BF1346C9F8003091F85C
:1020F000432006460C4612B10133C9F8003023686C
:10210000990642BFD9F800300233C9F8003025687B
:1021100015F0060507D104F1190AE368D9F8002083
:102120009B1A9D4229DB94F843302268003318BF84
:10213000012392062ED404F1430239463046C047AB
:10214000013021D02368E568D9F8002003F00603A8
:10215000042B08BFAD1AA36822690CBF25EAE575F8
:1021600000259342C4BF9B1AED184FF000091A34A2
:102170004D451BD10020BDE8F0870123524639466A
:102180003046C047013003D14FF0FF30BDE8F08743
:102190000135C2E7E1185A1C302081F8430022447F
:1021A00094F8451082F843100233C4E70123224615
:1021B00039463046C0470130E6D009F10109D7E77A
:1021C0002DE9F04317460A7E85B06E2A98460646EA
:1021D0000C460C9B01F1430E00F0BC801AD8632A18
:1021E0002ED00AD8002A00F0C880582A00F08A8031
:1021F00004F1420584F842202AE0642A01D0692AC9
:10220000F6D121681A6811F0800F23D0111D1960D2
:10221000136827E0732A00F0B48008D86F2A2AD008
:10222000702AE5D10A6842F020020A6003E0752AAC
:1022300021D0782ADCD1782284F845206E4964E0E8
:102240001A6801F14205111D1960136884F84230C3
:102250000123A3E011F0400F02F104011960D7D06F
:10226000B2F90030002B03DA2D225B4284F84320C0
:1022700062490A2217E02068196810F0800F03D025
:10228000081D18600B6806E010F0400F01F1040013
:102290001860F7D00B8859496F2A14BF0A22082208
:1022A000002084F843006568A560002DC0F29C8082
:1022B000206820F004002060002B3FD1002D40F06A
:1022C00095807546082A0BD12368DA0708D523695B
:1022D00062689A42DEBF302305F8013C05F1FF3504
:1022E000AEEB05032361CDF800803B4603AA2146EF
:1022F0003046FFF7EFFE013055D14FF0FF3005B00B
:10230000BDE8F08381F845203C492268186812F046
:10231000800F00F104051D6001D0036802E055063E
:10232000FBD50388D00744BF42F0200222601BB9CE
:10233000226822F0200222601022B1E77546B3FB2A
:10234000F2F002FB1033CB5C05F8013D0346002898
:10235000F5D1B7E708681A68496910F0800F04D012
:10236000101D18601368196007E010F0400F02F1AB
:10237000040018601368F6D01980002323617546A5
:10238000B1E71A68111D19601568626800212846B6
:10239000FDF71EFF08B1401B6060636823610023E6
:1023A00084F843309FE723692A4639463046C047C0
:1023B0000130A2D023689B0707D5002504F1190935
:1023C000E368039A9B1A9D4205DBE068039B9842F1
:1023D000B8BF184693E701234A4639463046C047FE
:1023E00001308AD00135EBE7002BA7D10B7884F8B8
:1023F000423004F1420565E78A2600087926000884
:1024000038B5064C0023054608462360FFF738F828
:10241000431C02D1236803B12B6038BD8009002022
:1024200010B50C46B1F90E1000F096F80028ABBFBD
:10243000636DA3891B1823F48053ACBF6365A3812C
:1024400010BD2DE9F0411F468B89DB0505460C4682
:10245000164605D502230022B1F90E1000F068F8E7
:10246000A389B4F90E1023F48053A38132463B466E
:102470002846BDE8F04100F017B810B50C46B1F998
:102480000E1000F055F8431CA38915BF606523F4B6
:10249000805343F48053A38118BFA38110BDB1F9C9
:1024A0000E1000F013B8000038B5074C054608467A
:1024B0001146002222601A46FEF7EEFE431C02D1AE
:1024C000236803B12B6038BD8009002038B5064C65
:1024D0000023054608462360FEF7ECFF431C02D1AB
:1024E000236803B12B6038BD8009002038B5074C44
:1024F00000230546084611462360FEF7DEFF431C15
:1025000002D1236803B12B6038BD00BF80090020D1
:1025100038B5064C0023054608462360FEF7D2FF77
:10252000431C02D1236803B12B6038BD8009002011
:1025300038B5074C054608461146002222601A4667
:10254000FEF7C2FF431C02D1236803B12B6038BDE4
:10255000800900207047704738B5074C054608468B
:102560001146002222601A46FEF77CFF431C02D16E
:10257000236803B12B6038BD80090020F8B500BF87
:10258000F8BC08BC9E467047F8B500BFF8BC08BC54
:042590009E467047AC
:102594006D61696E2070726F6772616D2073746112
:1025A40072742E2E00736D6172746F75746C657421
:1025B400206D61696E2070726F6772616D20737433
:1025C4006172742E2E2E002564207365630A000048
:1025D40000000000000000010203040607080900CF
:1025E400000000010203044D415854494D45522056
:1025F4003D2025642C206964203D2025640A0000C8
:102604001000002000000000000000000000000096
:1026140000000000000000000000000000000000B6
:1026240000000000000000000000000000000000A6
:102634000000000000000000000000000000000096
:102644000000000000000000000000000000000086
:102654000000000000000000000000000000000076
:1026640000000000232D302B2000686C4C006566B0
:1026740067454647003031323334353637383941CF
:1026840042434445460030313233343536373839E5
:082694006162636465660000E9
:08269C0004DCFF7F01000000D7
:0426A400B501000874
:0426A8009101000894
:1026AC0001000000100000000024F40010000020C5
:1026BC00000000002826000848260008082600080C
:1026CC0000000000000000000000000000000000FE
:1026DC0000000000000000000000000000000000EE
:1026EC0000000000000000000000000000000000DE
:1026FC0000000000000000000000000000000000CE
:10270C0000000000000000000000000000000000BD
:040000050800160DCC
:00000001FF
